:020000040800F2
:1030000000000120AD440008C5320008C9320008A4
:10301000CD320008D1320008D5320008000000008F
:10302000000000000000000000000000DD32000889
:10303000D932000800000000E1320008D533000852
:10304000E5320008E9320008ED320008F1320008EC
:10305000F5320008F9320008FD320008013300089B
:1030600005330008093300080D3300080000000094
:103070000000000000000000000000000000000050
:1030800000000000000000002D330008313300086C
:1030900035330008393300083D3300084133000858
:1030A00045330008493300084D3300085133000808
:1030B00055330008593300085D33000861330008B8
:1030C00065330008693300086D3300087133000868
:1030D00075330008793300087D3300088133000818
:1030E00085330008893300088D33000891330008C8
:1030F00095330008993300089D330008A133000878
:10310000A5330008A9330008AD330008B133000827
:10311000B5330008B9330008BD330008C1330008D7
:10312000C5330008C9330008CD330008D133000887
:043130005FF8000044
:10313400034A136813B11368013B13607047C04618
:103144000000002010B50446012001F037F9074BB8
:103154001C601A461368002BFCD16FF0010001F0CB
:103164002DF9002001F02AF910BDC046000000200E
:1031740000B542F2283081B001F01AF9012001F0C3
:1031840033F901B000BDC04670B582B001AC204631
:1031940000F00CFC03264FF20003102521460B48D7
:1031A400ADF804308DF806608DF8075000F0AAFBE6
:1031B4004EF2000306482146ADF804308DF806604F
:1031C4008DF8075000F09EFB02B070BD000C01406A
:1031D4000010014000B54FF0006081B04FF4405141
:1031E40000F0A4FD01B000BD00B581B000F000FF07
:1031F4004FF4803000F01CFF00F034FF012824D18C
:10320400102000F003F9022000F0E8F8002000F09C
:1032140073FF002000F084FF4FF4806000F076FF1D
:103224004FF480304FF4E01100F044FF012000F02F
:103234004BFF392001F074F80028FAD0022000F086
:1032440049FF00F051FF0828FBD11820012101F0AB
:103254001DF8012000F05CFE01B000BD00B581B096
:10326400FFF7C2FF4FF000604FF4405100F05EFDE5
:10327400FFF78AFFFFF77CFF0F484FF4005100F07F
:10328400B1FB0D484FF4804100F0ACFB0A484FF409
:10329400004100F0A7FB09484FF4804100F0A2FB75
:1032A40006484FF4004100F09DFB03484FF40051E1
:1032B40000F09AFBFEE7C046000C014000100140FC
:1032C4007047C046FEE7C046FEE7C046FEE7C0467C
:1032D400FEE7C0467047C0467047C0467047C046C8
:1032E4007047C0467047C0467047C0467047C046E6
:1032F4007047C0467047C0467047C0467047C046D6
:103304007047C0467047C0467047C0467047C046C5
:103314007047C0467047C0467047C0467047C046B5
:103324007047C0467047C0467047C0467047C046A5
:103334007047C0467047C0467047C0467047C04695
:103344007047C0467047C0467047C0467047C04685
:103354007047C0467047C0467047C0467047C04675
:103364007047C0467047C0467047C0467047C04665
:103374007047C0467047C0467047C0467047C04655
:103384007047C0467047C0467047C0467047C04645
:103394007047C0467047C0467047C0467047C04635
:1033A4007047C0467047C0467047C0467047C04625
:1033B4007047C0467047C0467047C0467047C04615
:1033C4007047C0467047C0467047C0467047C04605
:1033D40000B581B0FFF7ACFE01B000BD044A13682C
:1033E40003F0380313601368184310607047C04635
:1033F40000200240044A136823F008031360136892
:10340400184310607047C04600200240044A136805
:1034140023F0100313601368184310607047C0460C
:1034240000200240034B044A5A6002F188325A6079
:103434007047C0460020024023016745024A1369D1
:1034440043F080031361704700200240014BD869A8
:103454008008704700200240014B186A7047C0463C
:1034640000200240024BD869400800F00100704778
:1034740000200240024B1868400900F00100704728
:103484000020024021B1054A136940EA030303E026
:10349400024A136923EA00031361704700200240C3
:1034A400012804D1054BDB6903F0010005E0034B5F
:1034B400DB6818420CBF0020012070470020024046
:1034C400014BD8607047C04600200240094AD368C7
:1034D40013F0010F01D001200BE0D36813F0040FA7
:1034E40001D0022005E0D36813F0100F14BF0320AD
:1034F400042070470020024010B5234A82B0D368EC
:10350400014613F0010F01D001202AE0D36813F023
:10351400040F01D0022024E0D36813F0100F14BF6D
:10352400032004201DE00194CDF804C002E0019BB7
:10353400013B0193019B002BF9D1D36813F0010FD8
:1035440001D001200BE0D36813F0040F01D0022056
:1035540005E0D36813F0100F14BF032004200139D1
:1035640003E0094A00244FF0FF0C0B1E18BF01238F
:10357400012814BF002303F00103002BD3D1002939
:1035840008BF052002B010BD00200240F0B5134B67
:10359400134C81B0A36003F188330546A3600F2068
:1035A4000E461746FFF7A8FF042815D123690D4AD4
:1035B40043F01003236145F0F80346EA030347EAA6
:1035C400030353800F20FFF797FF01281FBF2269D1
:1035D40041F6EF731340236101B0F0BD2301674549
:1035E4000020024000F8FF1F30B5054681B040F6C8
:1035F400FF70FFF781FF04283CD11F4C1F4B00F5DF
:103604007E60A36003F18833A36023691B3043F019
:1036140020032361236943F040032361FFF76CFF18
:10362400042820D1236941F6DF7203EA02022261F1
:10363400236943F0100323611DB1114B4FF00002C5
:1036440002E00F4B4FF0A5021A8040F6FF70FFF71F
:1036540053FF01280ED0084941F6EF730A6902EAC4
:1036640003030B6106E001281FBF226941F6DF73E3
:103674001340236101B030BD00200240230167459F
:1036840000F8FF1F10B504460F20FFF735FF04288C
:1036940050D1294A294B6FEA0404936003F188331B
:1036A40093601369E1B243F01003FF29136104D05E
:1036B400234B0F201981FFF71FFF04F47F431A0ADD
:1036C400B2F1FF0318BF0123042814BF002303F041
:1036D400010323B11A4B0F205A81FFF70DFF04F4A5
:1036E4007F031A0CB2F1FF0318BF0123042814BF8F
:1036F400002303F0010323B1114B0F209A81FFF73C
:10370400FBFE220EB2F1FF0318BF0123042814BFED
:10371400002303F0010323B1094B0F20DA81FFF7E3
:10372400EBFE01281FBF044941F6EF730A691340F9
:1037340018BF0B6110BDC04600200240230167453D
:1037440000F8FF1F70B506460F200D46FFF7D4FEA4
:10375400042814D10A4C0B4B0F20A36003F18833C7
:10376400A360236943F0100323613580FFF7C4FE8F
:1037740001281FBF226941F6EF731340236170BD16
:10378400002002402301674570B506460F200D4610
:10379400FFF7B2FE04280FD1084C0F20236943F031
:1037A400010323613580FFF7A7FE01281FBF2269AB
:1037B40041F6FE731340236170BDC04600200240F1
:1037C40070B506460F200D46FFF796FE042817D164
:1037D4000C4C0F20236943F001032361ABB2338007
:1037E400FFF78AFE042804D12B0C73800F20FFF707
:1037F40083FE01281FBF226941F6FE731340236133
:1038040070BDC0460020024010B540F6FF70FFF7BF
:1038140073FE04282CD1174C174B00F57E60A3606F
:1038240003F18833A36023691B3043F02003236131
:10383400236943F040032361FFF75EFE042810D19F
:10384400226941F6DF7302EA0303236123694FF01F
:10385400A50243F010032361084B0F201A80FFF7E1
:103864004BFE01281FBF226941F6EF731340236109
:1038740010BDC046002002402301674500F8FF1F29
:1038840010B540F6FF70FFF737FE042813D10A4C39
:10389400236903432361236900F57E6043F04003F9
:1038A40023611B30FFF728FE01281FBF226941F660
:1038B400FB731340236110BD0020024030B5054660
:1038C40081B040F6FF70FFF717FE042815D10C4CA9
:1038D40000F57E6023691B3043F0020323616561B8
:1038E400236943F040032361FFF706FE01281FBF4D
:1038F400226941F6FD731340236101B030BDC04617
:1039040000200240F0B5CD780E8815F0100F18BFD6
:103914008B7805F00F0718BF1F4316F0FF0F83B015
:103924001ED004680021012212FA01F303EA060CF6
:103934009C4511D18A000F23934017FA02F224EA1E
:1039440003041443282D019308BFC0F814C003D006
:10395400482D08BFC0F810C001310829E3D1046024
:10396400FF2E20D944680021012201F1080312FA34
:1039740003F303EA060C9C4511D18A000F239340FC
:1039840017FA02F224EA03041443282D019308BF12
:10399400C0F814C003D0482D08BFC0F810C00131CE
:1039A4000829E1D1446003B0F0BDC0464FF0FF33B5
:1039B4000380022383700423C37070478368194211
:1039C4000CBF002001207047806880B27047C04659
:1039D400C36819420CBF002001207047C06880B240
:1039E4007047C04601617047416170470AB1016187
:1039F40000E041617047C046C160704741F48033C4
:103A0400836181618361836983697047DFF818C0CA
:103A14004FF68073DCF8002041EA001102EA030348
:103A24001943CCF80010704700000140014B1860A6
:103A34007047C0461C00204230B500F44013040413
:103A44000D461449240CB3F5401FD1F804C006D127
:103A54004B682CF0706223F070634B6010E010F43C
:103A6400801F05D000F47022120C0323934003E05E
:103A7400430D1B0114FA03F32CEA030343F07062B1
:103A840025B1430D1B0114FA03F31A43014B5A6089
:103A940030BDC0460000014010B501F00304A4008D
:103AA4000F23A340A040DFF820C0890802315CF84E
:103AB400212022EA03024CF821205CF8213018432B
:103AC4004CF8210010BDC0460000014000B50120A3
:103AD400012181B000F0F6FB0120002100F0F2FB8F
:103AE40001B000BD00B5274B83B0984201902BD0A4
:103AF4000CD8A3F5006398421AD003F5806398426A
:103B04001CD0A3F5006398423AD10BE01E4B9842B7
:103B140026D003F58063984228D0A3F50063984229
:103B24002ED117E00420012100F0CCFB042024E076
:103B34000820012100F0C6FB08201EE0102001210E
:103B440000F0C0FB102018E02020012100F0BAFB97
:103B5400202012E04020012100F0B4FB40200CE0C2
:103B64008020012100F0AEFB802006E04FF480703D
:103B7400012100F0A7FB4FF48070002100F0A2FBAC
:103B840003B000BD00140140001C01400B4B4FF07A
:103B9400FF316FF07042C3F880101846C3F88420D8
:103BA400C3F88011C3F884210021002202F1C0036C
:103BB40001320F2A40F82310F8D1704700E100E0E9
:103BC400094A4FF020630949536000239360D16090
:103BD400136153619361D36113625362013B936236
:103BE400D36213637047C04600ED00E00000FA059D
:103BF40040F0BE60024B40F42020D8607047C046BD
:103C040000ED00E030B5C37805785BB31A4B41781A
:103C1400DA681A4C6FEA020202F4E062120AC2F194
:103C2400040399400F23D340827805F00300134026
:103C34000B43C0001B01FF22824083404FEA950CD6
:103C44000CF1C00C54F82C10134021EA02010B4370
:103C540044F82C3005F01F0201239340690944F80D
:103C6400213008E005F01F02012393406909034A4B
:103C7400203142F8213030BD00ED00E000E100E0E9
:103C84000023037043708370C3707047034B044870
:103C94005B6803EA0000000B7047C04600ED00E0DB
:103CA40000F03F0000F01F0301229A404009054B39
:103CB400403053F820001040904214BF00200120EF
:103CC4007047C04600E100E0014B18607047C046F1
:103CD40000EF00E04109012300F01F008340024A85
:103CE400603142F82130704700E100E0024B58682F
:103CF4008005800D7047C04600ED00E000F01F0312
:103D040001229A404009054B803053F820001040AE
:103D1400904214BF002001207047C04600E100E03B
:103D2400014B18687047C04600ED00E021F0604187
:103D340021F07F01014B01439960704700ED00E0E1
:103D4400014A024BDA6070470400FA0500ED00E016
:103D5400014A024BDA6070470100FA0500ED00E009
:103D640021B1054A136940EA030303E0024A1369D7
:103D740023EA00031361704700ED00E000F01F0028
:103D8400012313FA00F021B1054A536A40EA030300
:103D940003E0034A536A23EA000353627047C046B0
:103DA40000ED00E010B5144CE3686FEA030303F47C
:103DB400E0631B0AC3F1040C01FA0CF14FF0FF0C91
:103DC4002CFA03F31A400A4300F0C001400900F042
:103DD40018000CFA00FC120182408909063154F8DB
:103DE400213023EA0C0344F8213054F821301A43DB
:103DF40044F8212010BDC04600ED00E0800A00F028
:103E04000F0001238340044A506A03EA00009842E9
:103E140014BF00200120704700ED00E000F01F00F7
:103E240001238340024A51680B4353607047C046E4
:103E340000ED00E000F01F00013801238340024A36
:103E440051680B435360704700ED00E0800B00F0B5
:103E54000F0001238340044A506A03EA0000984299
:103E640014BF00200120704700ED00E0830C13F024
:103E7400030302D10D4BD86A17E0012B13D103F1D0
:103E8400604303F56C43FE33020D013302F0030279
:103E9400996AD30031FA03F0022A14BF00F00F002C
:103EA40000F0FF0001E0014B186B704700ED00E0EB
:103EB40010F4800F0BBF024B014B586B986B70478B
:103EC40000ED00E000B581B000F0E6FA01B000BDFD
:103ED40000B5000181B000F0DCFA01B000BDC046BD
:103EE40000B581B000F0D3FA01B000BD00B581B0D7
:103EF40000F0CBFA01B000BD00B581B000F0C3FA08
:103F040001B000BD00B581B000F0BBFA01B000BD46
:103F1400014B18607047C04620000E42014B1860E8
:103F24007047C04610000E42034A136823F0E003B2
:103F3400184310607047C04600700040014B186081
:103F44007047C046A0000E42034B5B6818420CBF8A
:103F5400002001207047C04600700040024A1368E8
:103F640043EA800313607047007000400B4A00B5B9
:103F7400136881B043F004031360136843F0020331
:103F8400136002F1204202F5FA421032136843F042
:103F94000403136000F050FA01B000BD007000404B
:103FA4000C4A00B5136881B023F003031843106072
:103FB40002F1204202F5FA4210321368012943F05B
:103FC4000403136002D100F037FA01E000F036FA7E
:103FD40001B000BD0070004010B54FF08054204681
:103FE400012100F07DF92046002100F079F910BD8F
:103FF4000D4A136843F00103136051680B4B01EA47
:1040040003035360136823F0847323F48033136031
:10401400136823F480231360536823F4FE0353606E
:10402400002393607047C046001002400000FFF870
:104034000B4AB0F5803F136823F480331360136890
:1040440023F48023136003D0B0F5802F07D102E05E
:104054001368034302E0136843F4A023136070471A
:104064000010024082B00023094901930A68019BB1
:10407400013312F4003F019303D1019BB3F5A06F08
:10408400F4D1034B1868400C00F0010002B07047F3
:1040940000100240034A136823F0F80343EAC00304
:1040A4001360704700100240014B18607047C0460F
:1040B40000004242034A536823F47C131843084324
:1040C4005060704700100240014B18607047C046B2
:1040D40060004242034A536823F0030318435060CC
:1040E4007047C04600100240024B586800F00C00B4
:1040F4007047C04600100240034A536823F0F0039F
:10410400184350607047C04600100240034A536889
:1041140023F4E063184350607047C0460010024027
:10412400034A536823F4605343EAC003536070475F
:104134000010024021B1054A137840EA030303E06A
:10414400024A137823EA00031370704709100240EF
:10415400014B18607047C046D8004242034A536876
:1041640023F44043184350607047C0460010024097
:10417400064A002301281370137008BF107003D07F
:10418400042801D1052313707047C0462010024053
:10419400014B18607047C04680044242024A136AC9
:1041A400184310627047C04600100240014B18606B
:1041B4007047C0463C044242294984464B6803F098
:1041C4000C03042B21D0082B1FD14B6803F470136C
:1041D4009B0C9A1C4B6813F4803F08BFC2EB42133C
:1041E40006D04B6813F4003F4FEA421306D09B1AE3
:1041F400C3EB831302EBC3031B0207E09B1AC3EB5D
:10420400831302EBC3035B0200E0164B1448CCF8A3
:1042140000304368144A03F0F0031B09D35CDCF854
:104224000010D940CCF80410436803F4E0631B0A7F
:10423400D35C31FA03F3CCF80830436803F46053D9
:10424400DB0AD35C094AD940CCF80C10436803F468
:1042540040439B0BD35CB1FBF3F1CCF810107047D7
:104264000010024000127A000045000810450008C2
:1042740021B1054A536940EA030303E0024A536942
:1042840023EA0003536170470010024021B1054A3C
:10429400936940EA030303E0024A936923EA0003B3
:1042A400936170470010024021B1054AD36940EA86
:1042B400030303E0024AD36923EA0003D36170478E
:1042C4000010024021B1054AD36840EA030303E029
:1042D400024AD36823EA0003D36070470010024007
:1042E40021B1054A136940EA030303E0024A136952
:1042F40023EA00031361704700100240014B186069
:104304007047C04640044242014B18607047C046A3
:104314004C004242014B18707047C04607100240DF
:104324004309012B08D103F1804303F5023303F55C
:10433400FF6307331B680CE0022B08D103F18043B1
:1043440003F5023303F5FF6306331B6A01E0044BF4
:104354005B6A00F01F0033FA00F000F001007047C0
:1043640000100240024A536A43F08073536270475C
:1043740000100240034B9B6818420CBF0020012030
:104384007047C04600100240014B18707047C04689
:104394000A100240042803D1044A1368034303E0CB
:1043A400024A136823F004031360704710E000E02E
:1043B400014B58607047C04610E000E0012803D16B
:1043C400084A1368034306E010F1020F05D1054AB9
:1043D400136823F00103136002E0024B00229A6089
:1043E4007047C04610E000E020B1054A136843F06E
:1043F400020303E0024A136823F0020313607047C8
:1044040010E000E0014B98687047C04610E000E0FF
:10441400C308022B024606D103F1604303F560434F
:104424000E33186801E0034BD868D04000F0010057
:104434007047C04610E000E030BF704720BF7047AF
:1044440040BF7047BFF36F8F7047BFF34F8F704704
:10445400BFF35F8F704701DF7047EFF3148070473D
:1044640080F31488BFF36F8F7047EFF309807047B0
:1044740080F309887047EFF30880704780F3088859
:10448400704772B6704762B6704771B6704761B6CE
:10449400704780F311887047EFF31280704740BA79
:1044A400704700BA704700002DF0070168468D463A
:1044B40001B500220C49DFF834C00D4802E08358EE
:1044C4008B50043201EB02036345F8D3094B0A49CC
:1044D400002201E043F8042B8B42FBD3FEF7BEFE1F
:1044E400BDE8014085467047000000200000002020
:1044F4001445000800000020040000200000000013
:104504000102030401020304060708090204060861
:00000001FF
