:020000040800F2
:1030000000000120E94900083D340008413400086F
:1030100045340008493400084D3400080000000021
:10302000000000000000000000000000553400080F
:1030300051340008000000005934000855350008DC
:103040005D34000861340008653400086934000804
:103050006D340008713400087534000879340008B4
:103060007D34000881340008853400080000000029
:103070000000000000000000000000000000000050
:103080000000000000000000A5340008A93400087A
:10309000AD340008B1340008B5340008B934000874
:1030A000BD340008C1340008C5340008C934000824
:1030B000CD340008D1340008D5340008D9340008D4
:1030C000DD340008E1340008E5340008E934000884
:1030D000ED340008F1340008F534000849350008E3
:1030E000F9340008FD3400080135000805350008F2
:1030F000093500080D3500081135000815350008A0
:10310000193500081D35000821350008253500084F
:10311000293500082D3500083135000835350008FF
:10312000393500083D3500084135000845350008AF
:043130005FF8000044
:10313400DFF828C00A489CF80020037807499A421F
:10314400F9D00B78074AD05C0B780133DBB20B70F3
:103154000B7803F01F030B707047C046010000207A
:103164000000002002000020034A136813B1136812
:10317400013B13607047C0462400002010B504468C
:10318400012001F0DBF9074B1C601A461368002B81
:10319400FCD16FF0010001F0D1F9002001F0CEF96B
:1031A40010BDC0462400002000B542F2283081B092
:1031B40001F0BEF9012001F0D7F901B000BDC0460D
:1031C40000B581B281B0054801F09CFA0348402162
:1031D40001F0FEFA0028F9D001B000BD004800401B
:1031E40030B5054681B0002401E0FFF7E9FF285D12
:1031F40001340028F9D101B030BDC04600B50C48F7
:1032040081B040F2255101F0EFFA78B1084801F09D
:103214007DFA0849084A0B78C0B2D0540B780133C0
:10322400DBB20B700B7803F01F030B7001B000BD11
:1032340000480040000000200200002030B585B0A6
:103244000446684601F0B8F90094134C4FF00003AB
:10325400ADF80430ADF80630ADF80830ADF80C30F8
:1032640020464FF00C03ADF80A3001F039FB0A2078
:10327400FFF784FF2046694601F0E4FA204640F255
:103284002551012201F0D2F9204601216D4601F0B9
:10329400BFF905B030BDC0460048004070B582B0EB
:1032A40001AC2046154E00F041FC4FF40063ADF82C
:1032B40004303046042321468DF8073000F0E2FB49
:1032C4004FF48063ADF804300325182330462146BB
:1032D4008DF807308DF8065000F0D4FB4FF40053FE
:1032E400ADF804300648102321468DF806508DF8B9
:1032F400073000F0C7FB02B070BDC046000C0140AF
:103304000010014000B54FF4405183B04FF000600D
:1033140000F0CCFD4FF4A06000F02AFD27238DF8C7
:10332400043000238DF8053001A801238DF8063000
:103334008DF8073000F026FD03B000BD00B581B064
:1033440000F016FF4FF4803000F032FF00F04AFF27
:10335400012824D1102000F019F9022000F0FEF811
:10336400002000F089FF002000F09AFF4FF48060F5
:1033740000F08CFF4FF480304FF4E01100F05AFF5E
:10338400012000F061FF392001F08AF80028FAD00A
:10339400022000F05FFF00F067FF0828FBD1102037
:1033A400012101F033F84FF48020012101F03CF8B1
:1033B400012000F06DFE01B000BDC04670B5FFF7FE
:1033C400BDFFFFF79FFFFFF769FFFFF7EDFE4FF427
:1033D4006140FFF733FF11484FF4005100F0C4FB84
:1033E4000F4C104E104D227833789A42FBD023783C
:1033F400EB5C1A4623780133DBB223702378772AF7
:1034040003F01F032370094B08BF09481A7002D048
:10341400672AE8D10748FFF7E3FEE4E7001001401C
:1034240001000020000000200200002028000020ED
:10343400504A00085B4A00087047C046FEE7C04691
:10344400FEE7C046FEE7C046FEE7C0467047C046FA
:103454007047C0467047C0467047C0467047C04674
:103464007047C0467047C0467047C0467047C04664
:103474007047C0467047C0467047C0467047C04654
:103484007047C0467047C0467047C0467047C04644
:103494007047C0467047C0467047C0467047C04634
:1034A4007047C0467047C0467047C0467047C04624
:1034B4007047C0467047C0467047C0467047C04614
:1034C4007047C0467047C0467047C0467047C04604
:1034D4007047C0467047C0467047C0467047C046F4
:1034E4007047C0467047C0467047C0467047C046E4
:1034F4007047C0467047C0467047C0467047C046D4
:103504007047C0467047C0467047C0467047C046C3
:103514007047C0467047C0467047C0467047C046B3
:103524007047C0467047C0467047C0467047C046A3
:103534007047C0467047C0467047C0467047C04693
:103544007047C04600B581B0FFF758FE01B000BD1A
:1035540000B581B0FFF708FE01B000BD044A13684E
:1035640003F0380313601368184310607047C046B3
:1035740000200240044A136823F008031360136810
:10358400184310607047C04600200240044A136884
:1035940023F0100313601368184310607047C0468B
:1035A40000200240034B044A5A6002F188325A60F8
:1035B4007047C0460020024023016745024A136950
:1035C40043F080031361704700200240014BD86927
:1035D4008008704700200240014B186A7047C046BB
:1035E40000200240024BD869400800F001007047F7
:1035F40000200240024B1868400900F001007047A7
:103604000020024021B1054A136940EA030303E0A4
:10361400024A136923EA0003136170470020024041
:10362400012804D1054BDB6903F0010005E0034BDD
:10363400DB6818420CBF00200120704700200240C4
:10364400014BD8607047C04600200240094AD36845
:1036540013F0010F01D001200BE0D36813F0040F25
:1036640001D0022005E0D36813F0100F14BF03202B
:10367400042070470020024010B5234A82B0D3686A
:10368400014613F0010F01D001202AE0D36813F0A2
:10369400040F01D0022024E0D36813F0100F14BFEC
:1036A400032004201DE00194CDF804C002E0019B36
:1036B400013B0193019B002BF9D1D36813F0010F57
:1036C40001D001200BE0D36813F0040F01D00220D5
:1036D40005E0D36813F0100F14BF03200420013950
:1036E40003E0094A00244FF0FF0C0B1E18BF01230E
:1036F400012814BF002303F00103002BD3D10029B8
:1037040008BF052002B010BD00200240F0B5134BE5
:10371400134C81B0A36003F188330546A3600F20E6
:103724000E461746FFF7A8FF042815D123690D4A52
:1037340043F01003236145F0F80346EA030347EA24
:10374400030353800F20FFF797FF01281FBF22694F
:1037540041F6EF731340236101B0F0BD23016745C7
:103764000020024000F8FF1F30B5054681B040F646
:10377400FF70FFF781FF04283CD11F4C1F4B00F55D
:103784007E60A36003F18833A36023691B3043F098
:1037940020032361236943F040032361FFF76CFF97
:1037A400042820D1236941F6DF7203EA0202226170
:1037B400236943F0100323611DB1114B4FF0000244
:1037C40002E00F4B4FF0A5021A8040F6FF70FFF79E
:1037D40053FF01280ED0084941F6EF730A6902EA43
:1037E40003030B6106E001281FBF226941F6DF7362
:1037F4001340236101B030BD00200240230167451E
:1038040000F8FF1F10B504460F20FFF735FF04280A
:1038140050D1294A294B6FEA0404936003F1883399
:1038240093601369E1B243F01003FF29136104D0DC
:10383400234B0F201981FFF71FFF04F47F431A0A5B
:10384400B2F1FF0318BF0123042814BF002303F0BF
:10385400010323B11A4B0F205A81FFF70DFF04F423
:103864007F031A0CB2F1FF0318BF0123042814BF0D
:10387400002303F0010323B1114B0F209A81FFF7BA
:10388400FBFE220EB2F1FF0318BF0123042814BF6C
:10389400002303F0010323B1094B0F20DA81FFF762
:1038A400EBFE01281FBF044941F6EF730A69134078
:1038B40018BF0B6110BDC0460020024023016745BC
:1038C40000F8FF1F70B506460F200D46FFF7D4FE23
:1038D400042814D10A4C0B4B0F20A36003F1883346
:1038E400A360236943F0100323613580FFF7C4FE0E
:1038F40001281FBF226941F6EF731340236170BD95
:10390400002002402301674570B506460F200D468E
:10391400FFF7B2FE04280FD1084C0F20236943F0AF
:10392400010323613580FFF7A7FE01281FBF226929
:1039340041F6FE731340236170BDC046002002406F
:1039440070B506460F200D46FFF796FE042817D1E2
:103954000C4C0F20236943F001032361ABB2338085
:10396400FFF78AFE042804D12B0C73800F20FFF785
:1039740083FE01281FBF226941F6FE7313402361B1
:1039840070BDC0460020024010B540F6FF70FFF73E
:1039940073FE04282CD1174C174B00F57E60A360EE
:1039A40003F18833A36023691B3043F020032361B0
:1039B400236943F040032361FFF75EFE042810D11E
:1039C400226941F6DF7302EA0303236123694FF09E
:1039D400A50243F010032361084B0F201A80FFF760
:1039E4004BFE01281FBF226941F6EF731340236188
:1039F40010BDC046002002402301674500F8FF1FA8
:103A040010B540F6FF70FFF737FE042813D10A4CB7
:103A1400236903432361236900F57E6043F0400377
:103A240023611B30FFF728FE01281FBF226941F6DE
:103A3400FB731340236110BD0020024030B50546DE
:103A440081B040F6FF70FFF717FE042815D10C4C27
:103A540000F57E6023691B3043F002032361656136
:103A6400236943F040032361FFF706FE01281FBFCB
:103A7400226941F6FD731340236101B030BDC04695
:103A840000200240F0B5CD780E8815F0100F18BF55
:103A94008B7805F00F0718BF1F4316F0FF0F83B094
:103AA4001ED004680021012212FA01F303EA060C75
:103AB4009C4511D18A000F23934017FA02F224EA9D
:103AC40003041443282D019308BFC0F814C003D085
:103AD400482D08BFC0F810C001310829E3D10460A3
:103AE400FF2E20D944680021012201F1080312FAB3
:103AF40003F303EA060C9C4511D18A000F2393407B
:103B040017FA02F224EA03041443282D019308BF90
:103B1400C0F814C003D0482D08BFC0F810C001314C
:103B24000829E1D1446003B0F0BDC0464FF0FF3333
:103B34000380022383700423C3707047836819428F
:103B44000CBF002001207047806880B27047C046D7
:103B5400C36819420CBF002001207047C06880B2BE
:103B64007047C04601617047416170470AB1016105
:103B740000E041617047C046C160704741F4803342
:103B8400836181618361836983697047DFF818C049
:103B94004FF68073DCF8002041EA001102EA0303C7
:103BA4001943CCF80010704700000140014B186025
:103BB4007047C0461C00204230B500F44013040492
:103BC4000D461449240CB3F5401FD1F804C006D1A6
:103BD4004B682CF0706223F070634B6010E010F4BB
:103BE400801F05D000F47022120C0323934003E0DD
:103BF400430D1B0114FA03F32CEA030343F0706230
:103C040025B1430D1B0114FA03F31A43014B5A6007
:103C140030BDC0460000014010B501F00304A4000B
:103C24000F23A340A040DFF820C0890802315CF8CC
:103C3400212022EA03024CF821205CF821301843A9
:103C44004CF8210010BDC0460000014000B5012021
:103C5400012181B000F0F6FB0120002100F0F2FB0D
:103C640001B000BD00B5274B83B0984201902BD022
:103C74000CD8A3F5006398421AD003F580639842E8
:103C84001CD0A3F5006398423AD10BE01E4B984236
:103C940026D003F58063984228D0A3F500639842A8
:103CA4002ED117E00420012100F0CCFB042024E0F5
:103CB4000820012100F0C6FB08201EE0102001218D
:103CC40000F0C0FB102018E02020012100F0BAFB16
:103CD400202012E04020012100F0B4FB40200CE041
:103CE4008020012100F0AEFB802006E04FF48070BC
:103CF400012100F0A7FB4FF48070002100F0A2FB2B
:103D040003B000BD00140140001C01400B4B4FF0F8
:103D1400FF316FF07042C3F880101846C3F8842056
:103D2400C3F88011C3F884210021002202F1C003EA
:103D340001320F2A40F82310F8D1704700E100E067
:103D4400094A4FF020630949536000239360D1600E
:103D5400136153619361D36113625362013B9362B4
:103D6400D36213637047C04600ED00E00000FA051B
:103D740040F0BE60024B40F42020D8607047C0463B
:103D840000ED00E030B5C37805785BB31A4B417899
:103D9400DA681A4C6FEA020202F4E062120AC2F113
:103DA400040399400F23D340827805F003001340A5
:103DB4000B43C0001B01FF22824083404FEA950C55
:103DC4000CF1C00C54F82C10134021EA02010B43EF
:103DD40044F82C3005F01F0201239340690944F88C
:103DE400213008E005F01F02012393406909034ACA
:103DF400203142F8213030BD00ED00E000E100E068
:103E04000023037043708370C3707047034B0448EE
:103E14005B6803EA0000000B7047C04600ED00E059
:103E240000F03F0000F01F0301229A404009054BB7
:103E3400403053F820001040904214BF002001206D
:103E44007047C04600E100E0014B18607047C0466F
:103E540000EF00E04109012300F01F008340024A03
:103E6400603142F82130704700E100E0024B5868AD
:103E74008005800D7047C04600ED00E000F01F0390
:103E840001229A404009054B803053F8200010402D
:103E9400904214BF002001207047C04600E100E0BA
:103EA400014B18687047C04600ED00E021F0604106
:103EB40021F07F01014B01439960704700ED00E060
:103EC400014A024BDA6070470400FA0500ED00E095
:103ED400014A024BDA6070470100FA0500ED00E088
:103EE40021B1054A136940EA030303E0024A136956
:103EF40023EA00031361704700ED00E000F01F00A7
:103F0400012313FA00F021B1054A536A40EA03037E
:103F140003E0034A536A23EA000353627047C0462E
:103F240000ED00E010B5144CE3686FEA030303F4FA
:103F3400E0631B0AC3F1040C01FA0CF14FF0FF0C0F
:103F44002CFA03F31A400A4300F0C001400900F0C0
:103F540018000CFA00FC120182408909063154F859
:103F6400213023EA0C0344F8213054F821301A4359
:103F740044F8212010BDC04600ED00E0800A00F0A6
:103F84000F0001238340044A506A03EA0000984268
:103F940014BF00200120704700ED00E000F01F0076
:103FA40001238340024A51680B4353607047C04663
:103FB40000ED00E000F01F00013801238340024AB5
:103FC40051680B435360704700ED00E0800B00F034
:103FD4000F0001238340044A506A03EA0000984218
:103FE40014BF00200120704700ED00E0830C13F0A3
:103FF400030302D10D4BD86A17E0012B13D103F14F
:10400400604303F56C43FE33020D013302F00302F7
:10401400996AD30031FA03F0022A14BF00F00F00AA
:1040240000F0FF0001E0014B186B704700ED00E069
:1040340010F4800F0BBF024B014B586B986B704709
:1040440000ED00E000B581B000F0C4FC01B000BD9B
:1040540000B5000181B000F0BAFC01B000BDC0465B
:1040640000B581B000F0B1FC01B000BD00B581B075
:1040740000F0A9FC01B000BD00B581B000F0A1FCC6
:1040840001B000BD00B581B000F099FC01B000BDE5
:10409400014B18607047C04620000E42014B186067
:1040A4007047C04610000E42034A136823F0E00331
:1040B400184310607047C04600700040014B186000
:1040C4007047C046A0000E42034B5B6818420CBF09
:1040D400002001207047C04600700040024A136867
:1040E40043EA800313607047007000400B4A00B538
:1040F400136881B043F004031360136843F00203B0
:10410400136002F1204202F5FA421032136843F0C0
:104114000403136000F02EFC01B000BD00700040E9
:104124000C4A00B5136881B023F0030318431060F0
:1041340002F1204202F5FA4210321368012943F0D9
:104144000403136002D100F015FC01E000F014FC3C
:1041540001B000BD0070004010B54FF080542046FF
:10416400012100F07DF92046002100F079F910BD0D
:104174000D4A136843F00103136051680B4B01EAC5
:1041840003035360136823F0847323F480331360B0
:10419400136823F480231360536823F4FE035360ED
:1041A400002393607047C046001002400000FFF8EF
:1041B4000B4AB0F5803F136823F48033136013680F
:1041C40023F48023136003D0B0F5802F07D102E0DD
:1041D4001368034302E0136843F4A0231360704799
:1041E4000010024082B00023094901930A68019B30
:1041F400013312F4003F019303D1019BB3F5A06F87
:10420400F4D1034B1868400C00F0010002B0704771
:1042140000100240034A136823F0F80343EAC00382
:104224001360704700100240014B18607047C0468D
:1042340000004242034A536823F47C1318430843A2
:104244005060704700100240014B18607047C04630
:1042540060004242034A536823F00303184350604A
:104264007047C04600100240024B586800F00C0032
:104274007047C04600100240034A536823F0F0031D
:10428400184350607047C04600100240034A536808
:1042940023F4E063184350607047C04600100240A6
:1042A400034A536823F4605343EAC00353607047DE
:1042B4000010024021B1054A137840EA030303E0E9
:1042C400024A137823EA000313707047091002406E
:1042D400014B18607047C046D8004242034A5368F5
:1042E40023F44043184350607047C0460010024016
:1042F400064A002301281370137008BF107003D0FE
:10430400042801D1052313707047C04620100240D1
:10431400014B18607047C04680044242024A136A47
:10432400184310627047C04600100240014B1860E9
:104334007047C0463C044242294984464B6803F016
:104344000C03042B21D0082B1FD14B6803F47013EA
:104354009B0C9A1C4B6813F4803F08BFC2EB4213BA
:1043640006D04B6813F4003F4FEA421306D09B1A61
:10437400C3EB831302EBC3031B0207E09B1AC3EBDB
:10438400831302EBC3035B0200E0164B1448CCF822
:1043940000304368144A03F0F0031B09D35CDCF8D3
:1043A4000010D940CCF80410436803F4E0631B0AFE
:1043B400D35C31FA03F3CCF80830436803F4605358
:1043C400DB0AD35C094AD940CCF80C10436803F4E7
:1043D40040439B0BD35CB1FBF3F1CCF81010704756
:1043E4000010024000127A003C4A00084C4A0008BF
:1043F40021B1054A536940EA030303E0024A5369C1
:1044040023EA0003536170470010024021B1054ABA
:10441400936940EA030303E0024A936923EA000331
:10442400936170470010024021B1054AD36940EA04
:10443400030303E0024AD36923EA0003D36170470C
:104444000010024021B1054AD36840EA030303E0A7
:10445400024AD36823EA0003D36070470010024085
:1044640021B1054A136940EA030303E0024A1369D0
:1044740023EA00031361704700100240014B1860E7
:104484007047C04640044242014B18607047C04622
:104494004C004242014B18707047C046071002405E
:1044A4004309012B08D103F1804303F5023303F5DB
:1044B400FF6307331B680CE0022B08D103F1804330
:1044C40003F5023303F5FF6306331B6A01E0044B73
:1044D4005B6A00F01F0033FA00F000F0010070473F
:1044E40000100240024A536A43F0807353627047DB
:1044F40000100240034B9B6818420CBF00200120AF
:104504007047C04600100240014B18707047C04607
:104514000A100240042803D1044A1368034303E049
:10452400024A136823F004031360704710E000E0AC
:10453400014B58607047C04610E000E0012803D1E9
:10454400084A1368034306E010F1020F05D1054A37
:10455400136823F00103136002E0024B00229A6007
:104564007047C04610E000E020B1054A136843F0EC
:10457400020303E0024A136823F002031360704746
:1045840010E000E0014B98687047C04610E000E07E
:10459400C308022B024606D103F1604303F56043CE
:1045A4000E33186801E0034BD868D04000F00100D6
:1045B4007047C04610E000E04FF4165303604FF01C
:1045C40000038380C38003814FF00C0343814FF0C9
:1045D400000383817047C046B1F800C04B88028A4B
:1045E40043EA0C03B1F804C0C98822F4706243EAB8
:1045F4000C0312040B43120C9BB213430382704747
:104604004FF00003038043808380C3807047C0461B
:1046140021B183899BB243F4005304E0838923F4DA
:1046240000531B041B0C83817047C046CBB24FEA76
:10463400531C01F01F01012382B013FA01F1BCF1F4
:10464400010F019001D10C3005E0BCF1020F01D142
:10465400103000E0143012B103680B4302E0036829
:1046640023EA0103036002B07047C04622B1838A83
:104674009BB241EA030303E0838A9BB223EA01036A
:1046840083827047038A23F00F031B041B0C0382ED
:10469400038A9BB20B4303827047C046838923F489
:1046A40000631B041B0C838183899BB219438181A2
:1046B4007047C04621B183899BB243F0020304E0F2
:1046C400838923F002031B041B0C83817047C046BB
:1046D400038A23F020031B041B0C0382038A9BB26E
:1046E400194301827047C04621B1038A9BB243F447
:1046F400804304E0038A23F480431B041B0C0382DD
:104704007047C046C905C90D818070478088C005BF
:10471400C00D704783899BB243F0010383817047C6
:10472400038BDBB20383038B9BB243EA0123038332
:104734007047C046038B03F47F430383038B9BB210
:104744000B4303837047C04621B1838A9BB243F075
:10475400200304E0838A23F020031B041B0C8382C0
:104764007047C04621B1838A9BB243F0100304E032
:10477400838A23F010031B041B0C83827047C046FA
:1047840021B1838A9BB243F0080304E0838A23F0B7
:1047940008031B041B0C83827047C046838A23F0E2
:1047A40004031B041B0C8382838A9BB219438182FA
:1047B4007047C04621B1838A9BB243F0020304E0F0
:1047C400838A23F002031B041B0C83827047C046B8
:1047D400038819420CBF0020012070476FEA0101D1
:1047E40089B201807047C046CBB24FEA531C01F036
:1047F4001F02012313FA02F2BCF1010F08BF8389DF
:1048040004D0BCF1020F0CBF038A838A9BB202EA74
:10481400030C0B0A01229A4003889BB21A420CBF74
:1048240000200120BCF1000F0CBF002000F00100AB
:104834007047C046090A01238B406FEA03039BB209
:1048440003807047038ACA8823F440531B041B0C5B
:1048540013430382828970B50B890E46898822F43A
:10486400B0520B43718922F00C020B431204120C58
:104874009BB213438381838AB28923F440731B045C
:104884001B0C88B01343054683820190044603A899
:10489400FFF752FD104B11489D420CBF069B059B30
:1048A40003EB8301336801EB81019B00B1FBF3F15E
:1048B400A1FB002364224FEA531C0CFB12121201C9
:1048C4003232A2FB00235B0903F00F0343EA0C130B
:1048D4009BB22B8108B070BD003801401F85EB519D
:1048E40000B5224B83B0984201902BD008D8A3F591
:1048F4000063984216D003F58063984234D119E0DE
:104904001B4B984226D003F5684398422CD10121D1
:104914004FF48040FFF796FD4FF480400021FFF7ED
:1049240091FD21E04FF400300121FFF799FD4FF490
:10493400003016E04FF480200121FFF791FD4FF481
:1049440080200EE04FF400200121FFF789FD4FF491
:10495400002006E04FF480100121FFF781FD4FF4A1
:1049640080100021FFF77CFD03B000BD004C004027
:104974000050004030BF704720BF704740BF7047B1
:10498400BFF36F8F7047BFF34F8F7047BFF35F8FD5
:10499400704701DF7047EFF31480704780F3148889
:1049A400BFF36F8F7047EFF30980704780F3098876
:1049B4007047EFF30880704780F30888704772B639
:1049C400704762B6704771B6704761B6704780F33E
:1049D40011887047EFF31280704740BA704700BAED
:1049E400704700002DF0070168468D4601B500228E
:1049F4000C49DFF834C00D4802E083588B50043270
:104A040001EB02036345F8D3094B0A49002201E094
:104A140043F8042B8B42FBD3FEF7D0FCBDE80140E6
:104A2400854670470000002000000020684A000806
:104A3400000000202C0000200000000001020304FC
:104A440001020304060708090204060857656C639B
:104A54006F6D65210D0A00476F6F64627965210DE2
:044A64000A00000044
:00000001FF
