:020000040800F2
:10300000000001206D6B0008994300089D430008F3
:10301000A1430008A5430008A943000800000000E0
:10302000000000000000000000000000B1430008A4
:10303000AD43000800000000B5430008B944000893
:10304000B9430008BD430008C1430008C543000858
:10305000C9430008CD430008D1430008D543000808
:10306000D9430008DD430008E143000800000000E8
:103070000000000000000000000000000000000050
:1030800000000000000000000144000805440008A2
:10309000094400080D4400081144000815440008C4
:1030A000194400081D440008214400082544000874
:1030B000AD440008294400082D44000831440008AC
:1030C00035440008394400083D44000841440008E4
:1030D00045440008A1440008494400084D44000844
:1030E0005144000855440008594400085D44000854
:1030F0006144000865440008694400086D44000804
:103100007144000875440008794400087D440008B3
:103110008144000885440008894400088D44000863
:103120009144000895440008994400089D44000813
:043130005FF8000044
:10313400074B00221A705A709A70DA701A715A7119
:103144004FF000019A60013AD980DA607047C046B6
:1031540064050020154B11221A704FF000021A81E9
:1031640003221A734FF000029A8202221A764FF059
:1031740000021A8407224FF4007140F2FF3083F8F2
:1031840024204FF0000259809980D9805881D98138
:1031940019825982D88259839983D9835884D984CE
:1031A400198559859A85D8857047C046340500200D
:1031B4000B4B4FF0000210B5DA8000244FF0FF32C1
:1031C400DA601C705C709C70DC701C715C719C60BB
:1031D400FFF7C0FF034B01221C70034B1A7010BD94
:1031E40064050020210400200A00002068B103784F
:1031F4005BB1002204E0303BDBB2092B05D801327D
:10320400835C002BF7D1012000E000207047C0460A
:1032140003468B42084603D39A4234BF10461846ED
:103224007047C04630B54FF0000C05460C461046BA
:1032340000210EE005EB0C035A889B880CF10C0C62
:10324400D21A002AB8BF5242824201DD002003E0B4
:103254000131A142EEDB012030BDC046024A002309
:103264001370024A137070472905002028050020B6
:10327400034B1878034B1B78C01A18BF0120704702
:103284002905002028050020DFF820C008489CF804
:103294000020037805499A42F9D00B78054AD05C9E
:1032A4000B780133DBB20B707047C0462905002050
:1032B40028050020280400207047C046034A1368EC
:1032C40013B11368013B13607047C0462C050020FE
:1032D400014B18607047C04630050020034B186846
:1032E400D0F1010038BF00207047C04630050020EF
:1032F40010B50446012002F01FFB074B1C601A4660
:103304001368002BFCD16FF0010002F015FB0020C4
:1033140002F012FB10BDC0462C05002000B542F29D
:10332400283081B002F002FB012002F01BFB01B047
:1033340000BDC04630B50A4881B040F2255103F0C3
:1033440015FB50B1074D06482C7803F0A1FA064B43
:10335400C0B218550134E4B22C7001B030BDC0467F
:1033640000380140280500202804002000B5034847
:1033740081B003F08DFAC0B201B000BD0048004036
:1033840000B54FF0804081B0022103F05FF9C8B16D
:1033940002214FF0804003F065F94FF0804003F0C4
:1033A40031F9094B18601968084B4FF080401B88AD
:1033B400C91889B203F0E0F8054A136813B1136819
:1033C400013B136001B000BD1C0400200800002074
:1033D4003005002070B588B00DF1160528460DF1B2
:1033E40006064FF0804402F0DDFD304602F0E6FDB3
:1033F400204603F03DF94FF0FF33ADF81A30204674
:103404004FF000032946ADF81630ADF81C30ADF886
:10341400183002F0CFFA0122204640F2D22102F005
:10342400BBFE4FF00003ADF80630ADF80830ADF840
:103434000E300B4B20461B883146ADF80C3002F0A1
:10344400E3FA2046002102F03BFF2046022101223C
:1034540002F0F2FD2046012102F0D2FD08B070BD59
:103464000800002000B581B281B0054803F00CFAD1
:103474000348402103F06EFA0028F9D001B000BDE2
:1034840000480040030910B5044603F13000392810
:1034940088BF0730FFF7E6FF04F00F0303F13000A5
:1034A400392888BF0730FFF7DDFF10BD10B504468B
:1034B400E4B2000AFFF7E6FF2046FFF7E3FF10BD82
:1034C40030B5054681B0002401E0FFF7CBFF285D4D
:1034D40001340028F9D101B030BDC04600B581B037
:1034E400FFF7EEFF0248FFF7EBFF01B000BDC04657
:1034F4000A74000800B5034881B0FFF7E1FF01B08A
:1035040000BDC0460173000800B5054B0122DA7006
:10351400002281B01A700348FFF7D2FF01B000BD4A
:10352400640500200773000800B5034881B0FFF765
:10353400C7FF01B000BDC0461173000800B50348C1
:1035440081B0FFF7BDFF01B000BDC0461A7300088B
:1035540000B51B4881B0FFF7B3FF1A48FFF7B0FF6F
:103564001948FFF7ADFF1948FFF7AAFF1848FFF7FE
:10357400A7FF1848FFF7A4FF1748FFF7A1FF174854
:10358400FFF79EFF1648FFF79BFF1648FFF798FFCB
:103594001548FFF795FF1548FFF792FF1448FFF70A
:1035A4008FFF1448FFF78CFF1348FFF789FF134878
:1035B400FFF786FF1248FFF783FF01B000BDC04646
:1035C400217300082D730008347300083B7300084E
:1035D400697300089C730008D37300080D74000815
:1035E400337400085C74000898740008D4740008EC
:1035F4000B75000839750008707500080A73000817
:103604000878000800B581B0FFF7A2FF01B000BD43
:1036140000B50C4881B0FFF753FF0B48FFF750FF8C
:103624000A48FFF74DFF0A48FFF74AFF0948FFF72A
:1036340047FF0948FFF744FF0848FFF741FF01B07F
:1036440000BDC04680750008AD750008DB75000834
:103654001176000844760008707600088275000828
:1036640010B504461548FFF72BFF2046FFF70AFF65
:103674001348FFF725FF0D2C08BF124818D00A2C59
:1036840008BF114814D0092C08BF104810D0A4F169
:103694002003DBB25E2B88BF0D4809D82720FFF733
:1036A400E1FE2046FFF7DEFE2720FFF7DBFE01E008
:1036B400FFF706FF0748FFF703FF10BDA6760008D3
:1036C400B1760008B3760008B8760008BD76000825
:1036D400C37600080A74000830B583B020B1002115
:1036E4000DF1020C144C0FE03020FFF7BBFE21E07B
:1036F400A0FB0423DA0802EB8203A0EB430330337C
:103704000CF8013090B201310429CCBF002301230D
:1037140000280CBF002303F00103002BE8D14B1E4B
:103724000CEB03046D4602E06078FFF79BFE013C5E
:10373400AC42F9D103B030BDCDCCCCCCF0B506460B
:1037440081B00F480F460025FFF7BAFE002412E0AF
:103754000C48FFF7B5FE305DFFF7BEFF0A48FFF7E0
:10376400AFFE06EB04039888FFF7B6FF0748FFF7A0
:10377400A7FE01350C34BD42EADB01B0F0BDC04602
:10378400CA76000853780008DC7600080A7400083A
:10379400002810B5044604DA2D20FFF763FEC4F1B7
:1037A4000004A0B2FFF798FF10BDC04630B5044630
:1037B40081B009480D46FFF783FE2046FFF780FEDF
:1037C4000648FFF77DFE2846FFF7E2FF0448FFF7AF
:1037D40077FE01B030BDC046E8760008EA760008FE
:1037E4000A740008F0B5044681B012480E46174624
:1037F400FFF766FE2046FFF7CBFF0F48FFF760FE9A
:103804000025002412E00D48FFF75AFE305DFFF753
:1038140063FF0B48FFF754FE06EB04039888FFF799
:103824005BFF0848FFF74CFE01350C34BD42EADB70
:1038340001B0F0BDEC760008D87600085378000893
:10384400FA7600080A740008F0B5044681B01648F8
:103854000D4616461F46FFF733FE2046FFF798FF36
:103864001248FFF72DFE2846FFF792FF1048FFF796
:1038740027FE0025002412E00E48FFF721FE305DEC
:10388400FFF72AFF0C48FFF71BFE06EB04035888DA
:10389400FFF722FF0948FFF713FE01350C34BD4240
:1038A400EADB01B0F0BDC0460477000812770008D7
:1038B40018770008537800081E7700080A74000877
:1038C40000B5202181B0044803F044F8003818BF43
:1038D400012001B000BDC0460048004070B5054657
:1038E4001C4C4E1E31E01C4802F0D2FFC0B27F28AF
:1038F40014BF00230123082814BF1A4643F0010211
:1039040022B12368002B20DD013B15E00A2814BFF7
:10391400002301230D2814BF194643F0010131B1DE
:10392400236893B1EA540B4B01201A6011E0236819
:10393400B34203DAE8540133236006E0054B074839
:103944001960FFF7CBFD002003E0FFF7B9FF002863
:10395400C9D170BD24040020004800402B77000822
:1039640000B5012081B000F00FFE012802D11A48F1
:10397400FFF7A6FD022000F007FE012802D1174838
:10398400FFF79EFD042000F0FFFD012802D114483A
:10399400FFF796FD082000F0F7FD012802D1114839
:1039A400FFF78EFD102000F0EFFD012802D10E4834
:1039B400FFF786FD202000F0E7FD012802D10B4827
:1039C400FFF77EFD402000F0DFFD012802D108480A
:1039D400FFF776FD01B000BD3D770008537700087E
:1039E40067770008787700088D7700089E770008CD
:1039F400AF77000810B5202104460D4801F0B2FA53
:103A0400A4B20B48102101F0ABFA0A48214602F097
:103A14003BFF0848402102F09DFF0028F9D0102107
:103A2400034801F09FFA0248202101F099FA10BDE1
:103A3400000C01400038014000B5034881B000216A
:103A440002F0A8FE01B000BD0038014070B584B09A
:103A5400054668460C4602F071FE4FF00003ADF8CF
:103A64000430ADF80630ADF80830ADF80C304FF046
:103A74000C036E460094ADF80A308DB9114802F07B
:103A8400F1FF0A20FFF734FC0E48694602F09CFF60
:103A94000C4840F22551012202F08AFE09480CE04C
:103AA400022D0DD1084802F0DDFF0A20FFF720FCAB
:103AB4000548694602F088FF0348012102F06AFEC6
:103AC40004B070BD003801400048004000B5014614
:103AD40081B00020FFF7BAFF01B000BD70B582B01D
:103AE40001AD1E4C284601F01FFA4FF03003ADF82B
:103AF400043003261023204629468DF807308DF81C
:103B0400066001F0BDF94FF40863ADF804302046B7
:103B1400042329468DF8073001F0B2F94FF4886385
:103B2400ADF804302046182329468DF807308DF867
:103B3400066001F0A5F90420012101F03BFA0121FE
:103B4400074801F037FA2046102101F00BFA20460D
:103B5400202101F005FA02B070BDC046000C0140FE
:103B64000004300070B54FF4405182B04FF0006053
:103B740001F09AFB01AE4FF4A06001F0F7FA0025C2
:103B84002523012430468DF804308DF805508DF836
:103B940006508DF8074001F0F3FA1C2330468DF8E7
:103BA40004308DF805408DF806508DF8074001F07B
:103BB400E7FA02B070BDC04600B581B001F0D6FC92
:103BC4004FF4803001F0F2FC01F00AFD012824D109
:103BD400102000F0D9FE022000F0BEFE002001F00B
:103BE40049FD002001F05AFD4FF4806001F04CFDC6
:103BF4004FF480304FF4E01101F01AFD012001F080
:103C040021FD392001F04AFE0028FAD0022001F0FB
:103C14001FFD01F027FD0828FBD1012144F2080013
:103C240001F0F2FD0448012101F0FCFD012001F046
:103C34002DFC01B000BDC04601000400F0B50646ED
:103C440081B00D4600244FF000070C4B24211F7057
:103C54000B4B30461F7000F0F9FD288000F076FC15
:103C6400084BC0B20128187006D014200134FFF7A5
:103C74003FFB032CE9D1002001B0F0BD2905002051
:103C84002805002020040020F0B585B004AE4FF0D4
:103C940000020746019126F8022D002500240EE0BB
:103CA400385D3146FFF7CAFF68B1BDF80E2007EB57
:103CB40004039A800520FFF71BFB01350C34019B9C
:103CC4009D42EDDB012005B0F0BDC046F0B51646BF
:103CD400154A81B005460C461360144F1AE0284675
:103CE4002146FFF7D1FFC0B1002000210BE005EB16
:103CF40001035A889B880C31D21A002AB8BF524259
:103D0400B24204DC0130A042F1DB012006E01420C1
:103D1400FFF7EEFA044A136813B9002001B0F0BDAE
:103D2400FB78002BDBD0F8E7300500206405002089
:103D3400F0B5064681B00D4600244FF000070C4B49
:103D44001E211F700B4B30461F702A4600F062FD87
:103D540000F0FCFB084BC0B20128187006D01420F8
:103D64000134FFF7C5FA032CE9D1002001B0F0BDFE
:103D7400290500202805002020040020F0B506466F
:103D840081B00F46002500240BE006EB0403305DF0
:103D94005988FFF7CDFF0C3430B10520FFF7A8FA9E
:103DA4000135BD42F1DB012001B0F0BDF0B506469E
:103DB40081B00D4600244FF000070C4B18211F70F2
:103DC4000B4B30461F702A4600F05EFD00F0BEFB30
:103DD400084BC0B20128187006D014200134FFF734
:103DE40087FA032CE9D1002001B0F0BD2905002099
:103DF400280500202004002070B50F4B1B78CBB998
:103E04000E4E012500240121305DFFF7CFFF0C3455
:103E1400002808BF00250520FFF76AFA302CF2D1EC
:103E2400054A2DB906481570FFF74AFB002002E049
:103E340001231370012070BD2104002034050020EB
:103E4400C877000810B5FFF7D7FF00282DD0174A10
:103E5400174C00234FF00001137053709370D3700C
:103E640013715371D180618A9360013BD360E388FD
:103E7400E181618D6380E38BE184204604216383C7
:103E8400FFF77CFF08B90B4809E04FF47A70FFF79D
:103E94002FFA20460421FFF7F7FE18B90648FFF76A
:103EA4001DFB02E00548FFF70BFB10BD6405002075
:103EB40034050020DE770008F27700080578000852
:103EC40010B540F2FF33984234BF04461C46FFF756
:103ED40093FF00282CD0174B002217484FF0000105
:103EE4001A705A709A70DA701A715A719A60013A9B
:103EF400D980DA6000F13001038942899C4203D3FE
:103F0400944234BF2346134643800C308842F3D195
:103F140030380421FFF732FF18B90848FFF7DEFAFA
:103F240006E04FF4FA70FFF7E3F90548FFF7C8FA23
:103F340010BDC04664050020340500200F78000839
:103F440021780008022910B518BF0D480DD10D4C79
:103F540023780BB90C4808E0406802F040EE22795F
:103F6400C3B29A42014603D00848FFF7B7FA06E005
:103F74000023237006480123A370FFF717FC10BD2C
:103F840029780008640500203D7800084A78000874
:103F940039780008F0B52A4D81B02B7804460BB966
:103FA40028483CE0072918BF274838D1EB780BB1E3
:103FB400264834E0606802F012EE0746A06802F07A
:103FC4000EEEAB6806469F4218BF214827D1002E4B
:103FD400B8BF204823DB25461F4CE86802F0FEEDFD
:103FE400002801DA002004E040F2FF339842A8BF21
:103FF4001846E38880B29842228903D3904234BFA2
:104004000346134624F80C3B144B04359C42E4D17C
:10401400A4F132000421FFF7B1FE18B91048FFF7EC
:104024005DFA0BE016B13046FFF762F9044A7B1CD7
:10403400D76093600B483946FFF7B8FB01B0F0BD79
:10404400640500203D780008567800086978000867
:104054007C78000884780008360500206605002076
:104064008B78000866780008042970B5044618BFE8
:1040740014480ED1606802F0B2ED0646A06802F062
:10408400AEED0546E06802F0AAED042D044603D027
:104094000D48FFF723FA13E0FFF7AEFE80B10B4B98
:1040A40001221A705A7000229A70DA709A60013AEA
:1040B4001E715D71DC80DA6005483146FFF776FBDE
:1040C40070BDC0469E780008B478000864050020DE
:1040D400AE780008F0B5012981B0054610D1016819
:1040E400002945D00B78002B42D0002204E0303B5D
:1040F400DBB2092B3CD801328B5C002BF7D139E0C1
:10410400022917D10068464902F078ED00282FD122
:10411400696800292CD00B78002B29D0002204E0F8
:10412400303BDBB2092B23D801328B5C002BF7D157
:10413400012020E005291BD10068394902F05EED19
:10414400B0B9013055F8201069B10B785BB1002289
:1041540005E0A4F13003DBB2092B04D801328C5CF6
:10416400002CF6D101E02F4848E00428E9D150E0C2
:104174002D4843E0002055F8200002F030ED0028DF
:1041840001DA002004E040F2FF339842A8BF184649
:1041940080B2FFF795FE40E0244B4FF000021C7004
:1041A4005C709C70DC701C715C719C60204CDA80CB
:1041B4004FF0FF32DA6040F2FF3704F130066868EE
:1041C40002F00CED002801DA002002E0B842A8BF9A
:1041D4003846E38880B29842228903D3904234BFA0
:1041E4000346134624F80C3B0435B442E7D1A4F14A
:1041F40032000421FFF7C2FD18B90E48FFF76EF92B
:104204000BE04FF4FA70FFF773F80B48FFF758F917
:1042140003E0FFF7F1FD0028BED101B0F0BDC046B8
:10422400DF780008C4780008CF780008640500200F
:10423400360500200F7800082178000870B50E4676
:104244000C491546002402F0D4ED06E046F824009B
:1042540008490020013402F0CCEDAC42ACBF00238D
:10426400012300280CBF002303F00103002BEDD130
:10427400204670BDEA76000870B50378ACB00146FC
:10428400002B4AD07F22684620AE02F02CED00239A
:104294000C22684631468DF87F30FFF7CFFF0028A7
:1042A4006C46054639DD209C1D49204602F0A6ECEB
:1042B40010B9FFF743F930E020461A4902F09EECAA
:1042C40020B930462946FFF7CFFE26E0204616499E
:1042D40002F094EC20B930462946FFF75BFE1CE05F
:1042E4002046124902F08AEC20B930462946FFF7ED
:1042F40029FE12E020460E4902F080EC10B9FFF7C7
:1043040003F90AE020460B4902F078EC10B9FFF7F4
:1043140099FD02E00848FFF7E1F82CB070BDC046F3
:10432400E2780008AE78000866780008397800085A
:10433400E7780008EC780008F178000810B5A0B020
:10434400FFF73AFCFFF70EFCFFF7C8FBFEF7E6FFAA
:10435400FFF740F80D4B02201968FFF777FB642044
:10436400FEF7C6FFFEF724FF0020012100F0DAFA71
:104374000748FFF7A5F868468021FFF7AFFA002841
:10438400F9D06846FFF778FFF5E7C046040000203F
:10439400017900087047C046FEE7C046FEE7C04604
:1043A400FEE7C046FEE7C0467047C0467047C046B9
:1043B4007047C0467047C0467047C0467047C04605
:1043C4007047C0467047C0467047C0467047C046F5
:1043D4007047C0467047C0467047C0467047C046E5
:1043E4007047C0467047C0467047C0467047C046D5
:1043F4007047C0467047C0467047C0467047C046C5
:104404007047C0467047C0467047C0467047C046B4
:104414007047C0467047C0467047C0467047C046A4
:104424007047C0467047C0467047C0467047C04694
:104434007047C0467047C0467047C0467047C04684
:104444007047C0467047C0467047C0467047C04674
:104454007047C0467047C0467047C0467047C04664
:104464007047C0467047C0467047C0467047C04654
:104474007047C0467047C0467047C0467047C04644
:104484007047C0467047C0467047C0467047C04634
:104494007047C0467047C0467047C04600B581B0FB
:1044A400FEF748FF01B000BD00B581B0FEF768FF1C
:1044B40001B000BD00B581B0FEF700FF01B000BD42
:1044C40000B581B0FEF70AFF01B000BD00B5034698
:1044D400642081B000FB03F0FEF7FAFE01B000BDDA
:1044E40070B506460D46002409E0FEF7C1FE08B982
:1044F400254606E0FEF7C8FE631C3055DCB2AC422C
:10450400F3DB284670BDC04670B506460D46002450
:1045140004E0305DFFF76EFA631CDCB2AC42F8DBFA
:10452400284670BD00B581B0FEF798FE01B000BD0D
:1045340000B581B0FFF780FA01B000BD00B50846B0
:1045440081B0FFF7C3FA012001B000BD014B186828
:104554007047C0460C000020014B98707047C0465D
:1045640074050020014B18717047C0467405002083
:10457400014B1B185971704774050020014BD8700A
:104584007047C04674050020034B1B7918420CBFCA
:10459400002001207047C04614060020014BD87843
:1045A4007047C04614060020014B1B185879704709
:1045B4001406002000EB012080B27047C0B270479F
:1045C40000F47F40000A704730B5534981B00B684E
:1045D400002B00F09F80514B514A9B78FE2B00F03A
:1045E4009580126822B94F4B1A704F4B06221A70ED
:1045F4004C4D4D4C2B7821784C48C91AC018FFF704
:104604006FFF2B78C0182378C0B28342287003D977
:10461400FFF756FF012808D0424B00201A7843497F
:1046240002F1FF3CA2F1020E19E02B783C4A0BB9CF
:10463400062300E0072313600022374B4FE00B5C96
:10464400FF2B04D101EB00035B78FF2B09D07045ED
:1046540003D111F80C30FF2B03D0431CD8B26045B2
:10466400EDDB88B10021C0EB020CDFF8C0E006E00E
:104674000EEB01031B5C0EF801304B1CD9B26145F3
:10468400F6DB284B121A1A70264D274C95F800C0F9
:104694002378634521D8214B24489A7883789A4219
:1046A40003D01F4B07221A60C6E7C3780433D9B27C
:1046B4008C4521700BD26044CCEB0101FFF710FF55
:1046C4002B78C0182378C0B28342287005D8174BC2
:1046D4000021D87800229C460AE0114B05221A607A
:1046E40018E00CEB01039B781344DAB24B1CD9B2EB
:1046F4008842F6DA0D4B6FEA02021B18DB78D2B25D
:1047040093420549064A01D0072300E001231360C0
:1047140000230B6001B030BD5C060020740500204E
:104724000C0000205B0600205A060020140600201E
:1047340030B52D4981B00B68012B52D02B48012391
:1047440090F803C00B60BCF1980F0BD803795A1E84
:10475400D2B2833B18BF0123052A94BF002303F080
:1047640001032BB1224A0423136000230B6038E0B9
:104774004FF0FF33037043700021002206E000EB8A
:1047840001039B781344DAB24B1CD9B28C45F6DA98
:10479400164B6FEA02026344DA70154B1B68063B42
:1047A400012B01D8FFF7BEFE104DEC7828460434E7
:1047B400E4B22146FFF7A8FEC0B2844205D00C4BF8
:1047C40002221A600022084B0AE02B79022B02D144
:1047D400A879063000E00620FFF778FE044B00229B
:1047E4001A6001B030BDC0465C060020740500208C
:1047F4000C00002010B5FFF79BFF054A13682BB986
:104804001446FFF7E1FE2368052BFAD010BDC0461D
:104814000C00002000B50B4B81B01B6894467BB99B
:10482400094A032313711FFA8CF393711B0AD37182
:10483400052390705171D370FFF7DCFF01B000BD08
:10484400FEE7C0465C0600207405002000B50B4B53
:1048540081B01B688BB90A4A022313719371042334
:1048640090705171D370FFF7C5FF064B9A79587950
:1048740000EB022080B201B000BDFEE75C06002020
:10488400740500201406002000B5094B81B01B6894
:10489400944663B9074B03221A7104229870597124
:1048A40083F806C0DA70FFF7A5FF01B000BDFEE78C
:1048B4005C0600207405002000B50A4B81B01B681B
:1048C40073B9094A0223137101239371042390706D
:1048D400D3705171FFF78EFF044B587901B000BDBE
:1048E400FEE7C0465C060020740500201406002084
:1048F40000B5074B81B01B684BB9064B01221A71F6
:1049040002229870DA70FFF775FF01B000BDFEE770
:104914005C0600207405002000B581B0FFF708FE96
:1049240001B000BD00B5094B013193FBF1F381B037
:104934001946FFF703FE30B1054B01221A60054BFF
:1049440000221A60012001B000BDC04680841E0010
:104954000C0000205C060020044A136803F03803AE
:1049640013601368184310607047C046002002406B
:10497400044A136823F00803136013681843106093
:104984007047C04600200240044A136823F0100315
:1049940013601368184310607047C046002002403B
:1049A400034B044A5A6002F188325A607047C04689
:1049B4000020024023016745024A136943F0800343
:1049C4001361704700200240014BD869800870478A
:1049D40000200240014B186A7047C0460020024084
:1049E400024BD869400800F00100704700200240E3
:1049F400024B1868400900F0010070470020024093
:104A040021B1054A136940EA030303E0024A13692A
:104A140023EA00031361704700200240012804D1F7
:104A2400054BDB6903F0010005E0034BDB6818422A
:104A34000CBF00200120704700200240014BD860C9
:104A44007047C04600200240094AD36813F0010FA2
:104A540001D001200BE0D36813F0040F01D0022031
:104A640005E0D36813F0100F14BF0320042070472F
:104A74000020024010B5234A82B0D368014613F0E7
:104A8400010F01D001202AE0D36813F0040F01D0F4
:104A9400022024E0D36813F0100F14BF0320042075
:104AA4001DE00194CDF804C002E0019B013B019399
:104AB400019B002BF9D1D36813F0010F01D0012021
:104AC4000BE0D36813F0040F01D0022005E0D36893
:104AD40013F0100F14BF03200420013903E0094A26
:104AE40000244FF0FF0C0B1E18BF0123012814BF34
:104AF400002303F00103002BD3D1002908BF0520B4
:104B040002B010BD00200240F0B5134B134C81B02D
:104B1400A36003F188330546A3600F200E461746B1
:104B2400FFF7A8FF042815D123690D4A43F01003A9
:104B3400236145F0F80346EA030347EA030353807D
:104B44000F20FFF797FF01281FBF226941F6EF737B
:104B54001340236101B0F0BD2301674500200240EA
:104B640000F8FF1F30B5054681B040F6FF70FFF72F
:104B740081FF04283CD11F4C1F4B00F57E60A360CD
:104B840003F18833A36023691B3043F020032361BE
:104B9400236943F040032361FFF76CFF042820D10D
:104BA400236941F6DF7203EA02022261236943F0BA
:104BB400100323611DB1114B4FF0000202E00F4BB3
:104BC4004FF0A5021A8040F6FF70FFF753FF01284B
:104BD4000ED0084941F6EF730A6902EA03030B6138
:104BE40006E001281FBF226941F6DF7313402361E9
:104BF40001B030BD002002402301674500F8FF1FCB
:104C040010B504460F20FFF735FF042850D1294A78
:104C1400294B6FEA0404936003F1883393601369AA
:104C2400E1B243F01003FF29136104D0234B0F209A
:104C34001981FFF71FFF04F47F431A0AB2F1FF033F
:104C440018BF0123042814BF002303F0010323B178
:104C54001A4B0F205A81FFF70DFF04F47F031A0C3F
:104C6400B2F1FF0318BF0123042814BF002303F08B
:104C7400010323B1114B0F209A81FFF7FBFE220E93
:104C8400B2F1FF0318BF0123042814BF002303F06B
:104C9400010323B1094B0F20DA81FFF7EBFE012852
:104CA4001FBF044941F6EF730A69134018BF0B6133
:104CB40010BDC046002002402301674500F8FF1FD5
:104CC40070B506460F200D46FFF7D4FE042814D114
:104CD4000A4C0B4B0F20A36003F18833A3602369B4
:104CE40043F0100323613580FFF7C4FE01281FBF82
:104CF400226941F6EF731340236170BD0020024026
:104D04002301674570B506460F200D46FFF7B2FE36
:104D140004280FD1084C0F20236943F001032361B9
:104D24003580FFF7A7FE01281FBF226941F6FE73F5
:104D34001340236170BDC0460020024070B5064692
:104D44000F200D46FFF796FE042817D10C4C0F20B8
:104D5400236943F001032361ABB23380FFF78AFE7A
:104D6400042804D12B0C73800F20FFF783FE012845
:104D74001FBF226941F6FE731340236170BDC04614
:104D84000020024010B540F6FF70FFF773FE0428C0
:104D94002CD1174C174B00F57E60A36003F18833C8
:104DA400A36023691B3043F020032361236943F08C
:104DB40040032361FFF75EFE042810D1226941F607
:104DC400DF7302EA0303236123694FF0A50243F072
:104DD40010032361084B0F201A80FFF74BFE0128B4
:104DE4001FBF226941F6EF731340236110BDC04613
:104DF400002002402301674500F8FF1F10B540F66C
:104E0400FF70FFF737FE042813D10A4C23690343CC
:104E14002361236900F57E6043F0400323611B3066
:104E2400FFF728FE01281FBF226941F6FB731340D8
:104E3400236110BD0020024030B5054681B040F624
:104E4400FF70FFF717FE042815D10C4C00F57E60A7
:104E540023691B3043F0020323616561236943F036
:104E640040032361FFF706FE01281FBF226941F6B4
:104E7400FD731340236101B030BDC04600200240E1
:104E8400F0B5CD780E8815F0100F18BF8B7805F0AB
:104E94000F0718BF1F4316F0FF0F83B01ED004681E
:104EA4000021012212FA01F303EA060C9C4511D1F8
:104EB4008A000F23934017FA02F224EA03041443EE
:104EC400282D019308BFC0F814C003D0482D08BF93
:104ED400C0F810C001310829E3D10460FF2E20D9A5
:104EE40044680021012201F1080312FA03F303EAE2
:104EF400060C9C4511D18A000F23934017FA02F245
:104F040024EA03041443282D019308BFC0F814C0F5
:104F140003D0482D08BFC0F810C001310829E1D1E1
:104F2400446003B0F0BDC0464FF0FF33038002235A
:104F340083700423C3707047836819420CBF002038
:104F440001207047806880B27047C046C368194228
:104F54000CBF002001207047C06880B27047C04673
:104F640001617047416170470AB1016100E041612C
:104F74007047C046C160704741F4803383618161EA
:104F84008361836983697047DFF818C04FF68073C3
:104F9400DCF8002041EA001102EA03031943CCF8CB
:104FA4000010704700000140014B18607047C04674
:104FB4001C00204230B500F4401304040D4614498B
:104FC400240CB3F5401FD1F804C006D14B682CF073
:104FD400706223F070634B6010E010F4801F05D002
:104FE40000F47022120C0323934003E0430D1B01D1
:104FF40014FA03F32CEA030343F0706225B1430D62
:105004001B0114FA03F31A43014B5A6030BDC04626
:105014000000014010B501F00304A4000F23A340D5
:10502400A040DFF820C0890802315CF8212022EA80
:1050340003024CF821205CF8213018434CF821007D
:1050440010BDC0460000014000B50120012181B01F
:1050540000F0F6FB0120002100F0F2FB01B000BDDE
:1050640000B5274B83B0984201902BD00CD8A3F500
:10507400006398421AD003F5806398421CD0A3F5CC
:10508400006398423AD10BE01E4B984226D003F5B8
:105094008063984228D0A3F5006398422ED117E08C
:1050A4000420012100F0CCFB042024E0082001218D
:1050B40000F0C6FB08201EE01020012100F0C0FB18
:1050C400102018E02020012100F0BAFB202012E07B
:1050D4004020012100F0B4FB40200CE0802001219D
:1050E40000F0AEFB802006E04FF48070012100F058
:1050F400A7FB4FF48070002100F0A2FB03B000BDB9
:1051040000140140001C01400B4B4FF0FF316FF0C5
:105114007042C3F880101846C3F88420C3F8801185
:10512400C3F884210021002202F1C00301320F2AB6
:1051340040F82310F8D1704700E100E0094A4FF02D
:1051440020630949536000239360D1601361536164
:105154009361D36113625362013B9362D36213631D
:105164007047C04600ED00E00000FA0540F0BE6064
:10517400024B40F42020D8607047C04600ED00E0A8
:1051840030B5C37805785BB31A4B4178DA681A4CAA
:105194006FEA020202F4E062120AC2F104039940C7
:1051A4000F23D340827805F0030013400B43C00063
:1051B4001B01FF22824083404FEA950C0CF1C00C86
:1051C40054F82C10134021EA02010B4344F82C300C
:1051D40005F01F0201239340690944F8213008E0D7
:1051E40005F01F02012393406909034A203142F864
:1051F400213030BD00ED00E000E100E00023037049
:1052040043708370C3707047034B04485B6803EAC0
:105214000000000B7047C04600ED00E000F03F00C6
:1052240000F01F0301229A404009054B403053F817
:1052340020001040904214BF002001207047C04657
:1052440000E100E0014B18607047C04600EF00E049
:105254004109012300F01F008340024A603142F8F3
:105264002130704700E100E0024B58688005800D52
:105274007047C04600ED00E000F01F0301229A4091
:105284004009054B803053F820001040904214BF71
:10529400002001207047C04600E100E0014B18687F
:1052A4007047C04600ED00E021F0604121F07F012D
:1052B400014B01439960704700ED00E0014A024B45
:1052C400DA6070470400FA0500ED00E0014A024B81
:1052D400DA6070470100FA0500ED00E021B1054AEB
:1052E400136940EA030303E0024A136923EA000353
:1052F4001361704700ED00E000F01F00012313FA72
:1053040000F021B1054A536A40EA030303E0034A6B
:10531400536A23EA000353627047C04600ED00E07D
:1053240010B5144CE3686FEA030303F4E0631B0A4B
:10533400C3F1040C01FA0CF14FF0FF0C2CFA03F347
:105344001A400A4300F0C001400900F018000CFAAA
:1053540000FC120182408909063154F8213023EA05
:105364000C0344F8213054F821301A4344F8212026
:1053740010BDC04600ED00E0800A00F00F000123DC
:105384008340044A506A03EA0000984214BF002094
:105394000120704700ED00E000F01F00012383406E
:1053A400024A51680B4353607047C04600ED00E069
:1053B40000F01F00013801238340024A51680B4367
:1053C4005360704700ED00E0800B00F00F000123F4
:1053D4008340044A506A03EA0000984214BF002044
:1053E4000120704700ED00E0830C13F0030302D1A9
:1053F4000D4BD86A17E0012B13D103F1604303F579
:105404006C43FE33020D013302F00302996AD300A8
:1054140031FA03F0022A14BF00F00F0000F0FF007D
:1054240001E0014B186B704700ED00E010F4800FB1
:105434000BBF024B014B586B986B704700ED00E0BB
:1054440000B581B001F088FB01B000BD00B50001DA
:1054540081B001F07EFB01B000BDC04600B581B053
:1054640001F075FB01B000BD00B581B001F06DFB2A
:1054740001B000BD00B581B001F065FB01B000BD15
:1054840000B581B001F05DFB01B000BD014B1860B7
:105494007047C04620000E42014B18607047C0465A
:1054A40010000E42034A136823F0E003184310600F
:1054B4007047C04600700040014B18607047C046FA
:1054C400A0000E42034B5B6818420CBF0020012071
:1054D4007047C04600700040024A136843EA8003E4
:1054E40013607047007000400B4A00B5136881B028
:1054F40043F004031360136843F00203136002F1E2
:10550400204202F5FA421032136843F00403136098
:1055140001F0F2FA01B000BD007000400C4A00B581
:10552400136881B023F003031843106002F1204292
:1055340002F5FA4210321368012943F004031360A0
:1055440002D101F0D9FA01E001F0D8FA01B000BDAE
:105554000070004010B54FF080542046012100F047
:105564007DF92046002100F079F910BD0D4A136839
:1055740043F00103136051680B4B01EA03035360CA
:10558400136823F0847323F480331360136823F4C3
:1055940080231360536823F4FE0353600023936055
:1055A4007047C046001002400000FFF80B4AB0F5F7
:1055B400803F136823F480331360136823F480233B
:1055C400136003D0B0F5802F07D102E013680343C2
:1055D40002E0136843F4A0231360704700100240F4
:1055E40082B00023094901930A68019B013312F434
:1055F400003F019303D1019BB3F5A06FF4D1034B9A
:105604001868400C00F0010002B07047001002401E
:10561400034A136823F0F80343EAC0031360704796
:1056240000100240014B18607047C046000042421F
:10563400034A536823F47C131843084350607047AB
:1056440000100240014B18607047C046600042429F
:10565400034A536823F00303184350607047C0465D
:1056640000100240024B586800F00C007047C0461E
:1056740000100240034A536823F0F00318435060BB
:105684007047C04600100240034A536823F4E063A5
:10569400184350607047C04600100240034A5368E4
:1056A40023F4605343EAC003536070470010024080
:1056B40021B1054A137840EA030303E0024A137850
:1056C40023EA00031370704709100240014B18606D
:1056D4007047C046D8004242034A536823F440430B
:1056E400184350607047C04600100240064A002329
:1056F40001281370137008BF107003D0042801D15F
:10570400052313707047C04620100240014B1860F7
:105714007047C04680044242024A136A184310622A
:105724007047C04600100240014B18607047C046E5
:105734003C044242294984464B6803F00C03042B81
:1057440021D0082B1FD14B6803F470139B0C9A1CB7
:105754004B6813F4803F08BFC2EB421306D04B687A
:1057640013F4003F4FEA421306D09B1AC3EB831392
:1057740002EBC3031B0207E09B1AC3EB831302EB88
:10578400C3035B0200E0164B1448CCF800304368B6
:10579400144A03F0F0031B09D35CDCF80010D94071
:1057A400CCF80410436803F4E0631B0AD35C31FAB9
:1057B40003F3CCF80830436803F46053DB0AD35C8A
:1057C400094AD940CCF80C10436803F440439B0BBE
:1057D400D35CB1FBF3F1CCF8101070470010024019
:1057E40000127A00EC710008FC71000821B1054A2E
:1057F400536940EA030303E0024A536923EA0003BE
:10580400536170470010024021B1054A936940EA90
:10581400030303E0024A936923EA00039361704798
:105824000010024021B1054AD36940EA030303E0B2
:10583400024AD36923EA0003D3617047001002408F
:1058440021B1054AD36840EA030303E0024AD3685E
:1058540023EA0003D36070470010024021B1054AD7
:10586400136940EA030303E0024A136923EA0003CD
:105874001361704700100240014B18607047C04626
:1058840040044242014B18607047C0464C004242FB
:10589400014B18707047C046071002404309012BA2
:1058A40008D103F1804303F5023303F5FF630733A3
:1058B4001B680CE0022B08D103F1804303F502338B
:1058C40003F5FF6306331B6A01E0044B5B6A00F0D7
:1058D4001F0033FA00F000F001007047001002408E
:1058E400024A536A43F080735362704700100240C7
:1058F400034B9B6818420CBF002001207047C04630
:1059040000100240014B18707047C0460A10024054
:10591400042803D1044A1368034303E0024A1368CA
:1059240023F004031360704710E000E0014B58605B
:105934007047C04610E000E0012803D1084A13680C
:10594400034306E010F1020F05D1054A136823F062
:105954000103136002E0024B00229A607047C046C4
:1059640010E000E020B1054A136843F0020303E0AD
:10597400024A136823F002031360704710E000E04A
:10598400014B98687047C04610E000E0C308022B42
:10599400024606D103F1604303F560430E331868F1
:1059A40001E0034BD868D04000F001007047C046C6
:1059B40010E000E0038882B003F08F0303800388C3
:1059C400CA889BB213434A88019013439BB2038055
:1059D4008B880B4A83850B888C4603854FF0010323
:1059E4008382084B984214BF00230123904208BFCE
:1059F40043F0010313B19CF80830038602B07047EA
:105A0400002C014000340140038C8C4623F0010338
:105A14001B041B0C0384018C8388F0B59DB2038B9B
:105A2400BCF808209EB2BCF8023021F002011343F6
:105A340009049BB2090C43EA0104BCF80630BCF823
:105A4400007083861A4B1B4A984214BF002301231B
:105A540083B0904208BF43F001030190EBB102F11F
:105A64004042A2F53052BCF80A30093A04EA020274
:105A74001A434FF6FB7302EA0303BCF8042047F60B
:105A8400FF4143EA0204BCF80E30BCF80C2005EADE
:105A9400010113439BB243EA01054FF68F7306EAF3
:105AA40003033B4385800383048403B0F0BDC046F5
:105AB40000340140002C0140038CF0B523F01003A6
:105AC4001B041B0C0384038C828823F0200395B2EF
:105AD400028B1B0496B20A891B0C43EA02134A8800
:105AE4009BB243EA02139CB2CB880F8803871E4BF8
:105AF4001E4A984214BF0023012383B0904208BF7A
:105B040043F0010301908C460BB302F14042A2F52D
:105B14003252BCF80A30013A04EA020242EA0312A1
:105B24004FF6BF7302EA0303BCF8042043EA0213EE
:105B34009CB2BCF80C2047F2FF3305EA030343EAA6
:105B44008203BCF80E209BB243EA82039DB248F65E
:105B5400FF7306EA030343EA07239BB285800383AA
:105B6400048403B0F0BDC04600340140002C014061
:105B7400038CF0B523F480731B041B0C0384038C87
:105B8400828823F4007395B2828B1B0496B20A892F
:105B94001B0C43EA02234A889BB243EA02239CB2C9
:105BA400CB880F8883871D4B1D4A984214BF00235E
:105BB400012383B0904208BF43F0010301908C4657
:105BC4000BB302F14042A2F55052BCF80A30013A3C
:105BD40004EA020242EA03224FF6FF3302EA030315
:105BE400BCF8042043EA02239CB2BCF80C2044F61F
:105BF400FF7305EA030343EA0213BCF80E209BB2C9
:105C040043EA02139DB24FF68F7306EA03033B4344
:105C140085808383048403B0F0BDC0460034014012
:105C2400002C0140038CF0B523F480531B041B0C9F
:105C34000384038C85B09BB2029383884A881FFA3D
:105C440083FC838B0E889DB2CB880F89A0F84030EB
:105C5400174B0192174A984214BF00230123904224
:105C640008BF43F0010303900C463BB14FEA8C4359
:105C7400A2899B0C43EA82131FFA83FC48F6FF7344
:105C840005EA030343EA06239BB2029AA0F804C080
:105C940083834DF6FF7302EA030343EA0733019A51
:105CA4009BB243EA02339BB2038405B0F0BDC04605
:105CB40000340140002C01400B8830B504460D46E9
:105CC40043BB238C498823F001031B041B0CB5F848
:105CD40004C028892384238B228C23F0F3031B0420
:105CE4001B0C22F0020243EA001312049BB2120CB2
:105CF40041F0010143EA0C030A4323832284238BEA
:105D0400EA8823F00C031B041B0C2383238B9BB214
:105D140013432EE0042B2ED1238CB1F802C023F0C0
:105D240010031B041B0C888809892384238B228C71
:105D340023F440731B0522F020021B0D120443EAD6
:105D44000133120C9BB242EA0C1243EA002392B2D2
:105D54009BB242F0100223832284238BEA8823F42B
:105D640040631B041B0C2383238B9BB243EA022353
:105D74009BB2238355E0082BB1F802C088880989B7
:105D840025D1238C23F480731B041B0C2384A38B45
:105D9400228C23F0F30322F400721B0412041B0C64
:105DA400120C43EA011342EA0C229BB292B203435F
:105DB40042F48072A3832284A38BEA8823F00C0329
:105DC4001B041B0CA383A38B9BB2134328E0238CDB
:105DD40023F480531B041B0C2384A38B228C23F4F5
:105DE40040731B0522F400521B0D120443EA0023E6
:105DF400120C9BB242EA0C3243EA013392B29BB2D8
:105E040042F48052A3832284A38BEA8823F4406360
:105E14001B041B0CA383A38B9BB243EA02239BB2F8
:105E2400A38330BD8C46F0B5BCF800304C8889881B
:105E3400002C0CBF0227002701290CBF02260126D3
:105E4400BCF80850002B4BD1038C23F001031B0436
:105E54001B0C0384038B028C23F0F3031B041B0C25
:105E640043EA051322F002029BB212040B43120C04
:105E740044F001010A4303830284038BBCF8061037
:105E840023F00C031B041B0C0383038B9BB20B43F7
:105E94000383038C23F010031B041B0C0384038B68
:105EA400028C23F440731B0522F030021B0D1204F4
:105EB40043EA0533120C9BB242F0100243EA062374
:105EC40042EA071203830284038B23F440631B0416
:105ED4001B0C0383038B9BB243EA01239BB24CE06C
:105EE400038C23F010031B041B0C0384038B028C10
:105EF40023F440731B0522F020021B0D120443EA15
:105F04000533120C9BB242EA041243EA012392B213
:105F14009BB242F0100203830284038BBCF8061088
:105F240023F440631B041B0C0383038B9BB243EADF
:105F340001239BB20383038C23F001031B041B0C7A
:105F44000384038B028C23F0F3031B0422F003026B
:105F54001B0C120443EA0513120C9BB242F001021B
:105F640033433A4303830284038B23F00C031B045F
:105F74001B0C0383038B9BB20B430383F0BDC0460E
:105F84000A884B8813438A881343CA8813430A89AF
:105F940013434A8913438A8913439BB2A0F84430BC
:105FA4007047C0464FF0FF3383804FF000030380F7
:105FB400C3804380002303727047C0464FF0000340
:105FC400038043808380C380038143818381C381B1
:105FD4007047C0464FF00003038043804FF0010335
:105FE40083804FF00003C380038170474FF00003A8
:105FF400038043808380C38003814381838170470E
:1060040021B103889BB243F0010304E0038823F029
:1060140001039B059B0D03807047C04629B1B0F86E
:1060240044309BB243F4004303E0B0F844305B04D3
:106034005B0CA0F84430704722B183899BB241EADB
:10604400030303E083899BB223EA0103838170473E
:10605400818270470A43A0F84820704722B183899F
:106064009BB241EA030303E083899BB223EA010361
:1060740083817047038923F007031B041B0C0381EE
:106084007047C046038923F070031B041B0C19439B
:10609400018103899BB243F0070303817047C04623
:1060A40010B50C46602C11469C461AD1038C23F083
:1060B40010031B041B0C0384038B028C23F4407316
:1060C40022F030021B0512041B0D120C43F48073E2
:1060D40042F0100243EA0C3342EA01129BB292B23C
:1060E40017E0038C23F001031B041B0C0384038BB4
:1060F400028C23F0F3031B0422F003021B0C120492
:1061040043F00103120C43EA0C1342F001029BB268
:106114000A4303830284038923F070031B041B0CCA
:1061240044EA0303038103899BB243F00703038119
:1061340010BDC046B0F808C05FFA8CFC41EA0C01FF
:106144000A4342EA032292B20281038923F07703CD
:106154001B041B0C43F0770303817047B0F808C09D
:106164005FFA8CFC41EA0C010A4342EA032292B230
:10617400028103899BB243F4804303817047C04684
:10618400B0F808C05FFA8CFC41EA0C010A4342EA09
:10619400032292B202817047018582827047C04611
:1061A400038823F070039B059B0D194301807047FE
:1061B400038923F070031B041B0C194301817047EE
:1061C400B0F808C030B5048B058C24F4407425F075
:1061D400220524F003042D042CF0070C24042D0CB8
:1061E4004FEA0C4C240C2A434FEA1C4C44F48074B0
:1061F40042EA031241EA0C0144F0010492B2018123
:106204000483028430BDC046038B23F070031B0457
:106214001B0C194301837047038B23F4E0431B04D5
:106224001B0C43EA01239BB203837047838B23F047
:1062340070031B041B0C194381837047838B23F465
:10624400E0431B041B0C43EA01239BB28383704786
:1062540021B103889BB243F0800304E0038823F058
:1062640080039B059B0D03807047C04621B1838842
:106274009BB243F0040304E0838823F004031B046B
:106284001B0C83807047C04621B183889BB243F0C6
:10629400080304E0838823F008031B041B0C838099
:1062A4007047C04621B183889BB243F0010304E0E8
:1062B400838823F001031B041B0C83807047C046B2
:1062C400038B23F008031B041B0C19430183704741
:1062D400038B23F400631B041B0C43EA01239BB2CE
:1062E40003837047838B23F008031B041B0C19439F
:1062F40081837047838B23F400631B041B0C43EAE4
:1063040001239BB283837047038B23F004031B0494
:106314001B0C194301837047038B23F480631B0414
:106324001B0C43EA01239BB203837047838B23F046
:1063340004031B041B0C194381837047838B23F4D0
:1063440080631B041B0C43EA01239BB283837047C5
:10635400038B23F080031B041B0C19430183704738
:10636400038B5B045B0C43EA01239BB203837047FA
:10637400838B23F080031B041B0C19438183704718
:10638400838B5B045B0C43EA01239BB283837047DA
:10639400038C23F002031B041B0C19430184704774
:1063A400038C23F008031B041B0C1943018470475E
:1063B400038C23F020031B041B0C43EA01139BB240
:1063C40003847047038C23F080031B041B0C43EAF3
:1063D40001139BB203847047038C23F400731B04E2
:1063E4001B0C43EA01239BB203847047038C23F400
:1063F40000631B041B0C43EA01239BB20384704714
:10640400038C23F400531B041B0C43EA01339BB29B
:106414000384704701238B408A40B0F820C01FFAE0
:106424008CFC2CEA030CA0F820C0038C1A4392B213
:106434000284704704238B408A40B0F820C01FFABE
:106444008CFC2CEA030CA0F820C0038C1A4392B2F3
:106454000284704701238B409446028C82B092B22E
:1064640022EA0302082914BF00230123002908BFDC
:1064740043F00103019002846BB110F11802490842
:1064840050584FF68F7300EA03035350535843EAAE
:106494000C03535010E001980A1F92B218305208AE
:1064A400815848F6FF7301EA0303835081584FEA89
:1064B4000C239BB21943815002B0704721B1038869
:1064C4009BB243F0020304E0038823F002039B051C
:1064D4009B0D03807047C04621B103889BB243F0F3
:1064E400040304E0038823F004039B059B0D03804D
:1064F4007047C04621B183889BB243F0800304E017
:10650400838823F080031B041B0C83807047C046E0
:10651400038823F008039B059B0D038003889BB22B
:10652400194301807047C046838823F070031B041D
:106534001B0C838083889BB2194381807047C046BB
:10654400038923F007031B041B0C038103899BB2FB
:10655400194301817047C046038923F080031B045B
:106564001B0C038103899BB2194301817047C04608
:1065740081847047818570478186704701877047A1
:1065840081877047A0F840107047C046038B23F002
:106594000C031B041B0C0383038B9BB21943018361
:1065A4007047C046038B23F440631B041B0C038316
:1065B400038B9BB243EA01239BB203837047C0461B
:1065C400838B23F00C031B041B0C8383838B9BB2F0
:1065D400194381837047C046838B23F440631B04B3
:1065E4001B0C8383838B9BB243EA01239BB283837B
:1065F4007047C0460388DBB2038003889BB219430B
:1066040001807047808E80B27047C046008F80B290
:106614007047C046808F80B27047C046B0F84000D3
:1066240080B27047808C80B27047C046008D80B2C3
:106634007047C046038A19420CBF002001207047EE
:106644006FEA010189B201827047C046038A8289D8
:1066540019420CBF0020012011420CBF002000F0A1
:10666400010070476FEA010189B201827047C04698
:1066740000B52F4B83B09842019037D00BD8A3F5C7
:106684000063984226D003F58063984228D0B0F185
:10669400804F4AD118E0274B984233D004D8A3F551
:1066A4008063984241D127E0234B984204D003F5FC
:1066B4000063984239D12EE04FF400600121FFF7C6
:1066C400BFF84FF400602DE001200121FFF7C6F868
:1066D40001201CE002200121FFF7C0F8022016E08F
:1066E40004200121FFF7BAF8042010E0082001215A
:1066F400FFF7B4F808200AE010200121FFF7AEF8F4
:10670400102004E020200121FFF7A8F82020002118
:10671400FFF7A4F809E04FF400500121FFF790F8C7
:106724004FF400500021FFF78BF803B000BDC046C2
:10673400000C004000140040002C01404FF416539C
:1067440003604FF000038380C38003814FF00C0388
:1067540043814FF0000383817047C046B1F800C005
:106764004B88028A43EA0C03B1F804C0C98822F4B6
:10677400706243EA0C0312040B43120C9BB21343E2
:10678400038270474FF00003038043808380C380FB
:106794007047C04621B183899BB243F4005304E09F
:1067A400838923F400531B041B0C83817047C04668
:1067B400CBB24FEA531C01F01F01012382B013FA3C
:1067C40001F1BCF1010F019001D10C3005E0BCF1E5
:1067D400020F01D1103000E0143012B103680B43F2
:1067E40002E0036823EA0103036002B07047C04675
:1067F40022B1838A9BB241EA030303E0838A9BB2FA
:1068040023EA010383827047038A23F00F031B04E6
:106814001B0C0382038A9BB20B4303827047C0465E
:10682400838923F400631B041B0C838183899BB23B
:10683400194381817047C04621B183899BB243F0DB
:10684400020304E0838923F002031B041B0C8381ED
:106854007047C046038A23F020031B041B0C0382E9
:10686400038A9BB2194301827047C04621B1038A4F
:106874009BB243F4804304E0038A23F480431B0463
:106884001B0C03827047C046C905C90D818070473F
:106894008088C005C00D704783899BB243F0010313
:1068A40083817047038BDBB20383038B9BB243EA80
:1068B400012303837047C046038B03F47F430383A0
:1068C400038B9BB20B4303837047C04621B1838A79
:1068D4009BB243F0200304E0838A23F020031B04CB
:1068E4001B0C83827047C04621B1838A9BB243F05C
:1068F400100304E0838A23F010031B041B0C83821F
:106904007047C04621B1838A9BB243F0080304E078
:10691400838A23F008031B041B0C83827047C04640
:10692400838A23F004031B041B0C8382838A9BB297
:10693400194381827047C04621B1838A9BB243F0D8
:10694400020304E0838A23F002031B041B0C8382EA
:106954007047C046038819420CBF002001207047CD
:106964006FEA010189B201807047C046CBB24FEA99
:10697400531C01F01F02012313FA02F2BCF1010FB0
:1069840008BF838904D0BCF1020F0CBF038A838A39
:106994009BB202EA030C0B0A01229A4003889BB2C1
:1069A4001A420CBF00200120BCF1000F0CBF0020D4
:1069B40000F001007047C046090A01238B406FEACA
:1069C40003039BB203807047038ACA8823F44053AD
:1069D4001B041B0C13430382828970B50B890E467A
:1069E400898822F4B0520B43718922F00C020B43C4
:1069F4001204120C9BB213438381838AB28923F459
:106A040040731B041B0C88B013430546838201901A
:106A1400044603A8FEF78EFE104B11489D420CBF9E
:106A2400069B059B03EB8301336801EB81019B000B
:106A3400B1FBF3F1A1FB002364224FEA531C0CFBCE
:106A4400121212013232A2FB00235B0903F00F037E
:106A540043EA0C139BB22B8108B070BD003801408F
:106A64001F85EB5100B5224B83B0984201902BD087
:106A740008D8A3F50063984216D003F580639842C2
:106A840034D119E01B4B984226D003F56843984251
:106A94002CD101214FF48040FEF7D2FE4FF4804008
:106AA4000021FEF7CDFE21E04FF400300121FEF776
:106AB400D5FE4FF4003016E04FF480200121FEF79C
:106AC400CDFE4FF480200EE04FF400200121FEF7AC
:106AD400C5FE4FF4002006E04FF480100121FEF7BC
:106AE400BDFE4FF480100021FEF7B8FE03B000BDD8
:106AF400004C00400050004030BF704720BF70473A
:106B040040BF7047BFF36F8F7047BFF34F8F70471D
:106B1400BFF35F8F704701DF7047EFF31480704756
:106B240080F31488BFF36F8F7047EFF309807047C9
:106B340080F309887047EFF30880704780F3088872
:106B4400704772B6704762B6704771B6704761B6E7
:106B5400704780F311887047EFF31280704740BA92
:106B6400704700BA704700002DF0070168468D4653
:106B740001B500220C49DFF834C00D4802E0835807
:106B84008B50043201EB02036345F8D3094B0A49E5
:106B9400002201E043F8042B8B42FBD3FDF7CEFB2C
:106BA400BDE8014085467047000000201C04002019
:106BB400107900081C0400206006002004E02DE584
:106BC4000020A0E304D04DE20A30A0E3C60000EBAD
:106BD40004D08DE204E09DE41EFF2FE104E02DE5E6
:106BE4000010A0E304D04DE20A20A0E32C0100EB46
:106BF40004D08DE204E09DE41EFF2FE1003081E12A
:106C0400030013E30020A0E12300001A002090E514
:106C1400003091E5030052E101C0A0E11C00001A1C
:106C2400FF3482E2013843E2013C43E2013043E2B3
:106C34000220E0E1023003E07F34C3E37F38C3E3A2
:106C44007F3CC3E37F30C3E3000053E30200000A48
:106C5400210000EA000052E31F00001A0410B0E50E
:106C6400FF3481E2013843E2013C43E20120E0E1E8
:106C7400013043E2023003E07F24C3E30430BCE587
:106C84007F28C2E37F2CC2E3030051E17F20C2E3EB
:106C9400EFFFFF0A0020A0E10C10A0E10030D2E5D4
:106CA400000053E30400001A080000EA0130F2E592
:106CB400000053E3011081E20400000A0000D1E562
:106CC400030050E1F8FFFF0A030060E01EFF2FE11C
:106CD4000000D1E5030060E01EFF2FE10000A0E307
:106CE4001EFF2FE101C0A0E1001081E1030011E3C8
:106CF4000030A0130130A003030052E30030A0933E
:106D04000130038230002DE9000053E30050A0E17C
:106D14000C10A0110200A0E10540A0111E00001AF1
:106D24000C40A0E105C0A0E1000050E31700000AF8
:106D34000030D4E50C10A0E1000053E3012040E250
:106D44000130C1E402C08C120800000A000052E3C2
:106D54000C10A0E1012042E20C00000A0130F4E52D
:106D6400000053E301304CE501C08CE2F6FFFF1A4A
:106D7400000052E30030A01303C0A0110300000A76
:106D840003C0C1E7013083E2030052E1FBFFFF1AB5
:106D94000500A0E13000BDE81EFF2FE100C091E531
:106DA400FF248CE2012842E2012C42E2012042E26B
:106DB4000C30E0E1023003E07F34C3E37F38C3E307
:106DC4007F3CC3E37F30C3E3000053E30400001AB5
:106DD400040040E2030050E304C084E4041081E2B0
:106DE400EDFFFF8A04C0A0E10140A0E1CDFFFFEA6E
:106DF40004E02DE51C309FE5002093E504D04DE22E
:106E04005C2082E20130A0E3030000EB04D08DE2B9
:106E140004E09DE41EFF2FE11000002070002DE926
:106E2400005050E20260A0E10140A0E10320A0E193
:106E34002600000A0510A0E10100D1E400C0A0E38F
:106E44000C30D4E7000053E301C08CE20500000AD3
:106E5400030050E1F9FFFF1A000052E30F00000A9B
:106E64000150A0E1F2FFFFEA000050E300008605B4
:106E74000D00000A0100A0E10120D0E40030A0E3ED
:106E840003C0D4E702005CE1013083E20800000A99
:106E940000005CE3F9FFFF1A0010A0E1F4FFFFEA31
:106EA400001086E50020C5E50500A0E17000BDE8FE
:106EB4001EFF2FE1000052E30200A0010030A013E6
:106EC4000030C115000086E50500A0E1F6FFFFEAE9
:106ED400005096E5000055E30500A001D4FFFF1A19
:106EE400F1FFFFEA0130A0E3CBFFFFEAF04F2DE909
:106EF40014D04DE208108DE5A0119FE50C008DE53E
:106F040000A091E504208DE508609DE50370A0E1F3
:106F14000150D6E40530DAE7083013E2FBFFFF1A2C
:106F24002D0055E30150D60401B0A0030200000A6D
:106F34002B0055E30150D60403B0A0E1012077E211
:106F44000020A033000057E3100057130800001A74
:106F5400300055E34800000A000052E30400000A30
:106F6400300055E30A70A0130780A0110100001A35
:106F74000870A0E30780A0E100005BE30241A013D6
:106F84000241E0030400A0E10810A0E18E0000EB40
:106F94000400A0E10190A0E10810A0E14B0000EB87
:106FA40000C0A0E10000A0E30010A0E10530DAE792
:106FB400040013E3302045120500001A030013E314
:106FC4001700000A010013E33730A0135730A00361
:106FD400052063E0020057E1110000DA0C0050E1E3
:106FE4000030A0930130A083A13F93E10900001A6F
:106FF4000C0050E10030A0130130A003090052E15D
:107004000030A0D3000053E3982020000110A00317
:107014000150D604E4FFFF0A0010E0E30150D6E477
:10702400E1FFFFEA010071E30C00000A00005BE3EA
:107034000000601204309DE5000053E30400000AE0
:10704400000051E308109D0504209DE5011046123F
:10705400001082E514D08DE2F04FBDE81EFF2FE151
:107064000C209DE500005BE32230A0E3003082E5C4
:107074000201A0130201E003EDFFFFEA0030D6E5B0
:10708400580053E378005313B2FFFF1A1070A0E3C3
:107094000150D6E50780A0E1026086E2B5FFFFEA71
:1070A4001804002004402DE50230A0E118209FE5DB
:1070B40000C0A0E10140A0E1000092E50C10A0E1B5
:1070C4000420A0E11000BDE887FFFFEA10000020C3
:1070D400012051E21EFF2F013600003A010050E169
:1070E4002200009A020011E12300000A0E0211E3BB
:1070F4008111A0010830A0030130A013010251E363
:10710400000051310112A0310332A031FAFFFF3ADD
:10711400020151E3000051318110A0318330A031CC
:10712400FAFFFF3A0020A0E3010050E101004020F3
:1071340003208221A10050E1A1004020A32082214C
:10714400210150E12101402023218221A10150E1AC
:10715400A1014020A3218221000050E32332B01179
:107164002112A011EFFFFF1A0200A0E11EFF2FE180
:107174000100A0030000A0131EFF2FE1010851E34A
:107184002118A0211020A0230020A033010C51E3DA
:107194002114A02108208222100051E32112A021F1
:1071A40004208222040051E303208282A1208290E1
:1071B4003002A0E11EFF2FE108E02DE5080000EBFE
:1071C4000000A0E308E09DE41EFF2FE103402DE949
:1071D400BEFFFFEB0640BDE8920003E0031041E070
:1071E4001EFF2FE11EFF2FE1000000000102030437
:1071F40001020304060708090204060800202020EF
:107204002020202020202828282828202020202052
:107214002020202020202020202020202088101022
:10722400101010101010101010101010100404047E
:10723400040404040404041010101010101041413C
:10724400414141410101010101010101010101012A
:10725400010101010101010110101010101042423E
:1072640042424242020202020202020202020202FA
:10727400020202020202020210101010200000009A
:1072840000000000000000000000000000000000FA
:1072940000000000000000000000000000000000EA
:1072A40000000000000000000000000000000000DA
:1072B40000000000000000000000000000000000CA
:1072C40000000000000000000000000000000000BA
:1072D40000000000000000000000000000000000AA
:1072E400000000000000000000000000000000009A
:1072F40000000000000000000000000000454E44B3
:107304000D0A004F4B2C53544F500D0A004F4B2C79
:107314004E4F500D0A00504F4E470D0A00436F6DFB
:107324006D616E64733A0D0A0050494E470D0A00B0
:1073340048454C500D0A004E4F502020202020205C
:1073440020202020202020202873616665206D7570
:107354006C74692D627974652054582070726F6260
:1073640065290D0A005120202020202020202020E3
:107374002020202020202873696E676C652D6B65A2
:10738400793A2071756965742C2073746F7020418B
:107394004C495645290D0A00562020202020202043
:1073A4002020202020202020202873696E676C650F
:1073B4002D6B65793A20766572626F73652C206552
:1073C4006E61626C6520414C495645290D0A0043A3
:1073D40020202020202020202020202020202020A9
:1073E4002873696E676C652D6B65793A2063656EE9
:1073F40074657220616C6C206A6F696E74732061AD
:107404007420353132290D0A0058202020202020F4
:10741400202020202020202020202873696E676CE3
:10742400652D6B65793A2053544F50290D0A00415C
:10743400582C3C6A315F706F733E2C3C6A325F702B
:107444006F733E2C3C6A335F706F733E2C3C6A341E
:107454005F706F733E0D0A0041582C3C706F733E91
:107464002020202020202020286D616E75616C3A38
:107474002073616D6520415820706F736974696F62
:107484006E20666F7220616C6C206A6F696E747313
:10749400290D0A003C706F733E20202020202020FC
:1074A40020202020286D616E75616C3A2073616D17
:1074B4006520415820706F736974696F6E20666F20
:1074C4007220616C6C206A6F696E7473290D0A00F6
:1074D40020202020202020202020202020202020A8
:1074E400283530302E2E353939206175746F2D7260
:1074F400756E20696E205258206465627567206D30
:107504006F6465290D0A00424547494E2C3C74724C
:10751400616A5F69643E2C3C6A6F696E745F636F75
:10752400756E743E2C3C706F696E745F636F756E1C
:10753400743E0D0A0050542C3C7365713E2C3C641F
:10754400745F6D733E2C3C6A315F706F733E2C3CEC
:107554006A325F706F733E2C3C6A335F706F733EA8
:107564002C3C6A345F706F733E0D0A00454E442C08
:107574003C7472616A5F69643E0D0A000D0A3D3D08
:107584003D3D3D3D3D3D3D3D3D3D3D3D3D3D3D3D27
:107594003D3D3D3D3D3D3D3D3D3D3D3D3D3D3D3D17
:1075A4003D3D3D3D3D3D0D0A00434D2D35333020DD
:1075B4005068616E746F6D582050696E63686572AF
:1075C4002046696E616C2054657374204669726D3F
:1075D400776172650D0A00415820506F73697469B0
:1075E4006F6E20496E7465676572205665727369A3
:1075F4006F6E202F20415820506F736974696F6E2D
:1076040020E695B4E695B8E789880D0A004A6F69C3
:107614006E74204F726465723A206A312D3E49447B
:1076240031372C206A322D3E4944332C206A332DC5
:107634003E4944322C206A342D3E4944370D0A0019
:1076440050432053657269616C203A20524F532095
:107654002D3E20434F4D34204020353736303020E6
:107664002850432073696465290D0A00426F6F74C2
:107674002072756C65203A205043205541525420A5
:1076840066697273742C2044584C20746F7271753F
:1076940065206F6E20484F4D452F424547494E0D9A
:1076A4000A005B52584442475D2030780020003C79
:1076B40043523E003C4C463E003C5441423E003C5A
:1076C4004354524C3E005B46494E414C5F52454147
:1076D400434845445D0D0A002046494E414C5F50E5
:1076E4004F533D004F4B2C005B41435455414C5D7F
:1076F4005B5345513D00204143545F504F533D007F
:107704005B5441524745545D5B5345513D005D5BBD
:1077140044543D006D735D0D0A00205441524745A9
:10772400545F504F533D004552522C4C494E455FD7
:107734004F564552464C4F5700496E70757420762B
:107744006F6C74616765206572726F72210A004103
:107754006E676C65206C696D6974206572726F72F6
:10776400210A004F76657268656174206572726FD4
:1077740072210A004F7574206F662072616E67650E
:10778400206572726F72210A00436865636B7375BA
:107794006D206572726F72210A004F7665726C6F8C
:1077A4006164206572726F72210A00496E7374728B
:1077B400756374696F6E20636F6465206572726FA0
:1077C40072210A004552522C44584C5F544F525176
:1077D40055455F4641494C0D0A004552522C484FCD
:1077E4004D455F57524954455F4641494C00455207
:1077F400522C484F4D455F524541445F4641494CE8
:10780400004F4B2C484F4D450D0A004552522C4118
:10781400585F57524954455F4641494C004F4B2CE1
:1078240041580D0A004552522C4649454C445F4389
:107834004F554E542C454E44004552522C4E4F5FEA
:10784400424547494E004552522C5452414A5F49E1
:1078540044004552522C4649454C445F434F554ED3
:10786400542C5054004552522C53544F505F52459F
:1078740051554553544544004552522C53455100EB
:107884004552522C4454004552522C44584C5F5794
:10789400524954455F4641494C004552522C464991
:1078A400454C445F434F554E542C424547494E0086
:1078B4004552522C4A4F494E545F434F554E540043
:1078C4004552522C41585F504F53004552522C465A
:1078D40049454C445F434F554E542C415800504940
:1078E4004E470053544F5000484F4D4500455252A7
:1078F4002C554E4B4E4F574E5F434D44005245411D
:0C79040044590D0A000000004300000080
:1079100040420F0000E1000064000100010000008F
:1079200018000020000000000000000004030020F8
:1079300060030020BC0300200000000000000000E5
:107940000000000000000000000000000000000037
:107950000000000000000000000000000C7900089A
:107960000000000000000000000000000000000017
:107970000000000000000000000000000000000007
:1079800000000000000000000000000000000000F7
:1079900000000000000000000000000000000000E7
:1079A00000000000000000000000000000000000D7
:1079B00000000000000000000000000000000000C7
:1079C00000000000000000000000000000000000B7
:1079D00001000000000000000E33CDAB34126DE654
:1079E000ECDE05000B0000000000000000000000BD
:1079F0000000000000000000000000000000000087
:107A00000000000000000000000000000000000076
:107A10000000000000000000000000000000000066
:107A20000000000000000000000000000000000056
:0C7D2000000000000000000001720008DC
:00000001FF
