:020000040800F2
:1030000000000120615C00081D3C00081F3C000816
:10301000213C0008233C0008253C0008000000007B
:10302000000000000000000000000000293C000833
:10303000273C0008000000002B3C00082D3C000845
:10304000313C0008333C0008353C0008373C0008A0
:10305000393C00083B3C00083D3C00083F3C000870
:10306000413C0008433C0008453C000800000000CB
:103070000000000000000000000000000000000050
:103080000000000000000000553C0008573C00080C
:10309000593C00085B3C00085D3C00085F3C0008B0
:1030A000613C0008633C0008653C0008673C000880
:1030B000693C00086D3C00086F3C0008713C00084A
:1030C000733C0008753C0008773C0008793C000818
:1030D0007B3C00087D3C0008813C0008833C0008E4
:1030E000873C0008893C00088B3C00088D3C0008A8
:1030F0008F3C0008913C0008933C0008953C000878
:10310000973C0008993C00089B3C00089D3C000847
:103110009F3C0008A13C0008A33C0008A53C000817
:10312000A73C0008A93C0008AB3C0008AD3C0008E7
:043130005FF8000044
:1031340000F050BD10B501F0CFFC4FF4803001F029
:10314400E9FC01F037FE0128044624D1102000F0E8
:1031540089FF022000F06EFF002001F029FD00200D
:1031640001F03AFD4FF4806001F02CFD4FF4803003
:103174004FF4E01101F0FAFC204601F001FD392082
:1031840001F004FE0028FAD0022001F0FFFC01F057
:1031940007FD0828FBD1012144F2090001F0B4FD28
:1031A4000448012101F0BCFDBDE81040012001F0FC
:1031B40038BC00BF0100040007B54FF440514FF084
:1031C400006001F06DFB4FF4A06001F0C3FA094BFD
:1031D40001A8019301F0C8FA074B01A8019301F07B
:1031E400C3FA064B01A8019301F0BEFA03B05DF8DF
:1031F40004FB00BF25000001270001011C0101019F
:1032040013B501A801F0F5F9154B042401A91548DB
:10321400019301F0A0F94FF408630DEB0401114888
:10322400ADF804308DF8074001F095F90E4B0DEB25
:1032340004010C48019301F08EF92046012101F0AC
:1032440017FA0121094801F013FA1021054801F089
:10325400EBF92021034801F0E5F902B010BD00BFED
:1032640030000310000C0140400403180004300037
:1032740010B588B001A801F0C2FF04A801F0C8FF8E
:103284004FF0804001F035FE00244FF6FF7301A992
:103294004FF08040CDE9014301F094FE012240F259
:1032A400D2214FF0804002F046F80F4B04A91B884E
:1032B4004FF08040ADF816300494ADF8184001F09A
:1032C4009FFE21464FF0804002F0BBF8012202210C
:1032D4004FF0804001F0D1FF01214FF0804001F018
:1032E400B2FF08B010BD00BF0000002010B50221DD
:1032F4004FF0804002F0C8FAC0B102214FF0804084
:1033040002F0CDFA4FF0804002F0A0FA084C094BCD
:10331400206021681B884FF08040194489B202F074
:10332400D0F9636813B16368013B636010BD00BFEB
:1033340010000020000000200021014802F064BBBE
:10334400003801400022024B1A725A72704700BFC3
:1033540010000020034B187A5B7AC01A18BF0120B2
:10336400704700BF10000020034B987ADB7AC01A24
:1033740018BF0120704700BF1000002010B504469C
:1033840020210D4801F050F910210B4801F04AF9B1
:1033940021460A4802F09FFB4021084802F0F6FB50
:1033A4000028F9D01021044801F03EF9BDE810408E
:1033B4002021014801F036B9000C014000380140D9
:1033C400064B197A5A7A9142FBD01A7A1A44107B26
:1033D4001A7A0132D2B21A72704700BF100000206C
:1033E400074B997ADA7A9142FBD09A7A1A4492F886
:1033F4000C019A7A013202F07F029A72704700BF80
:1034040010000020014608B5044802F064FB402186
:10341400024802F0BBFB0028F9D008BD0048004078
:1034240010B5441E14F8010F00B910BDFFF7EAFFF0
:10343400F8E7FFF7F5BF7FB5041E05D1302004B0CF
:10344400BDE87040FFF7DEBF03DA2D20FFF7DAFF97
:10345400644201AA002316460A21B4FBF1F001FBE1
:10346400104430341D4602F8014B0133044610B1B8
:103474000B2BF2D10A25705DFFF7C4FF013DFAD290
:1034840004B070BD08B540F22551084802F089FB2C
:1034940050B1064802F023FB054BC0B2597A4A1CCE
:1034A400D2B25A720B44187308BD00BF00380140F1
:1034B4001000002010B540F22551164802F071FBAF
:1034C40008B3144802F00BFB134BC0B293F88C21E1
:1034D40032B10D2801D00A2815D1002283F88C219D
:1034E400DA7A997A013202F07F0291420CD10124F6
:1034F40083F88D41D97A0D28C9B2997204D00A286B
:1035040002D083F88C4110BDD97A194481F80C019A
:10351400DA72F8E7004800401000002008B542F2D3
:10352400283001F07EFCBDE80840012001F08FBC8A
:10353400044BD3F8902122B1D3F89021013AC3F877
:10354400902170471000002010B50446012001F0BE
:103554006CFC084BC3F89041D3F89041002CFBD18C
:103564006FF0010001F061FC2046BDE8104001F05D
:103574005CBC00BF1000002030B585B0044668462E
:103584000D4602F021FA00234FF440220095CDE9C4
:103594000132ADF80C30ACB9154802F085F90A20B7
:1035A400FFF7D2FF6946124802F0CAF940F22551EA
:1035B4000F48012202F034FA01210D4802F024FAE6
:1035C40005B030BD022CFBD10A4802F06DF90A2087
:1035D400FFF7BAFF6946074802F0B2F940F22551F5
:1035E4000448012202F01CFA01210248E6E700BF68
:1035F400003801400048004001460020FFF7BCBFEE
:10360400014B5860704700BF10000020024B5868FF
:10361400B0FA80F04009704710000020431E0139C1
:1036240013F8012F11F8010F0AB18242F8D0131ACE
:10363400584258417047013810F8013F03B97047A8
:10364400A3F16102192A9CBF203B0370F4E7F0B593
:1036540002782D2A01D02B2A17D1A2F12D035A4228
:103664005A4101300378F3B100230A2702F10045DF
:10367400013D013810F8014F4CB91AB1B3F1004FB4
:1036840018BF5B4201200B60F0BD0022EAE7303C2A
:10369400E6B2092E07D82E1BB6FBF7F69E4202D3DC
:1036A40007FB0343E6E70020EEE7431C07D0044B87
:1036B400044A002808BF1A461046FFF7BABE7047EE
:1036C400585D00085E5D000838B505460C4607489D
:1036D400FFF7AFFE2846FFF7ACFE2046FFF7E5FFF5
:1036E400BDE838400248FFF7A4BE00BF645D00088F
:1036F4009E5D000870B500240126124D2146204627
:10370400C5E90044AE60FFF713FD21463046FFF7DC
:103714000FFD21462046EC6000F020FA00B9AC60B1
:10372400002101202C6100F019FA28B9A86006488C
:10373400BDE87040FFF77DBEAB68002BF7D00348AF
:10374400F6E700BFA4010020735D0008695D00086E
:10375400002310B5054C6360236823B94FF0FF3193
:103764000348FFF7B1FF0123236010BDA40100202B
:10377400855D00082DE9F041A74E0D2834688CB012
:1037840002D00A2840F07481002C40F0C78073688E
:10379400002B00F0C38033441C75337DEF2B7DD1A7
:1037A400737DBB2B7AD19D4AB17DD31EBF2908BF3F
:1037B40013469B4A1D78002D72D1AC46984B157068
:1037C4000DF1100E1A46194608780B460F460131C2
:1037D40008B12C28F8D19342114607D912F8018B6D
:1037E400B8F1200FF7D0B8F1090FF4D0B9423A4636
:1037F40007D217F8018DB8F1200FF7D0B8F1090FEF
:10380400F4D001354EF8041B002858D11070049FE1
:103814003846FFF710FF012D5BD13B78002B7DD09C
:103824004FF0FF3438467F49FFF7F8FE002840F098
:103834003C8138467C49FFF7F1FE002840F03A818C
:1038440038467A49FFF7EAFE002859D0621C54D062
:10385400032D52D1069D76492846FFF7ECFE2846F3
:10386400FFF7DCFE074628B928467249FFF7D6FE63
:10387400002842D039462046FFF75AFC6E48FFF72D
:10388400D8FD2046FFF711FF6C48FFF7D2FD28460C
:10389400FFF7CFFD6A48FFF7CCFD3FE0604B88E7B8
:1038A400EF2D0AD15978BC2907D199788C2904D1F4
:1038B4002C25033302F8015B7CE70133FAE7082D7A
:1038C40003F801CB82F800C07FF47CAF4FF0FF35E2
:1038D4009DE7DDF814805B494046FFF7ACFE4046A7
:1038E400FFF79CFE38B940465749FFF797FE041E80
:1038F40008BF4FF0FF34691C94D1214653480BE0B4
:1039040038465349FFF78AFE70B938465149FFF7E4
:1039140085FE48B921465048FFF7D6FE00233360A0
:1039240073600CB0BDE8F081631CE6D0B36813B9D2
:1039340021464A48F0E738464649FFF76FFE0746F6
:1039440000283BD0032DD8D169460698FFF77FFEA7
:103954000028D2D0009901290D46CED8A3003344C3
:1039640039B9D960204600F0F9F840B921463C48FD
:10397400D2E7DB68002BF5D121463A48CCE73A4838
:10398400FFF757FD3348FFF754FD2046FFF78DFE40
:103994002A48FFF74EFD00230A248DF80F300B232D
:1039A40001A8B5FBF4F104FB1152013B30321A5467
:1039B4002A46092A0D46F4D8184469E7062D9CD1F5
:1039C4000DF1140801AD694658F8040FFFF73FFEE6
:1039D400002892D0009BB3F5806F02D32146234880
:1039E4009AE70137042F25F8023BECD1002306EBBC
:1039F4008405204601A9EB6000F0ACF80028B5D09E
:103A040001231948EB60FFF714FD1148FFF711FD7E
:103A14002046FFF74AFE3DE7A4010020BB01002039
:103A2400B8010020B35D0008B85D0008D25D00084D
:103A3400C05D0008C75D0008CF5D0008075E000890
:103A44009E5D0008A15D0008A65D0008AB5D00084E
:103A5400D65D0008D95D0008E05D0008E85D000857
:103A6400FE5D0008F45D0008055E0008095E0008BC
:103A7400002C7FF456AF082801D07F2805D1736845
:103A8400002B3FF44EAF013B4AE77368002808BFA0
:103A94003F205F2B04D10CB0BDE8F041FFF758BEC6
:103AA4005A1C3344726018753BE7012D7FF425AF2F
:103AB4000348F0E6012D7FF420AF0248EBE600BF97
:103AC4008E5D0008955D00082DE9F8430F46144605
:103AD4001D4680460226FE2000F018FA832000F0DE
:103AE4001BFA3946002000F01DFA2146012000F09F
:103AF40019FA174BAF1E03EB880804F101090635C8
:103B040018F8011B304600F00DFA37F8020F00F0E8
:103B140031FA0146701C00F005FA022C06D13888EF
:103B240000F02AFA0146B01C00F0FCF9AF424E4402
:103B3400E6D1A01C800000F0FBF900F0D3F900F0FE
:103B4400DFF901288CBF00200120BDE8F88300BF05
:103B54003C5D00080B4602221E21B5E707B589B279
:103B6400ADF80010ADF80210ADF80410ADF8061071
:103B74006B4601221821FFF7A7FF03B05DF804FB91
:103B840007B50121182001F0BFF84FF470410E4829
:103B940000F048FD4FF440410C4800F043FD01A8FB
:103BA40000F027FD0A4B01A90748019300F0D3FC5C
:103BB4004FF44043054801A9ADF8043000F0CBFCB4
:103BC40003B05DF804FB00BF000C0140001001408D
:103BD40000F00210F8B50F4698B94FF400554FF4B1
:103BE40080460B4C46EA0501204689B200F01AFDD6
:103BF400002F0CBF314629462046BDE8F84000F0AE
:103C040013BD4FF480454FF40046024CEAE700BF71
:103C1400000C0140001001407047FEE7FEE7FEE79C
:103C2400FEE7704770477047FFF782BC70477047E4
:103C340070477047704770477047704770477047C8
:103C440070477047704770477047704770477047B8
:103C540070477047704770477047704770477047A8
:103C640070477047FFF742BB704770477047704713
:103C74007047704770477047FFF704BC7047FFF701
:103C840019BC70477047704770477047704770475A
:103C94007047704770477047704770477047704768
:103CA4007047704770477047704708B50846FFF77C
:103CB400A3FC012008BDFFF73FBBFFF743BB70B572
:103CC40006460C460025EBB2A34205F1010501DBD3
:103CD400204670BDF05CFFF751FBF4E7F8B50746EA
:103CE4000D460026F4B2AC4202DB2C462046F8BD59
:103CF400FFF730FB01360028F8D0FFF761FB385599
:103D0400F0E73220FFF77CBCFFF780BC08B5074B17
:103D1400013193FBF1F1FFF7C8FF28B10120002224
:103D2400034B1860034B1A6008BD00BF80841E005B
:103D34000C00002018020020FFF7BDBF70B5274C0F
:103D44002368012B0BD00123E2792360931EDBB29D
:103D5400962B05D90422224B1A600023236070BDE0
:103D6400237A591E052901D9832BF3D1FF2323710B
:103D74006371002319461B4810F8015F0131C9B271
:103D84002B448A42DBB2F7D2DB432244D371A379BA
:103D9400FE2B01D0FFF791FF0026E5791248043588
:103DA400EDB2294684F8A46084F8A560C4F8A8603C
:103DB400FFF785FFC0B28542094D03D00223266078
:103DC4002B60CCE7237A022B0ABFA07A06200630A8
:103DD400FFF797FF00232B60C1E700BF1802002004
:103DE4000C0000201D0200201C02002073B53A4C78
:103DF4002368EBB1A379394DFE2B04D101232B6049
:103E04000023236014E0FFF77FFF064630B1D4F8A7
:103E1400A830002B0CBF06230723F0E701210DF186
:103E24000700FFF75BFF012804D9032326602B60FA
:103E340002B070BD05232B600028F9D00123C4F81B
:103E4400A83094F8A5309DF80710012B0BD8FF2952
:103E540001BF5A1C1B1984F8A52083F8AC1018BFA5
:103E640084F8A560E4E7022B01D1FF29E0D05A1CB5
:103E7400D2B22344042A84F8A52083F8AC1023D1B9
:103E840094F8AE10A37999420BD194F8AF30991EEF
:103E94003C2906D8217A022905D1A17A02318B4224
:103EA40001D00723ABE7043384F8A43094F8A410BA
:103EB4008A42BDD3002302220948914207DCFF2B2A
:103EC40014BF072301239AE7032AEFD8B0E7165C4F
:103ED40001323344DBB2F0E7180200200C0000206A
:103EE400C402002010B5054CFFF728FF236823B94E
:103EF400FFF77CFF2368052BFAD010BD0C000020CF
:103F0400014B1868704700BF0C000020014B9871EA
:103F1400704700BF18020020014B1872704700BFA1
:103F240018020020014B0344597270471802002004
:103F3400014BD871704700BF18020020034B93F85F
:103F4400B0301840003818BF012070471802002014
:103F5400014B93F8AF00704718020020024B034452
:103F640093F8B100704700BF1802002000EB012055
:103F740080B27047C0B27047C0F307207047054B4A
:103F84001A6802B1FEE701221A7202229871DA71EC
:103F9400FFF7A8BF1802002010B5084C236803B12E
:103FA400FEE7022323720123A3720423A07161722A
:103FB400E371FFF797FF94F8B10010BD18020020D9
:103FC40010B4074B1C6804B1FEE798719A72032081
:103FD400042218725972DA7110BCFFF783BF00BF54
:103FE4001802002010B5084C236803B1FEE7022331
:103FF4002372A3720423A0716172E371FFF772FF4D
:10400400B4F8B10010BD00BF1802002010B4084B72
:104014001C6804B1FEE79A72C2F307229871DA723F
:104024000320052218725972DA7110BCFFF75ABFC7
:1040340018020020044B1A6802F038021A601A6849
:1040440002431A60704700BF00200240044B1A6804
:1040540022F008021A601A6802431A60704700BF0F
:1040640000200240044B1A6822F010021A601A68F9
:1040740002431A60704700BF00200240034B044A09
:104084005A6002F188325A60704700BF0020024033
:1040940023016745024A136943F0800313617047A3
:1040A40000200240014BD86980087047002002407C
:1040B400014B186A704700BF00200240024BD869C8
:1040C400C0F34000704700BF00200240024B186854
:1040D400C0F34010704700BF00200240044B1A692F
:1040E40011B102431A61704722EA0002FAE700BFE5
:1040F400002002400128064B03D1D86900F00100DA
:104104007047DB681840003818BF0120704700BFB3
:1041140000200240014BD860704700BF00200240DD
:10412400084BDA68D10709D4DA68520708D4DB6887
:1041340013F0100F0CBF04200320704701207047B8
:10414400022070470020024073B504460025FFF7A3
:10415400E7FFFF2601280FD114B9052002B070BD76
:1041640001950196019B1BB9FFF7DAFF013CF1E7CA
:10417400019B013B0193F5E7002C08BF0520EDE707
:1041840038B5054640F6FF70FFF7DEFF042813D16B
:104194000A4C40F6FF70236943F002032361656112
:1041A400236943F040032361FFF7CEFF236923F023
:1041B4000203DB04DB0C236138BD00BF0020024096
:1041C40040F6FF7010B5FFF7BFFF042812D10A4C68
:1041D40040F6FF70236943F004032361236943F02D
:1041E40040032361FFF7B0FF236923F00403DB04DA
:1041F400DB0C236110BD00BF0020024040F6FF70BD
:1042040010B5FFF7A1FF042829D1154C154B40F632
:10421400FF70A36003F18833A360236943F0200394
:104224002361236943F040032361FFF78DFF0428D2
:1042340023690FD1A52223F02003DB04DB0C2361C7
:1042440023690F2043F010032361074B1A80FFF703
:104254007BFF236923F01003DB04DB0C236110BD17
:10426400002002402301674500F8FF1F70B5064691
:104274000F200D46FFF768FF042816D10B4C0F20C2
:10428400236943F001032361ABB23380FFF75CFF82
:10429400042804D12D0C0F207580FFF755FF2369E6
:1042A40023F00103DB04DB0C236170BD002002401A
:1042B40070B505460F200E46FFF746FF04280ED1C1
:1042C400074C0F20236943F0010323612E80FFF77D
:1042D4003BFF236923F00103DB04DB0C236170BD86
:1042E4000020024070B505460F200E46FFF72CFF54
:1042F400042813D10A4C0B4B0F20A36003F188331D
:10430400A360236943F0100323612E80FFF71CFF91
:10431400236923F01003DB04DB0C236170BD00BFB1
:10432400002002402301674510B504460F20FFF723
:104334000BFF042836D1E4431E4B1F4AE1B29A60B6
:1043440002F188329A601A69FF2942F010021A6158
:104354001AD1C4F30723FF2B06D0184A0F20538128
:10436400FFF7F2FE042816D1C4F30743FF2B06D04F
:10437400124A0F209381FFF7E7FE04280BD1240E85
:10438400FF2C10D1042006E00C4B0F201981FFF7FD
:10439400DBFE0428DDD0074A136923F01003DB0495
:1043A400DB0C136110BD054BA4B2DC810F20FFF7B9
:1043B400CBFEF0E7002002402301674500F8FF1F11
:1043C40038B5054640F6FF70FFF7BEFE04282CD131
:1043D400174C184B40F6FF70A36003F18833A360B9
:1043E400236943F020032361236943F040032361DD
:1043F400FFF7AAFE41F6DF722369042803EA0203E9
:10440400236112D1236943F0100323610A4B6DB178
:1044140000221A8040F6FF70FFF796FE044A1369E3
:1044240023F01003DB04DB0C136138BDA522F0E795
:10443400002002402301674500F8FF1FF8B5114D25
:10444400114B0646AB6003F188330F20AB600C467A
:104454001746FFF779FE042812D12B693E4343F037
:1044640010032B613443094B44F0F8045C800F20A3
:10447400FFF76AFE2B6923F01003DB04DB0C2B61CE
:10448400F8BD00BF002002402301674500F8FF1F6C
:1044940008B5294B984237D00CD8A3F5006398424D
:1044A40024D003F58063984227D0A3F50063984293
:1044B40012D008BD214B98422DD003F58063984259
:1044C40030D0A3F500639842F3D10121402000F0DD
:1044D40033FC0021402005E00121042000F02CFCE5
:1044E40000210420BDE8084000F026BC012108207A
:1044F40000F022FC00210820F4E70121102000F044
:104504001BFC00211020EDE70121202000F014FC09
:1045140000212020E6E70121802000F00DFC00218D
:104524008020DFE701214FF4807000F005FC0021BA
:104534004FF48070D6E700BF00140140001C014016
:10454400012108B5084600F0F7FBBDE8084000214A
:10455400012000F0F1BBCB78F0B503F00F04DB06CB
:1045640044BF8B781C430B78D3B1002201274FF052
:104574000F0C03680E8807FA02F535EA06060BD11C
:10458400CE78282E31D1456195000CFA05F623EA40
:10459400060304FA05F52B430132082AEAD1036025
:1045A4000B88FF2B20D9002301274FF00F0C4568FF
:1045B4000E8803F1080207FA02F232EA06060FD166
:1045C400CE78282E08BF4261CE78482E08BF0261FB
:1045D4009A000CFA02F625EA060504FA02F21543DB
:1045E4000133082BE4D14560F0BD482ECCD10561E0
:1045F400CAE74FF6FF73038040F2024343807047DB
:1046040080680840003818BF01207047806880B275
:104614007047C0680840003818BF01207047C06860
:1046240080B2704701617047416170470AB101610E
:10463400704741617047C160704741F480338361C2
:1046440081618361836983697047054A136823F034
:104654007F031B041B0C0B4343EA001313607047D6
:1046640000000140014BD861704700BF00002042A8
:1046740030B5134A00F44015B5F5401F536884B2B1
:104684000DD1556823F0706325F07065556019B13C
:10469400400D000184402343094A536030BDC202E7
:1046A4004DBF0322420D1201C0F303454CBFAA4083
:1046B40004FA02F223EA020343F07063E7E700BF5F
:1046C4000000014010B50F2401F0030301F0FC01C8
:1046D40001F1804101F580318A689B009C4022EA07
:1046E40004028A608A6898401043886010BD00BF45
:1046F4006FF070434FF0FF31094AC2F88010C2F8DE
:104704008430C2F88011C2F884310023184603F1C2
:10471400C00101330F2B42F82100F8D1704700BFCC
:1047240000E100E04FF02062084B09495A60002282
:104734009A60D9601A615A619A61DA611A625A629E
:104744004FF0FF329A62DA621A63704700ED00E0BC
:104754000000FA05034B40F0BF6040F40030D8601D
:10476400704700BF00ED00E0C37830B5027873B342
:104774001C4B0F25D9684478C943C1F30221C1F108
:1047840004039C40837825FA01F10B402343FF2462
:1047940002F0030102F0FC0202F1604202F5614200
:1047A400D2F80053C9001B018B406B4004FA01F19D
:1047B4000B406B40C2F8003301220378590903F01F
:1047C4001F0302FA03F3084A42F8213030BD0121E5
:1047D400530902F01F0201FA02F20349203341F89F
:1047E4002320F3E700ED00E000E100E00023037084
:1047F40043708370C370704701F01DBA01F01DBA95
:1048040001F01DBA01F01DBA000101F01CBA01F05B
:104814001DBA024B5868C0F30930704700ED00E040
:10482400012300F01F0293404009044A403052F82B
:10483400202093430CBF01200020704700E100E0DA
:104844004FF0E023C3F8000F7047012243090449E5
:1048540000F01F008240603341F82320704700BFFE
:1048640000E100E0024B5868C0F30900704700BF44
:1048740000ED00E0012300F01F0293404009044AC8
:10488400803052F8202093430CBF01200020704751
:1048940000E100E0014B1868704700BF00ED00E044
:1048A40021F06041024B21F07F0101439960704780
:1048B40000ED00E0014B024ADA60704700ED00E0D1
:1048C4000400FA05014B024ADA60704700ED00E08B
:1048D4000100FA05044B1A6911B102431A617047C9
:1048E40022EA0002FAE700BF00ED00E0012200F036
:1048F4001F00054B824019B1596A0A435A62704736
:10490400596A21EA0202F9E700ED00E010B5114B03
:10491400DB68DB43C3F30223C3F10404A140FF2497
:1049240024FA03F31340C0F30122C0F38110800082
:1049340000F1604000F56D400B43D2008169944062
:1049440021EA0401816181691B0193400B43836166
:1049540010BD00BF00ED00E00123054AC0F3832031
:10496400526A834093430CBF01200020704700BF6C
:1049740000ED00E00123044A00F01F005168834069
:104984000B435360704700BF00ED00E00123044A6D
:1049940000F01F005168013883400B435360704797
:1049A40000ED00E00123054AC0F38330526A8340DE
:1049B40093430CBF01200020704700BF00ED00E0CE
:1049C40010F4402F0A4AC0F3814301D1D06A7047E2
:1049D400012B0AD1C0F30153906ADA00D040022BB4
:1049E40014BF00F00F00C0B27047106B704700BFD7
:1049F40000ED00E0034B10F4800F0CBF586B986B74
:104A0400704700BF00ED00E008B501214FF0805071
:104A140000F09EF9BDE8084000214FF0805000F0FE
:104A240097B9014B1862704700000E42014B1861A0
:104A3400704700BF00000E42034A136823F0E003EE
:104A440003431360704700BF00700040014BC3F87C
:104A5400A000704700000E420A4A0129136823F09F
:104A6400030343EA000313604FF0E022D2F8103D41
:104A740043F00403C2F8103D01D101F0B7B801F0CE
:104A8400B7B800BF00700040094B1A6842F0040236
:104A94001A601A6842F002021A604FF0E022D2F85B
:104AA400103D43F00403C2F8103D01F09FB800BF6D
:104AB40000700040034B5B681840003818BF0120A9
:104AC400704700BF00700040024A136843EA800345
:104AD40013607047007000400C4B1A6842F00102EA
:104AE4001A6059680A4A0A405A601A6822F08472A5
:104AF40022F480321A601A6822F480221A605A68FA
:104B040022F4FE025A6000229A60704700100240AC
:104B14000000FFF80C4BB0F5803F1A6822F4803295
:104B24001A601A6822F480221A6003D0B0F5802F2C
:104B340005D070471A6842F480321A6070471A68C8
:104B440042F4A022F9E700BF00100240034A1368B0
:104B540023F0F80343EAC0031360704700100240D7
:104B6400014B1860704700BF00004242034A53687B
:104B740023F47C130B431843506070470010024029
:104B8400014B1866704700BF00004242034A536855
:104B940023F0030303435360704700BF0010024037
:104BA400024B586800F00C00704700BF0010024030
:104BB400034A536823F0F00303435360704700BF74
:104BC40000100240034A536823F4E0630343536034
:104BD400704700BF00100240034A536823F4605337
:104BE40043EAC0035360704700100240044B5A7AF2
:104BF40011B102435A72704722EA0002FAE700BF79
:104C040000100240014BC3F8D80070470000424234
:104C1400034A536823F4404303435360704700BF7F
:104C2400001002400022084B012883F8202083F85A
:104C3400202002D0042803D0704783F82000704756
:104C4400052283F82020704700100240014BC3F86E
:104C54008004704700004242024A136A034313620D
:104C6400704700BF00100240014BC3F83C0470477A
:104C74000000424210B51A4A536803F00C03082B93
:104C84002CD153685168C3F38343CC0303F102036B
:104C94001FD414494B43036054681349C4F30314E9
:104CA4000C5DE34043605468C4F302240C5D23FAB2
:104CB40004F484605468C4F3C2240C5DE340C3600C
:104CC4005268C2F3813211440A7CB3FBF2F30361EC
:104CD40010BD51688903DCD40449DBE7034BDAE7F0
:104CE4000010024000093D00445D000800127A00F3
:104CF400044B5A6911B102435A61704722EA000217
:104D0400FAE700BF00100240044B9A6911B1024354
:104D14009A61704722EA0002FAE700BF00100240DD
:104D2400044BDA6911B10243DA61704722EA0002E6
:104D3400FAE700BF00100240044BDA6811B10243E5
:104D4400DA60704722EA0002FAE700BF001002406E
:104D5400044B1A6911B102431A61704722EA000236
:104D6400FAE700BF00100240014BC3F8400470474B
:104D740000004242014BD864704700BF0000424229
:104D8400014BD871704700BF001002404209012A4C
:104D9400074B07D11B6800F01F0023FA00F000F056
:104DA40001007047022A0CBF1B6A5B6AF3E700BF6D
:104DB40000100240002307B501933120FFF7E6FFFE
:104DC400019B0133019318B9019BB3F5A06FF4D192
:104DD400312003B05DF804EBFFF7D8BF024A536AF1
:104DE40043F080735362704700100240034B9B688A
:104DF4001840003818BF0120704700BF001002405F
:104E0400014B9872704700BF001002404FF0E0233E
:104E14001A6904280CBF42F0040222F004021A6149
:104E240070474FF0E0235861704701284FF0E023AA
:104E340004D11A6942F001021A617047023003D1A9
:104E44001A6922F00102F7E700229A6170474FF0D5
:104E5400E0231A6918B142F002021A61704722F085
:104E64000202FAE74FF0E02398697047C308022B67
:104E74004FF0E0230CBF1B69DB6923FA00F000F05C
:104E84000100704730B5048C42EA031224F0010497
:104E94002404240C0484048B058C24F0F304ADB2A4
:104EA4002404240C25F0020514432943A4B241F040
:104EB40001010483018430BD30B5048C120224F056
:104EC40010042404240C0484058B048C25F44075FC
:104ED400A4B22D0524F020042D0D42EA033244EA45
:104EE40001141543A4B2ADB244F010040583048444
:104EF40030BD08B5304B98424DD016D8A3F50063A9
:104F0400984241D007D8B0F1804F2CD0A3F58063EC
:104F1400984232D008BD294B9842FBD10121082088
:104F2400FFF716FF0021082023E0254B98420ED0FE
:104F340003F50063984235D0A3F590339842E9D144
:104F440001212020FFF704FF0021202011E001218E
:104F54004FF40060FFF7F0FE00214FF40060BDE85D
:104F64000840FFF7E9BE01210846FFF7F1FE0021E2
:104F74000120BDE80840FFF7EBBE01210220FFF746
:104F8400E7FE00210220F4E701210420FFF7E0FE00
:104F940000210420EDE701211020FFF7D9FE0021B4
:104FA4001020E6E701214FF40050FFF7C5FE002171
:104FB4004FF40050D3E700BF00100040000C004045
:104FC400002C0140038810B503F08F030380CB88C5
:104FD4004C880288234313439BB203808B888385C8
:104FE4000B88038501238382044B984203D003F585
:104FF4000063984201D10B7A038610BD002C014056
:10500400038C30B523F001031B041B0C0384038CB5
:105014008288048B0D8824F070042404240C23F06B
:1050240002032C431B040D891B0C2B434D8892B2A5
:105034002B43CD8885860D4DA84203D005F5006528
:10504400A8420FD14D8923F008032B438D8823F008
:10505400040322F440722B4352048D89520CC989F3
:105064002A430A4382800483038430BD002C014018
:10507400038C70B523F010031B041B0C0384038CF6
:105084008488028B0D8822F4E0421204120C4E88AC
:1050940042EA052223F020030D891B0435431B0C2F
:1050A40043EA0513CD88A4B20587114D92B2A842F4
:1050B4009BB203D005F50065A84215D14D8923F0B4
:1050C400800343EA05134FF6BF751D408B8824F413
:1050D400406445EA0315ABB28D89C9896404640C44
:1050E400294344EA8104A4B284800283038470BD0A
:1050F400002C0140038C70B523F480731B041B0C3B
:105104000384038C8288848B0D8824F07004240427
:10511400240C4E882C4323F400730D891B0435435F
:105124001B0C43EA0523CD8892B28587104D9BB2B0
:10513400A84203D005F50065A84215D14D8923F492
:10514400006343EA05234FF6FF351D408B8822F4A4
:10515400405245EA0325ABB28D89C9895204520CE9
:10516400294342EA011292B282808483038470BD8F
:10517400002C0140038C70B523F480531B041B0CDA
:105184000384038C8488828B0D8822F4E042120409
:10519400120C4E8842EA052223F400530D891B04A5
:1051A40035431B0C43EA0533CD88A4B2A0F8405024
:1051B400094D92B2A8429BB203D005F50065A842FE
:1051C40005D18989C4F30D0444EA8114A4B284800E
:1051D4008283038470BD00BF002C01404A880B8881
:1051E40013438A881343CA8813430A8913434A8999
:1051F40013438A8913439BB2A0F8443070474FF697
:10520400FF73838000230380C3804380037270474D
:105214000023038043808380C3800381438183818F
:10522400C381704700230122038043808280C380AE
:10523400038170470023038043808380C3800381FC
:10524400438183817047038821B19BB243F00103FA
:105254000380704723F001039B059B0DF8E7B0F82A
:10526400443039B16FEA43436FEA53439BB2A0F829
:1052740044307047C3F30E03F9E783899BB212B13C
:1052840019438181704723EA0101FAE7818270475B
:105294001143A0F848107047FFF7EFBF038923F0CC
:1052A40007031B041B0C03817047038923F070035D
:1052B4001B041B0C1943018103899BB243F00703B0
:1052C4000381704738B50D46602D114604464FF0F2
:1052D40001020ED1FFF7F0FD238923F070031B04B4
:1052E4001B0C1D43258123899BB243F007032381B3
:1052F40038BDFFF7C7FDEFE710B5048942EA032282
:10530400E4B211430C43A4B2048110BD10B5FFF7FD
:10531400F3FF038923F070031B041B0C43F0770392
:10532400038110BD10B5FFF7E7FF03899BB243F477
:105334008043038110BD018582827047038823F076
:1053440070039B059B0D0B4303807047038923F077
:1053540070031B041B0C0B430381704770B5068953
:10536400048B058C24F4407424F0030425F02205F6
:1053740026F0070624042D043604240C2D0C42EADE
:105384000312360C44F4807415430E4344F00104B4
:10539400ADB206810483058470BD038B23F07003D2
:1053A4001B041B0C0B4303837047038B23F4E04360
:1053B4001B041B0C43EA01239BB203837047838BBA
:1053C40023F070031B041B0C0B4383837047838BF4
:1053D40023F4E0431B041B0C43EA01239BB28383A5
:1053E4007047038821B19BB243F080030380704768
:1053F40023F080039B059B0DF8E7838821B19BB2C2
:1054040043F004038380704723F004031B041B0C44
:10541400F8E7838821B19BB243F008038380704787
:1054240023F008031B041B0CF8E7838821B19BB20B
:1054340043F001038380704723F001031B041B0C1A
:10544400F8E7038B23F008031B041B0C0B430383B3
:105454007047038B23F400631B041B0C43EA0123F2
:105464009BB203837047838B23F008031B041B0C3C
:105474000B4383837047838B23F400631B041B0C4F
:1054840043EA01239BB283837047038B23F0040315
:105494001B041B0C0B4303837047038B23F48063AF
:1054A4001B041B0C43EA01239BB203837047838BC9
:1054B40023F004031B041B0C0B4383837047838B6F
:1054C40023F480631B041B0C43EA01239BB28383F4
:1054D4007047038B23F080031B041B0C0B430383D3
:1054E4007047038BC3F30E0343EA01239BB2038388
:1054F4007047838B23F080031B041B0C0B438383B3
:105504007047838BC3F30E0343EA01239BB2838367
:105514007047038C23F002031B041B0C0B4303840E
:105524007047038C23F008031B041B0C0B430384F8
:105534007047038C23F020031B041B0C43EA011364
:105544009BB203847047038C23F080031B041B0C61
:1055540043EA01139BB203847047038C23F4007362
:105564001B041B0C43EA01239BB203847047038C86
:1055740023F400631B041B0C43EA01239BB2038442
:105584007047038C23F400531B041B0C43EA0133C0
:105594009BB20384704710B50124038C8C409BB2EA
:1055A40023EA04030384038C8A401A4392B20284DC
:1055B40010BD10B50424038C8C409BB223EA040371
:1055C4000384038C8A401A4392B2028410BD10B53E
:1055D4000124038C8C409BB223EA0403038421F04E
:1055E4000803183053B94908435823F070031B04C7
:1055F4001B0C435043581343435010BD0439C1F3AB
:105604004E014358120223F4E0431B041B0C435085
:10561400435892B21A434250EFE7038821B19BB238
:1056240043F002030380704723F002039B059B0DA4
:10563400F8E7038821B19BB243F004030380704769
:1056440023F004039B059B0DF8E7838821B19BB2EB
:1056540043F080038380704723F080031B041B0CFA
:10566400F8E7038823F008039B059B0D0380038858
:105674009BB20B4303807047838823F070031B04A1
:105684001B0C838083889BB20B4383807047038900
:1056940023F007031B041B0C038103899BB20B43F8
:1056A40003817047038923F080031B041B0C0381CF
:1056B40003899BB20B4303817047818470478185C2
:1056C4007047818670470187704781877047A0F8CB
:1056D40040107047038B23F00C031B041B0C038343
:1056E400038B9BB20B4303837047038B23F4406308
:1056F4001B041B0C0383038B9BB243EA01239BB261
:1057040003837047F8B50C464988A288B1FA81F33F
:1057140027885B09012A4FEA430514BF01260226A4
:10572400238977B9FFF7AEFBE188FFF7D3FF324651
:1057340029462389FFF7C0FBE188BDE8F840FFF75D
:10574400D4BFFFF7B9FBE188FFF7CFFF3246294604
:105754002389FFF797FBE188BDE8F840FFF7BABF5C
:10576400838B23F00C031B041B0C8383838B9BB25E
:105774000B4383837047838B23F440631B041B0C0C
:105784008383838B9BB243EA01239BB28383704759
:10579400F8B50E460D88B2884988338935B9FFF7C4
:1057A40071FBF188BDE8F840FFF794BF042D06D1E2
:1057B400FFF782FBF188BDE8F840FFF796BF082D9C
:1057C400058C1CD125F480752D042D0C0584878B44
:1057D400058CBFB2ADB227F0F30725F4007545EA96
:1057E4000125174347EA0317ADB2BFB245F48075EC
:1057F40087830584F188BDE8F840FFF7B1BF25F43D
:1058040080552D042D0C0584878B058C27F4407757
:10581400ADB23F051B0325F4005543EA022345EAD4
:1058240001353F0D1F43ADB2BFB245F480558783A8
:105834000584F188BDE8F840FFF79DBF0388DBB21B
:10584400038003889BB20B4303807047808E80B231
:105854007047008F80B27047808F80B27047B0F875
:10586400400080B27047808C80B27047008D80B257
:105874007047038A01EA0300003818BF012070470B
:10588400C94389B201827047038A828911EA0300FD
:1058940092B203D01140081E18BF01207047C943BB
:1058A40089B20182704700BF08B5234B984231D0BA
:1058B40008D8A3F50063984217D003F58063984293
:1058C4001FD008BD1D4B98422DD003F56843984264
:1058D400F7D101214FF48040FFF72EFABDE80840CC
:1058E40000214FF48040FFF727BA01214FF4003024
:1058F400FFF72EFA00214FF40030BDE80840FFF70F
:1059040027BA01214FF48020FFF722FA00214FF437
:105914008020F2E701214FF40020FFF719FA00215B
:105924004FF40020E9E701214FF48010FFF710FA4B
:1059340000214FF48010E0E7004C0040005000408C
:1059440030B50446038ACA889BB223F440531343F8
:1059540087B0038283898A8823F4B05323F00C032D
:105964001B041B0C13430A890D4613434A89134332
:105974009BB28381838A8A899BB223F44073134345
:10598400838201A8FFF776F9DDE903320D498C42E1
:1059940008BF1346192253432A689200B3FBF2F35B
:1059A4006422B3FBF2F102FB11331B013233B3FB6C
:1059B400F2F303F00F0343EA01139BB2238107B010
:1059C40030BD00BF003801404FF416520023C0E937
:1059D40000234FF4402283818260704710B54C88C5
:1059E4000B88028A23438C88C98892B223430B43D1
:1059F40022F4706213439BB2038210BD0023038020
:105A040043808380C3807047838921B19BB243F470
:105A140000538381704723F400531B041B0CF8E7E5
:105A2400012310B5C1F34214012C01F01F0103FA44
:105A340001F305D10C3042B102681343036010BD79
:105A4400022C0CBF10301430F5E7026822EA03037D
:105A5400F4E7838A9BB212B119438182704723EA27
:105A64000101FAE7038A23F00F031B041B0C0382D2
:105A7400038A9BB2194301827047838923F400632C
:105A84001B041B0C838183899BB20B438381704766
:105A9400838921B19BB243F002038381704723F0D1
:105AA40002031B041B0CF8E7038A23F020031B04E6
:105AB4001B0C0382038A9BB20B4303827047038A45
:105AC40021B19BB243F480430382704723F48043A3
:105AD4001B041B0CF8E7C1F3080181807047808820
:105AE400C0F30800704783899BB243F001038381AC
:105AF4007047038BDBB20383038B9BB243EA01231E
:105B040003837047038B03F47F430383038B9BB2AC
:105B1400194301837047838A21B19BB243F0200368
:105B24008382704723F020031B041B0CF8E7838A4D
:105B340021B19BB243F010038382704723F010031A
:105B44001B041B0CF8E7838A21B19BB243F00803C2
:105B54008382704723F008031B041B0CF8E7838A35
:105B640023F004031B041B0C8382838A9BB20B4324
:105B740083827047838A21B19BB243F002038382FC
:105B8400704723F002031B041B0CF8E7038801EAA7
:105B94000300003818BF01207047C94389B201804F
:105BA400704703460120C1F3421210B5012A01F0E7
:105BB4001F0400FA04F00DD19A891B8892B2104098
:105BC4009BB230B10122090A8A401340181E18BF43
:105BD400012010BD022A0CBF1A8A9A8AEDE701231C
:105BE400090A8B40DB439BB20380704730BF704788
:105BF40020BF704740BF7047BFF36F8F7047BFF33C
:105C04004F8F7047BFF35F8F704701DF7047EFF32B
:105C14001480704780F31488BFF36F8F7047EFF3DD
:105C24000980704780F309887047EFF30880704754
:105C340080F30888704772B6704762B6704771B6D1
:105C4400704761B6704780F311887047EFF3128094
:105C5400704740BA704700BA70470000684620F0A9
:105C640007018D4601B50C4B0C4A0D498B420AD3F2
:105C740000210C4B0C4A93420AD300F017F8BDE8FC
:105C840001408546704752F8040B43F8040BEDE7D6
:105C940043F8041BEFE700BF00000020105E00087B
:105CA40010000020100000200C0300202DE9F0411A
:105CB400FDF740FAFDF780FAFDF7A2FAFDF760FF61
:105CC400FDF72CFCFDF7D4FA01210020FEF71EF8A5
:105CD400164B02205968FDF74FFC4FF00008FDF702
:105CE40009FD134F1348002240F22551FFF798FE97
:105CF40097F88D6187F88D81FDF736FBF6B204467F
:105D040088B1FDF76DFB0546012240F22551094893
:105D1400FFF786FE0EB1FDF71BFD002CE2D02846EE
:105D2400FDF728FDDEE70546EEE700BF0000002092
:105D340010000020004800401103020F0C0108105D
:105D4400000000000102030401020304060708091D
:105D5400020406082C61726D31002C61726D3200F0
:105D64004552522C0052454144592C340D0A0045E9
:105D740052522C494E49545F4641494C45440D0A00
:105D8400004F564552464C4F5700504F4E470D0A50
:105D94000056455253494F4E2C340D0A0041524D82
:105DA400310041524D32004241445F41524700505C
:105DB400494E470056455253494F4E004D4F5649A0
:105DC4004E470053544F50504544004F4B2C4C45C4
:105DD4004400415800544F52515545004241445FDC
:105DE400434D4400494E49545F4641494C454400A3
:105DF4004E4F5F5441524745540044584C5F5458E9
:0C5E0400004F4B2C0052414E474500005F
:105E10006400000000E1000040420F0001000000AB
:0400000508005C6132
:00000001FF
