:020000040800F2
:1030000000000120215E0008393D00083B3D00081A
:103010003D3D00083F3D0008413D00080000000024
:10302000000000000000000000000000453D000816
:10303000433D000800000000473D0008493D0008EE
:103040004D3D00084F3D0008513D0008533D00082C
:10305000553D0008573D0008593D00085B3D0008FC
:103060005D3D00085F3D0008613D00080000000074
:103070000000000000000000000000000000000050
:103080000000000000000000713D0008733D0008D2
:10309000753D0008773D0008793D00087B3D00083C
:1030A0007D3D00087F3D0008813D0008833D00080C
:1030B000853D0008893D00088B3D00088D3D0008D6
:1030C0008F3D0008913D0008933D0008953D0008A4
:1030D000973D0008993D00089D3D00089F3D000870
:1030E000A33D0008A53D0008A73D0008A93D000834
:1030F000AB3D0008AD3D0008AF3D0008B13D000804
:10310000B33D0008B53D0008B73D0008B93D0008D3
:10311000BB3D0008BD3D0008BF3D0008C13D0008A3
:10312000C33D0008C53D0008C73D0008C93D000873
:043130005FF8000044
:1031340010B501F0A7FD4FF4803001F0C1FD01F09E
:10314400DBFD0128044624D1102001F043F80220BD
:1031540001F028F8002001F017FE002001F028FEFD
:103164004FF4806001F01AFE4FF480304FF4E01108
:1031740001F0E8FD204601F0EFFD392001F0F4FEF6
:103184000028FAD0022001F0EDFD01F0F5FD082839
:10319400FBD1012144F2090001F0A4FE04480121FD
:1031A40001F0ACFEBDE81040012001F010BD00BFED
:1031B4000100040037B54FF440514FF0006001F0B6
:1031C40045FC4FF4A06001F099FB01240025252360
:1031D40001A88DF804308DF805508DF806508DF84F
:1031E400074001F095FB272301A88DF804308DF8E2
:1031F40005508DF806408DF8074001F089FB1C232B
:1032040001A88DF804308DF805408DF806408DF83E
:10321400074001F07DFB03B030BD37B501A801F0D4
:10322400BCFA3023ADF8043041F20303184C0425F2
:10323400204601A9ADF8063001F061FA4FF40863A5
:1032440020460DEB0501ADF804308DF8075001F070
:1032540056FA4FF48863ADF8043041F60303204670
:103264000DEB0501ADF8063001F049FA28460121BD
:1032740001F0D2FA0121074801F0CEFA20461021CC
:1032840001F0A6FA2021204601F0A0FA03B030BDD7
:10329400000C01400004300010B588B001A802F011
:1032A40088F804A802F08EF84FF0804001F0FBFE8D
:1032B40000244FF6FF7301A94FF08040ADF80830A9
:1032C400ADF80440ADF80A40ADF8064001F054FFF3
:1032D400012240F2D2214FF0804002F006F9104B57
:1032E40004A91B884FF08040ADF81630ADF81040AB
:1032F400ADF81240ADF8184001F05CFF21464FF0E4
:10330400804002F078F9012202214FF0804002F05F
:103314008EF801214FF0804002F06FF808B010BD24
:103324000000002010B502214FF0804002F08CFB19
:10333400C0B102214FF0804002F091FB4FF0804079
:1033440002F065FB084C094B206021681B884FF094
:103354008040194489B202F08DFA636813B163683E
:10336400013B636010BD00BF10000020000000207E
:103374000021014802F028BC003801400022024B21
:103384001A725A72704700BF10000020034B187A5B
:103394005B7AC01A18BF0120704700BF10000020DC
:1033A400034B987ADB7AC01A18BF0120704700BF1C
:1033B4001000002010B5044620210E4801F008FA40
:1033C40010210C4801F002FA21460B4802F062FC7D
:1033D400094C4021204602F0B8FC0028F9D0102105
:1033E400044801F0F5F9BDE810402021014801F03E
:1033F400EDB900BF000C014000380140064B197ABA
:103404005A7A9142FBD01A7A1A44107B1A7A013202
:10341400D2B21A72704700BF10000020074B997A8D
:10342400DA7A9142FBD09A7A1A4492F80C019A7A89
:10343400013202F07F029A72704700BF1000002030
:10344400014610B5054802F025FC044C40212046F5
:1034540002F07BFC0028F9D010BD00BF00480040FA
:1034640010B5441E14F8010F00B910BDFFF7E8FFB2
:10347400F8E7FFF7F5BF30B5041E85B005D130205D
:1034840005B0BDE83040FFF7DBBF03DA2D20FFF7BE
:10349400D7FF644201AA002315460A21B4FBF1F0C8
:1034A40001FB1044303402F8014B0133044608B1E7
:1034B4000B2BF3D15C1E285DFFF7C2FF013CFAD24F
:1034C40005B030BD08B540F22551084802F047FC6C
:1034D40050B1064802F0E2FB054BC0B2597A4A1CCF
:1034E400D2B25A720B44187308BD00BF00380140B1
:1034F4001000002010B540F22551164802F02FFCB0
:1035040008B3144802F0CAFB134BC0B293F88C21E1
:1035140032B10D2801D00A2815D1002283F88C215C
:10352400DA7A997A013202F07F0291420CD10124B5
:1035340083F88D41D97A0D28C9B2997204D00A282A
:1035440002D083F88C4110BDD97A194481F80C015A
:10355400DA72F8E7004800401000002008B542F293
:10356400283001F038FDBDE80840012001F049BDD4
:10357400044BD3F8902122B1D3F89021013AC3F837
:10358400902170471000002010B50446012001F07E
:1035940026FD084BC3F89041D3F89041002CFBD191
:1035A4006FF0010001F01BFD2046BDE8104001F062
:1035B40016BD00BF1000002030B585B00446684633
:1035C4000D4602F0E1FA00234FF440220095CDE9C4
:1035D4000132ADF80C30ACB9154802F045FA0A20B6
:1035E400FFF7D2FF6946124802F08AFA40F22551E9
:1035F4000F48012202F0F4FA01210D4802F0E4FA26
:1036040005B030BD022CFBD10A4802F02DFA0A2085
:10361400FFF7BAFF6946074802F072FA40F22551F3
:103624000448012202F0DCFA01210248E6E700BF67
:10363400003801400048004001460020FFF7BCBFAD
:10364400014B5860704700BF10000020024B5868BF
:10365400B0FA80F04009704710000020431E013981
:1036640013F8012F11F8010F0AB18242F8D0131A8E
:10367400584258417047013810F8013F03B9704768
:10368400A3F16102192A9CBF203B0370F4E7F0B553
:1036940002782D2A01D02B2A17D1A2F12D035A42E8
:1036A4005A4101300378F3B100230A2702F100459F
:1036B400013D013810F8014F4CB91AB1B3F1004F74
:1036C40018BF5B4201200B60F0BD0022EAE7303CEA
:1036D400E6B2092E07D82E1BB6FBF7F69E4202D39C
:1036E40007FB0343E6E70020EEE7F8B51C230025BB
:1036F40001270A4C0A4E03FB004406EB800614F82B
:10370400013B33B901221821705D00F00DFD04F86E
:10371400017C0135042DF2D1F8BD00BFA4010020C5
:10372400A860000838B505460C460A48FFF7A1FE14
:103734002846FFF79EFE631C06D00748074B002C63
:1037440018BF1846FFF795FEBDE838400448FFF758
:1037540090BE00BFD2600008CC600008CF600008B3
:10376400FC6000082DE9F0410C460646FFF7BDFF5A
:10377400FE2000F07FFC832000F082FC1E2100204C
:1037840000F084FC0221012000F080FC02251D4F82
:10379400A4F1020807EB8607284617F8011B00F07E
:1037A40075FC38F8020F00F099FC0146681C00F023
:1037B4006DFCB8F8000000F093FC0146A81C03352A
:1037C40000F064FC0E2DE7D1102000F065FC00F041
:1037D4003DFC00F049FC012806D90B483146FFF7AF
:1037E400A1FF0020BDE8F0811C20084B228800FBCB
:1037F400063082806388C380A3880381E388438181
:103804000120EFE7A8600008D7600008A4010020A9
:10381400F0B507460D461F4885B01C461646FFF70F
:1038240028FE3846FFF725FE6B1C06D01A481B4BB2
:10383400002D18BF1846FFF71CFE26B31848FFF7E3
:1038440018FE00230B220A268DF80F3084EAE47355
:10385400A3EBE47301A8B3FBF6F506FB1531174699
:103864003031013A1154194609292B46F3D8002C5A
:1038740006DA2D2107F10E036B44BA1E03F80C1C63
:103884001044FFF7F6FD074805B0BDE8F040FFF728
:10389400F0BD00BFDE600008CC600008CF60000807
:1038A400E0600008FC60000808B50020FFF71DFF79
:1038B400BDE80840012018E700224FF00221094B1F
:1038C400C3E90E22C3E90111C3E90322C3E90522B6
:1038D400C3E90721C3E90912C3E90B221A605A6339
:1038E400704700BFA4010020002310B5054CE3631A
:1038F400A36B23B94FF0FF310348FFF713FF0123F4
:10390400A36310BDA4010020E26000082DE9F04F7C
:103914008B4D0D28AC6B8FB002D00A2840F0E181AA
:10392400002C6BD1EB6B002B68D02B4483F8404008
:1039340095F84030CDE90144EF2B33D195F841306F
:10394400BB2B2FD17F4B95F84210DA1CBF2908BF3F
:1039540013467C4A1E783EBBB4467A4B16700DF172
:10396400180E1A46194608780B460F46013108B15D
:103974002C28F8D19342114646D912F8018BB8F19C
:10398400200FF7D0B8F1090FF4D017F8019C7A1E74
:10399400B9F1200FB846174615D0B9F1090F12D066
:1039A400424612E0674BD4E7EF2E0AD15978BC297E
:1039B40007D199788C2904D12C26033302F8016BA2
:1039C400C8E70133FAE7B942DFD301364EF8041BE6
:1039D400E0B91070069F3846FFF74DFE012E1ED148
:1039E4003B785BB14FF0FF3438465749FFF736FE5A
:1039F40068B3012E28D15548FFF73BFD0023AB6384
:103A0400EB630FB0BDE8F08F1A46DEE7082E03F82B
:103A140001CB82F800C0A4D14FF0FF36DAE7DDF81D
:103A24001C804B494046FFF726FE4046FFF716FE32
:103A340040B940464749FFF711FE00280CBF4FF03C
:103A4400FF340124721CCFD1214643481FE038467D
:103A54004249FFF703FEE8B938464149FFF7FEFD46
:103A6400C0B938463F49FFF7F9FD98B938463E4991
:103A7400FFF7F4FD70B938463C49FFF7EFFD48B94C
:103A840038463B49FFF7EAFD20B921463948FFF79C
:103A940049FEB3E7631CD7D038463349FFF7DEFD50
:103AA400814640B3052ECFD1089801A9FFF7EFFD59
:103AB4000028C9D0099804A9FFF7E9FD0028C3D05C
:103AC4000A9803A9FFF7E3FD0028BDD0049B042B4B
:103AD400BAD103980028B7DD1C2101FB0451019BD6
:103AE4000122C1E904300020CA60886121461E48D1
:103AF400FFF78EFE82E738461D49FFF7AFFD80468B
:103B040000283BD0032E9FD1089801A9FFF7BFFDE1
:103B1400002899D01C2202FB0452D3683BB11369DC
:103B240001998B4203D1D2E90510884202D0214683
:103B34001148ACE7C2F80C90214601220C48D7E7A3
:103B4400A4010020E4010020F3600008F8600008EC
:103B5400CD600008D0600008EB600008FF6000083A
:103B640002610008076100080C6100081261000886
:103B74001561000819610008216100083846684988
:103B8400FFF76CFD20B938466649FFF767FD90B32F
:103B9400022E7FF459AF38466249FFF75FFD20B12A
:103BA4001C23002203FB0453DA601C260DF11009C8
:103BB400CA4606FB0456DFF868B10436594638464F
:103BC400FFF74CFDA0B936F8183008F10108B8F138
:103BD400040F29F8023BF1D151462046FFF7C2FDFC
:103BE40000283FF40BAF002321461A4638467FE7EE
:103BF4004FF40073E9E738464B49FFF72FFD0028DF
:103C040041D0082E7FF420AF089802A9FFF73FFDAA
:103C140000283FF419AF099803A9FFF738FD0028DD
:103C24003FF412AF1C2303FB0452D268002A3FF472
:103C34007EAF03FB04539A695B699A42BFF677AF80
:103C4400039B002BFFF673AF0DF1100B4FF004082C
:103C5400D946DFF8D4A051463846FFF7FFFCB8B187
:103C640043460EAA02EB8303694653F8200CFFF780
:103C74000EFD00283FF4E8AE009BB3F5806F0DD332
:103C840021462A4803E7032EDED0062EDCD0DBE6ED
:103C9400032E0CBF0223A8F10203E2E708F1010896
:103CA400B8F1080F2BF8023BD5D149462046FFF75F
:103CB40059FD00283FF4A2AE38461B49FFF7CEFC5D
:103CC400034650B11C2303FB04539A692146013275
:103CD4009A6115480122029B0AE7024621461448CC
:103CE40006E7002C7FF48DAE082801D07F2805D18B
:103CF400EB6B002B3FF485AE013B81E6EB6B0028B8
:103D040008BF3F205F2B04D10FB0BDE8F04FFFF791
:103D1400EBBD5A1CEA631D4485F8400071E600BF00
:103D24000261000807610008126100082A610008A6
:103D3400FF6000087047FEE7FEE7FEE7FEE7704716
:103D440070477047FFF714BC70477047704770475F
:103D540070477047704770477047704770477047A7
:103D64007047704770477047704770477047704797
:103D74007047704770477047704770477047704787
:103D8400FFF7D0BA70477047704770477047704765
:103D940070477047FFF796BB7047FFF7ABBB7047A0
:103DA4007047704770477047704770477047704757
:103DB4007047704770477047704770477047704747
:103DC40070477047704708B50846FFF735FC012077
:103DD40008BDFFF7CDBAFFF7D1BA70B50023054689
:103DE4000C465E1CDBB2A34201DB204670BDE85CDE
:103DF400FFF7E0FA3346F4E7F8B507460E46002429
:103E0400E5B2B54202DB35462846F8BDFFF7BEFAF7
:103E140001340028F8D0FFF7F1FA7855F0E764236D
:103E24005843FFF70DBCFFF711BC000008B5074B62
:103E3400013193FBF1F1FFF7C6FF28B10120002205
:103E4400034B1860034B1A6008BD00BF80841E003A
:103E54000C00002044020020FFF7BBBF70B5234CC8
:103E64002368012B09D001232360E379982B05D91A
:103E740004221F4B1A600023236070BD227A511E56
:103E8400052901D9832AF3D1FF222271627100220C
:103E94001146184810F8015B0131C9B22A448B421B
:103EA400D2B2F7D2D2430333114EDBB223441A7198
:103EB4003368063B012B01D8FFF78DFFE5790E48E7
:103EC4000435EDB22946FFF788FFC0B2854202D01F
:103ED40002233360CFE7237A022B0ABFA07A06209D
:103EE4000630FFF79CFF00233360C6E7440200203E
:103EF4000C0000204A020020480200202DE9F04175
:103F04004F4C2368002B41D0A3794E4DFE2B04D196
:103F140001232B600023236038E02B6823B984F845
:103F2400A430062384F8A53094F8A40094F8A510CE
:103F3400454E091A3044FFF75FFF94F8A430184443
:103F440094F8A530C0B2834284F8A4000AD9FFF7DC
:103F54006AFF012806D194F8A430002B0CBF062375
:103F64000723D6E7002194F8A420501EA2F1020CE6
:103F740004EB000ECBB283420ADB4BBB94F8A400E3
:103F840094F8A530834227D905232B60BDE8F0813E
:103F9400E71897F8A680B8F1FF0F03D197F8A77038
:103FA400FF2FEAD0634503D19EF8A670FF2FE4D01B
:103FB4000131DFE75F1897F8A670214481F8A670F5
:103FC400C1B2914200F10100F4DB84F8A420D5E7EA
:103FD400D21A00202344F3E7A27994F8A8309A4235
:103FE40001D0072395E794F8A9100431C9B2884297
:103FF40084F8A5100DD2091A3044FFF7FDFE94F899
:10400400A430184494F8A530C0B2834284F8A400C4
:10401400BAD80020034694F8A920C1B28A4207D234
:10402400DB43224492F8A920DBB29A42D9D16FE74C
:10403400214491F8A81001300B44DBB2EDE700BF36
:10404400440200200C000020EA02002010B5054CB8
:10405400FFF704FF236823B9FFF750FF2368052BFC
:10406400FAD010BD0C000020014B1868704700BF47
:104074000C000020014B9871704700BF44020020DF
:10408400014B1872704700BF44020020014B0344E7
:104094005972704744020020014BD871704700BF29
:1040A40044020020034B93F8AA30034214BF0120BA
:1040B4000020704744020020014B93F8A900704788
:1040C40044020020024B034493F8AB00704700BF46
:1040D4004402002000EB012080B27047C0B2704758
:1040E400C0F307207047054B1A68002AFDD101224E
:1040F4001A7202229871DA71FFF7A8BF44020020F5
:1041040010B5084C2368002BFDD102232372012330
:10411400A3720423A0716172E371FFF797FF94F80F
:10412400AB0010BD4402002010B4074B1C68002CE7
:10413400FDD198719A720320042218725972DA71AF
:1041440010BCFFF783BF00BF4402002010B50A4C27
:104154002368002BFDD102232372A3720423A071D0
:10416400E3716172FFF772FF94F8AC3094F8AB001E
:1041740000EB032080B210BD4402002010B4084BB1
:104184001C68002CFDD19A72C2F307229871DA726E
:104194000320052218725972DA7110BCFFF756BF5A
:1041A40044020020044B196801F0380119601A68B0
:1041B40002431A60704700BF00200240044B196894
:1041C40021F0080119601A6802431A60704700BFA1
:1041D40000200240044B196821F0100119601A688C
:1041E40002431A60704700BF00200240034B044A98
:1041F4005A6002F188325A60704700BF00200240C2
:1042040023016745024A136943F080031361704731
:1042140000200240014BD86980087047002002400A
:10422400014B186A704700BF00200240024BD86956
:10423400C0F34000704700BF00200240024B1868E2
:10424400C0F34010704700BF00200240044B1A69BD
:1042540011B110431861704722EA0000FAE700BF69
:10426400002002400128064B03D1D86900F0010068
:104274007047DB68184214BF01200020704700BF5C
:1042840000200240014BD860704700BF002002406C
:10429400084BDA68D10709D4DA68520708D4DB6816
:1042A40013F0100F14BF032004207047012070473F
:1042B400022070470020024073B504460025FFF732
:1042C400E7FFFF2601280FD114B9052002B070BD05
:1042D40001950196019B1BB9FFF7DAFF013CF1E759
:1042E400019B013B0193F5E7002C08BF0520EDE796
:1042F40038B5054640F6FF70FFF7DEFF042815D1F8
:104304000B4C40F6FF70236943F00203236165619F
:10431400236943F040032361FFF7CEFF012805D052
:10432400236923F00203DB04DB0C236138BD00BFE7
:104334000020024040F6FF7010B5FFF7BDFF0428CF
:1043440014D10B4C40F6FF70236943F0040323613E
:10435400236943F040032361FFF7AEFF012805D032
:10436400236923F00403DB04DB0C236110BD00BFCD
:104374000020024040F6FF7010B5FFF79DFF0428AF
:104384002BD1164C164B40F6FF70A36003F1883313
:10439400A360236943F020032361236943F04003AE
:1043A4002361FFF789FF04280FD1A52223690F2079
:1043B40023F02003DB04DB0C2361236943F01003A7
:1043C4002361084B1A80FFF777FF012805D0236982
:1043D40023F01003DB04DB0C236110BD002002403A
:1043E4002301674500F8FF1F70B506460F200D46F0
:1043F400FFF762FF042818D10C4C0F20236943F007
:1044040001032361ABB23380FFF756FF042804D1C4
:104414002D0C0F207580FFF74FFF012805D023696D
:1044240023F00103DB04DB0C236170BD0020024098
:1044340070B505460F200E46FFF73EFF042810D145
:10444400084C0F20236943F0010323612E80FFF7FA
:1044540033FF012805D0236923F00103DB04DB0CBF
:10446400236170BD0020024070B506460F200D4642
:10447400FFF722FF042816D10B4C0C4BADB2A360FE
:1044840003F18833A36023690F2043F010032361F1
:104494003580FFF711FF012805D0236923F01003AD
:1044A400DB04DB0C236170BD00200240230167455F
:1044B40010B504460F20FFF7FFFE042838D1E4436B
:1044C4001F4B204AE1B29A6002F188329A601A695D
:1044D400FF2942F010021A6121D1C4F30723FF2BF4
:1044E40006D0194A0F205381FFF7E6FE04281DD198
:1044F400C4F30743FF2B06D0134A0F209381FFF721
:10450400DBFE042812D1240EFF2C12D104200C4A05
:10451400136923F01003DB04DB0C136108E00A4B7E
:104524000F201981FFF7C8FE0428D6D00128EED148
:1045340010BD054BA4B2DC810F20FFF7BDFEF5E7EB
:10454400002002402301674500F8FF1F38B50546E7
:1045540040F6FF70FFF7B0FE04282ED11D4C1E4B11
:1045640040F6FF70A36003F18833A360236943F02E
:1045740020032361236943F040032361FFF79CFE7A
:1045840004281DD1236923F02003DB04DB0C236101
:10459400236943F010032361104B7DB1002240F6E0
:1045A400FF701A80FFF788FE012806D0094A1369B4
:1045B40023F01003DB04DB0C136138BDA522EEE706
:1045C4000128FAD0236923F02003DB04DB0C2361E8
:1045D400F3E700BF002002402301674500F8FF1FF6
:1045E400F8B5124D124B0646AB6003F188330F2029
:1045F400AB600C461746FFF75FFE042814D12B6905
:104604003E4343F010032B6134430A4B44F0F80457
:104614000F205C80FFF750FE012805D02B6923F0A2
:104624001003DB04DB0C2B61F8BD00BF002002404B
:104634002301674500F8FF1F08B5294B984237D07E
:104644000CD8A3F50063984224D003F58063984204
:1046540027D0A3F50063984212D008BD214B98429D
:104664002DD003F58063984230D0A3F500639842BF
:10467400F3D10121402000F04DFC0021402005E051
:104684000121042000F046FC00210420BDE808407C
:1046940000F040BC0121082000F03CFC002108206F
:1046A400F4E70121102000F035FC00211020EDE793
:1046B4000121202000F02EFC00212020E6E701212A
:1046C400802000F027FC00218020DFE701214FF447
:1046D400807000F01FFC00214FF48070D6E700BF0B
:1046E40000140140001C0140012108B5084600F0F7
:1046F40011FCBDE808400021012000F00BBCCB7880
:10470400F0B503F00F05DB0644BF8B781D430B782F
:10471400D3B1002201274FF00F0C03680C8807FA6D
:1047240002F636EA04040BD194000CFA04FE23EAE0
:104734000E0305FA04F42343CC78282C29D14661CE
:104744000132082AEAD103600B88FF2B20D900220A
:1047540001274FF00F0C43680E8802F1080407FA92
:1047640004F434EA06060FD196000CFA06FE23EA96
:104774000E0305FA06F63343CE78282E08BF4461AB
:10478400CE78482E08BF04610132082AE4D1436080
:10479400F0BD482C08BF0661D2E74FF6FF730380D3
:1047A40040F20243438070478368194214BF0120DA
:1047B40000207047806880B27047C368194214BFF4
:1047C400012000207047C06880B2704701617047C3
:1047D400416170470AB10161704741617047C1602E
:1047E400704741F4803383618161836183698369A4
:1047F4007047054A136823F07F031B041B0C0B430B
:1048040043EA00131360704700000140014BD86174
:10481400704700BF0000204230B5134A00F4401531
:10482400B5F5401F536884B20ED1556823F0706308
:1048340025F07065556021B1400D000104FA00F0C7
:104844000343094A536030BDC2024DBF0322420DE7
:104854001201C0F303454CBFAA4004FA02F223EA52
:10486400020343F07063E6E70000014010B50F2433
:1048740001F0030301F0FC0101F1804101F58031F5
:104884008A689B009C4022EA04028A608A689840F5
:104894001043886010BD00BF6FF070434FF0FF31CC
:1048A400094AC2F88010C2F88430C2F88011C2F8F4
:1048B40084310023184603F1C00101330F2B42F861
:1048C4002100F8D1704700BF00E100E04FF0206202
:1048D400084B09495A6000229A60D9601A615A61EA
:1048E4009A61DA611A625A624FF0FF329A62DA62AE
:1048F4001A63704700ED00E00000FA05034B40F036
:10490400BF6040F40030D860704700BF00ED00E0A5
:10491400C37830B502787BB31D4B0F25D968437833
:10492400C943C1F30221C1F1040403FA04F48378F6
:1049340025FA01F10B402343FF2402F0030102F0A6
:10494400FC0202F1604202F56142D2F80053C90050
:104954001B018B406B4004FA01F10B406B40C2F821
:10496400003301220378590903F01F0302FA03F309
:10497400084A42F8213030BD0121530902F01F02D8
:1049840001FA02F20349203341F82320F3E700BF80
:1049940000ED00E000E100E0002303704370837049
:1049A400C370704701F027BA01F027BA01F027BAA3
:1049B40001F027BA000101F026BA01F027BA024B30
:1049C4005868C0F30930704700ED00E0012300F09F
:1049D4001F0293404009044A403052F82020934378
:1049E4000CBF01200020704700E100E04FF0E023FD
:1049F400C3F8000F70470122430900F01F0002FAB8
:104A040000F0024A603342F82300704700E100E0FE
:104A1400024B5868C0F30900704700BF00ED00E086
:104A2400012300F01F0293404009044A803052F8E9
:104A3400202093430CBF01200020704700E100E0D8
:104A4400014B1868704700BF00ED00E021F06041A1
:104A5400024B21F07F0101439960704700ED00E0B3
:104A6400014B024ADA60704700ED00E00400FA05E9
:104A7400014B024ADA60704700ED00E00100FA05DC
:104A8400044B1A6911B110431861704722EA0000FF
:104A9400FAE700BF00ED00E000F01F03012098409A
:104AA400044B5A6A11B110435862704722EA00005D
:104AB400FAE700BF00ED00E010B5114BDB68DB4303
:104AC400C3F30223C3F10404A140FF2424FA03F333
:104AD4001340C0F38112920002F1604202F56D426C
:104AE4000B43C0F30121C90090698C4020EA0404FF
:104AF400946190691B018B400343936110BD00BF17
:104B040000ED00E0C0F3832301209840034B5B6A6F
:104B140030EA03030CBF01200020704700ED00E0E1
:104B240000F01F030120034A984051680843506075
:104B3400704700BF00ED00E000F01F03581E012382
:104B4400024A834051680B435360704700ED00E014
:104B5400C0F3833301209840034B5B6A30EA0303BC
:104B64000CBF01200020704700ED00E010F4402F3E
:104B74000A4AC0F3814301D1D06A7047012B0AD19C
:104B8400C0F30153906ADA00D040022B14BF00F046
:104B94000F00C0B27047106B704700BF00ED00E01B
:104BA400034B10F4800F0CBF586B986B704700BF19
:104BB40000ED00E008B501214FF0805000F0B6F997
:104BC400BDE8084000214FF0805000F0AFB9014B20
:104BD4001862704700000E42014B1861704700BF15
:104BE40000000E42034A136823F0E00303431360FA
:104BF400704700BF00700040014BC3F8A00070472D
:104C040000000E420A4A0129136823F0030343EA11
:104C1400000313604FF0E022D2F8103D43F0040388
:104C2400C2F8103D01D101F0C1B801F0C1B800BF14
:104C340000700040094B1A6842F004021A601A68B6
:104C440042F002021A604FF0E022D2F8103D43F025
:104C54000403C2F8103D01F0A9B800BF0070004081
:104C6400034B5B68034214BF01200020704700BF60
:104C740000700040024A136843EA800313607047DF
:104C8400007000400C4B1A6842F001021A60596827
:104C94000A4A0A405A601A6822F0847222F4803266
:104CA4001A601A6822F480221A605A6822F4FE02FA
:104CB4005A6000229A607047001002400000FFF81A
:104CC4000C4BB0F5803F1A6822F480321A601A68DF
:104CD40022F480221A6003D0B0F5802F05D07047EB
:104CE4001A6842F480321A6070471A6842F4A022AB
:104CF400F9E700BF00100240002382B0084A019384
:104D04001168019B013301938B0303D4019BB3F519
:104D1400A06FF5D11068C0F3404002B0704700BFE7
:104D240000100240034A136823F0F80343EAC00367
:104D34001360704700100240014B1860704700BFB9
:104D440000004242034A536823F47C130B43034399
:104D54005360704700100240014B1866704700BF53
:104D640000004242034A536823F0030303435360A1
:104D7400704700BF00100240024B586800F00C005E
:104D8400704700BF00100240034A536823F0F00349
:104D940003435360704700BF00100240034A536846
:104DA40023F4E06303435360704700BF00100240E4
:104DB400034A536823F4605343EAC00353607047C3
:104DC40000100240044B5A7A11B1104358727047D4
:104DD40022EA0000FAE700BF00100240014BC3F8CA
:104DE400D800704700004242034A536823F440430A
:104DF40003435360704700BF001002400022084B79
:104E0400012883F8202083F8202002D0042803D02E
:104E1400704783F820007047052283F820207047EC
:104E240000100240014BC3F8800470470000424266
:104E3400024A136A03431362704700BF0010024022
:104E4400014BC3F83C0470470000424210B51B4AB2
:104E5400536803F00C03082B1FD0194B03605368ED
:104E64001849C3F30313CC5C0368E34043605468FC
:104E7400C4F302240C5D23FA04F484605468C4F37C
:104E8400C2240C5DE340C3605268C2F38132114412
:104E94000A7CB3FBF2F3036110BD53685168C3F39A
:104EA4008343CC0303F1020302D407494B43D5E700
:104EB40051688903F9D40249F8E700BF00100240A1
:104EC40000127A00B060000800093D00044B5A69E2
:104ED40011B110435861704722EA0000FAE700BF9D
:104EE40000100240044B9A6911B110439861704755
:104EF40022EA0000FAE700BF00100240044BDA691E
:104F040011B11043D861704722EA0000FAE700BFEC
:104F140000100240044BDA6811B11043D8607047A6
:104F240022EA0000FAE700BF00100240044B1A69AD
:104F340011B110431861704722EA0000FAE700BF7C
:104F440000100240014BC3F8400470470000424285
:104F5400014BD864704700BF00004242014BD87136
:104F6400704700BF001002404209012A074B07D1D5
:104F74001B6800F01F0023FA00F000F001007047E6
:104F8400022A0CBF1B6A5B6AF3E700BF00100240F1
:104F9400024A536A43F08073536270470010024020
:104FA400034B9B68184214BF01200020704700BFC8
:104FB40000100240014B9872704700BF001002407D
:104FC4004FF0E0231A6904280CBF42F0040222F0D7
:104FD40004021A6170474FF0E023586170470128BA
:104FE4004FF0E02304D11A6942F001021A617047BC
:104FF400023003D11A6922F00102F7E700229A6114
:1050040070474FF0E0231A6918B142F002021A61A6
:10501400704722F00202FAE74FF0E02398697047E4
:10502400C308022B4FF0E0230CBF1B69DB6923FA92
:1050340000F000F00100704730B5058C42EA03121D
:1050440025F001052D042D0C0584048B058C24F01A
:10505400F304ADB22404240C25F0020514432943BF
:10506400A4B241F001010483018430BD70B5068C03
:10507400120226F010063604360C0684058B048CC6
:1050840025F44075A4B22D0524F020042D0D42EA28
:10509400033244EA01141543A4B2ADB244F010043F
:1050A4000583048470BD08B5304B98424DD016D8A2
:1050B400A3F50063984241D007D8B0F1804F2CD0BB
:1050C400A3F58063984232D008BD294B9842FBD1A6
:1050D40001210820FFF72AFF0021082023E0254BA7
:1050E40098420ED003F50063984235D0A3F590336F
:1050F4009842E9D101212020FFF718FF0021202048
:1051040011E001214FF40060FFF704FF00214FF488
:105114000060BDE80840FFF7FDBE01210846FFF727
:1051240005FF00210120BDE80840FFF7FFBE012173
:105134000220FFF7FBFE00210220F4E701210420F6
:10514400FFF7F4FE00210420EDE701211020FFF712
:10515400EDFE00211020E6E701214FF40050FFF797
:10516400D9FE00214FF40050D3E700BF00100040E7
:10517400000C0040002C0140038810B503F08F039D
:105184000380CB884C880288234313439BB203805B
:105194008B8883850B88038501238382044B984283
:1051A40003D003F50063984201D10B7A038610BD46
:1051B400002C0140038C30B523F001031B041B0CAD
:1051C4000384038C8288048B0D8824F070042404E7
:1051D400240C23F002032C431B040D891B0C2B43CA
:1051E4004D8892B22B43CD8885860D4DA84203D0BD
:1051F40005F50065A8420FD14D8923F008032B4320
:105204008D8823F0040322F440722B4352048D89C9
:10521400520CC9892A430A4382800483038430BD23
:10522400002C0140038C70B523F010031B041B0CED
:105234000384038C8488028B0D8822F4E0421204D8
:10524400120C4E8842EA052223F020030D891B0428
:1052540035431B0C43EA0513CD88A4B20587114DD1
:1052640092B2A8429BB203D005F50065A84215D1BD
:105274004D8923F0800343EA05134FF6BF751D40A3
:105284008B8824F4406445EA03138D89C989640436
:10529400640C294344EA81049BB2A4B2848002834F
:1052A400038470BD002C0140038C70B523F480731B
:1052B4001B041B0C0384038C8288848B0D8824F0CC
:1052C40070042404240C4E882C4323F400730D89A9
:1052D4001B0435431B0C43EA0523CD8892B2858712
:1052E400104D9BB2A84203D005F50065A84215D124
:1052F4004D8923F4006343EA05234FF6FF351D402F
:105304008B8822F4405245EA03238D89C9895204CB
:10531400520C294342EA01129BB292B282808483E6
:10532400038470BD002C0140038C70B523F48053BA
:105334001B041B0C0384038C8488828B0D8822F449
:10534400E0421204120C4E8842EA052223F4005370
:105354000D891B0435431B0C43EA0533CD88A4B2E5
:10536400A0F84050094D92B2A8429BB203D005F573
:105374000065A84205D18989C4F30D0444EA811467
:10538400A4B284808283038470BD00BF002C0140DA
:105394004A880B8813438A881343CA8813430A89AB
:1053A40013434A8913438A8913439BB2A0F84430B8
:1053B40070474FF6FF73838000230380C3804380CC
:1053C400037270470023038043808380C38003817A
:1053D40043818381C381704700230122038043807A
:1053E4008280C380038170470023038043808380CD
:1053F400C3800381438183817047038821B19BB2B9
:1054040043F001030380704723F001039B059B0DC8
:10541400F8E7B0F8443039B16FEA43436FEA5343D5
:105424009BB2A0F844307047C3F30E03F9E78389B5
:105434009BB212B119438181704723EA0101FAE753
:10544400818270471143A0F848107047FFF7EFBFFF
:10545400038923F007031B041B0C03817047038992
:1054640023F070031B041B0C0B43038103899BB2C1
:1054740043F007030381704738B50D46602D11468C
:1054840004464FF001020ED1FFF7F0FD238923F00B
:1054940070031B041B0C2B43238123899BB243F011
:1054A4000703238138BDFFF7C7FDEFE710B5048973
:1054B40042EA0322E4B211430C43A4B2048110BDB6
:1054C40010B5FFF7F3FF038923F077031B041B0CCC
:1054D40043F07703038110BD10B5FFF7E7FF03899D
:1054E4009BB243F48043038110BD018582827047DF
:1054F400038823F070039B059B0D0B4303807047C7
:10550400038923F070031B041B0C0B4303817047B6
:1055140070B50689048B058C24F4407424F00304CC
:1055240025F0220526F0070624042D043604240C55
:105534002D0C42EA0312360C44F4807415430E43D6
:1055440044F00104ADB206810483058470BD038B6D
:1055540023F070031B041B0C0B4303837047038B62
:1055640023F4E0431B041B0C43EA01239BB2038393
:105574007047838B23F070031B041B0C0B43838342
:105584007047838B23F4E0431B041B0C43EA012381
:105594009BB283837047038821B19BB243F080039D
:1055A4000380704723F080039B059B0DF8E78388F5
:1055B40021B19BB243F004038380704723F00403BA
:1055C4001B041B0CF8E7838821B19BB243F008034A
:1055D4008380704723F008031B041B0CF8E78388BF
:1055E40021B19BB243F001038380704723F0010390
:1055F4001B041B0CF8E7038B23F008031B041B0C90
:105604000B4303837047038B23F400631B041B0CBD
:1056140043EA01239BB203837047838B23F008037F
:105624001B041B0C0B4383837047838B23F400639D
:105634001B041B0C43EA01239BB283837047038B37
:1056440023F004031B041B0C0B4303837047038BDD
:1056540023F480631B041B0C43EA01239BB20383E2
:105664007047838B23F004031B041B0C0B438383BD
:105674007047838B23F480631B041B0C43EA0123D0
:105684009BB283837047038B23F080031B041B0CA2
:105694000B4303837047038BC3F30E0343EA0123D5
:1056A4009BB203837047838B23F080031B041B0C82
:1056B4000B4383837047838BC3F30E0343EA0123B5
:1056C4009BB283837047038C23F002031B041B0CDF
:1056D4000B4303847047038C23F008031B041B0C47
:1056E4000B4303847047038C23F020031B041B0C1F
:1056F40043EA01139BB203847047038C23F08003B5
:105704001B041B0C43EA01139BB203847047038CF4
:1057140023F400731B041B0C43EA01239BB2038490
:105724007047038C23F400631B041B0C43EA01231E
:105734009BB203847047038C23F400531B041B0C9B
:1057440043EA01339BB20384704710B50124038CF0
:105754008C409BB223EA04030384038C8A401A43DB
:1057640092B2028410BD10B50424038C8C409BB209
:1057740023EA04030384038C8A401A4392B202840A
:1057840010BD10B50124038C8C409BB223EA0403A2
:10579400038421F00803183053B949080B5823F047
:1057A40070031B041B0C0B500B5813430B5010BD00
:1057B4000439C1F34E010B5823F4E0431B041B0CC2
:1057C4000B500C5813029BB22343EFE7038821B11B
:1057D4009BB243F002030380704723F002039B054E
:1057E4009B0DF8E7038821B19BB243F004030380C7
:1057F400704723F004039B059B0DF8E7838821B1D0
:105804009BB243F080038380704723F080031B0422
:105814001B0CF8E7028822F008029205920D028020
:1058240003889BB20B4303807047838823F0700383
:105834001B041B0C838083889BB20B4383807047BB
:10584400038923F007031B041B0C038103899BB208
:105854000B4303817047038923F080031B041B0C53
:10586400038103899BB20B43038170478184704792
:1058740081857047818670470187704781877047AB
:10588400A0F840107047038B23F00C031B041B0C7F
:105894000383038B9BB20B4303837047028B22F475
:1058A40040621204120C0283038B9BB243EA01236D
:1058B4009BB203837047F8B50C464988A288002937
:1058C40027880CBF02250025012A0CBF02260126C9
:1058D400238977B9FFF7B0FBE188FFF7D4FF32469D
:1058E40029462389FFF7C2FBE188BDE8F840FFF7AA
:1058F400D5BFFFF7BBFBE188FFF7D0FF294632464F
:105904002389FFF799FBE188BDE8F840FFF7BBBFA7
:10591400838B23F00C031B041B0C8383838B9BB2AC
:105924000B4383837047828B22F440621204120C6F
:105934008283838B9BB243EA01239BB283837047A8
:10594400F8B50E460D88B2884988338935B9FFF712
:1059540073FBF188BDE8F840FFF795BF042D06D12D
:10596400FFF784FBF188BDE8F840FFF797BF082DE7
:10597400058C21D125F480752D042D0C0584B0F8F7
:105984001CC0078C1FFA8CFCBFB22CF0F30C27F45C
:10599400007747EA012742EA0C0C4CEA031CBFB229
:1059A40047F480771FFA8CFCA0F81CC00784F188A8
:1059B400BDE8F840FFF7ACBF25F480552D042D0C4D
:1059C4000584878B058C27F44077ADB24FEA033CFE
:1059D4003F0525F400553F0D45EA01354CEA022CFC
:1059E40047EA0C0CADB245F480551FFA8CFCA0F8C4
:1059F4001CC00584F188BDE8F840FFF794BF028815
:105A0400D2B2028003889BB20B4303807047808E1E
:105A140080B27047008F80B27047808F80B2704729
:105A2400B0F8400080B27047808C80B27047008D1F
:105A340080B27047038A194214BF012000207047C6
:105A4400C94389B201827047038A828911EA03003B
:105A540092B203D00A4214BF012000207047C94308
:105A640089B20182704700BF08B5234B984231D0F8
:105A740008D8A3F50063984217D003F580639842D1
:105A84001FD008BD1D4B98422DD003F568439842A2
:105A9400F7D101214FF48040FFF73CFABDE80840FC
:105AA40000214FF48040FFF735BA01214FF4003054
:105AB400FFF73CFA00214FF40030BDE80840FFF73F
:105AC40035BA01214FF48020FFF730FA00214FF45A
:105AD4008020F2E701214FF40020FFF727FA00218C
:105AE4004FF40020E9E701214FF48010FFF71EFA7C
:105AF40000214FF48010E0E7004C004000500040CB
:105B040030B50446038ACA889BB223F44053134336
:105B1400038283898A8823F4B05323F00C031B0483
:105B24001B0C13430A8987B013434A890D46134358
:105B34009BB28381838A8A899BB223F44073134383
:105B4400838201A8FFF782F9DDE903320D498C4213
:105B540008BF1346192253432A689200B3FBF2F399
:105B64006422B3FBF2F102FB11331B013233B3FBAA
:105B7400F2F303F00F0343EA01139BB2238107B04E
:105B840030BD00BF003801404FF416520023C0E975
:105B940000234FF4402283818260704710B54C8803
:105BA4000B88028A23438C88C98892B223430B430F
:105BB40022F4706213439BB2038210BD002303805E
:105BC40043808380C3807047838921B19BB243F4AF
:105BD40000538381704723F400531B041B0CF8E724
:105BE400012310B5C1F342149C4201F01F0103FAD2
:105BF40001F105D10C3003683AB11943016010BDBD
:105C0400022C0CBF10301430F5E723EA0101F5E74C
:105C1400838A9BB212B119438182704723EA01013E
:105C2400FAE7038A23F00F031B041B0C0382038A85
:105C34009BB20B4303827047838923F400631B04E4
:105C44001B0C838183899BB20B43838170478389B7
:105C540021B19BB243F002038381704723F0020316
:105C64001B041B0CF8E7038A23F020031B041B0C02
:105C74000382038A9BB20B4303827047038A21B1D8
:105C84009BB243F480430382704723F480431B0494
:105C94001B0CF8E7C1F30801818070478088C0F3CA
:105CA4000800704783899BB243F0010383817047E6
:105CB400028BD2B20283038B9BB243EA0123038398
:105CC4007047028B02F47F420283038B9BB20B4327
:105CD40003837047838A21B19BB243F020038382FC
:105CE400704723F020031B041B0CF8E7838A21B1BF
:105CF4009BB243F010038382704723F010031B040C
:105D04001B0CF8E7838A21B19BB243F0080383821A
:105D1400704723F008031B041B0CF8E7838A23F065
:105D240004031B041B0C8382838A9BB20B43838270
:105D34007047838A21B19BB243F002038382704788
:105D440023F002031B041B0CF8E70388194214BF59
:105D5400012000207047C94389B2018070470123A4
:105D640010B5C1F3421402469C4201F01F0003FA2D
:105D740000F00ED1938912889BB2184092B238B1C8
:105D84000123090A03FA01F10A4214BF184600204C
:105D940010BD022C0CBF138A938AECE70123090A75
:105DA4008B40DB439BB20380704700BF30BF70471A
:105DB40020BF704740BF7047BFF36F8F7047BFF37A
:105DC4004F8F7047BFF35F8F704701DF7047EFF36A
:105DD4001480704780F31488BFF36F8F7047EFF31C
:105DE4000980704780F309887047EFF30880704793
:105DF40080F30888704772B6704762B6704771B610
:105E0400704761B6704780F311887047EFF31280D2
:105E1400704740BA704700BA70470000684620F0E7
:105E240007018D46104B01B51048DA1C121AC11E29
:105E340022F00302994288BF00220D4900F01EF8A7
:105E44000C4B0D48DA1C121AC11E22F003029942AF
:105E540088BF0022002100F0D3F800F085F8BDE8E7
:105E640001408546704700BF10000020000000205C
:105E7400306100083003002010000020844641EA0D
:105E8400000313F0030349D1403A23D30B680360A2
:105E94004B6843608B688360CB68C3600B690361A4
:105EA4004B6943618B698361CB69C3610B6A03628C
:105EB4004B6A43628B6A8362CB6AC3620B6B036374
:105EC4004B6B43638B6B8363CB6BC3634030403159
:105ED400403ADBD230320BD30B6803604B6843602B
:105EE4008B688360CB68C36010301031103AF3D2F2
:105EF4000C3205D351F8043B40F8043B043AF9D280
:105F0400043208D0D2071CBF11F8013B00F8013B52
:105F140001D30B8803806046704700BF082A13D35F
:105F24008B07B1D010F00303AED0C3F10403D21A2F
:105F3400DB071CBF11F8013B00F8013BA4D331F887
:105F4400023B20F8023B9FE7043AD9D3013A11F807
:105F5400013B00F8013BF9D20B7803704B78437096
:105F64008B788370604670472DE9F843FDF7E0F8BD
:105F7400FDF720F9FDF751F9FDF7F0FAFDF78CF97B
:105F840001210020FDF752FF194B02205968FDF74B
:105F940013FBFDF791FCFDF787FC1648FDF760FA4B
:105FA4004FF00009DFF85080144F4046002240F2C1
:105FB4002551FFF715FE97F88D6187F88D91FDF750
:105FC400EFF9F6B2044688B1FDF728FA0546012236
:105FD40040F225514046FFF703FE0EB1FDF784FC65
:105FE400002CE2D02846FDF791FCDEE70546EEE7FB
:105FF40000000020C4600008004800401000002099
:10600400830730B548D0541E002A3FD00346CAB295
:1060140001E0013C3AD303F8012B9D07F9D1032C8D
:106024002DD9CDB245EA05250F2C45EA054536D9CB
:10603400A4F1100222F00F0C03F1200EE6444FEA03
:10604400121C03F1100242E9045542E902551032D0
:106054007245F8D10CF1010214F00C0F03EB02129B
:1060640004F00F0C13D0ACF1040323F00303043346
:10607400134442F8045B9342FBD10CF003042CB1AB
:10608400CAB21C4403F8012B9C42FBD130BD6446C8
:106094001346002CF4D1F9E703461446BFE71A4629
:1060A400A446E0E71103020F0C01081000000000F1
:1060B4000102030401020304060708090204060896
:1060C40052454144590D0A002C41002C42004552CE
:1060D400522C0044584C5F5458004F4B2C004F56E0
:1060E4004552464C4F57004241445F41524700508D
:1060F400494E4700504F4E470D0A00415800484F43
:106104004D450053544F5000424547494E005054AA
:1061140000454E44004241445F434D4400424144E3
:0C6124005F5452414A0052414E47450072
:106130006400000000E1000040420F000100000088
:0400000508005E2170
:00000001FF
